
A328p_adc+uart+lcd.elf:     file format elf32-avr

Sections:
Idx Name          Size      VMA       LMA       File off  Algn
  0 .data         00000010  00800100  0000069a  0000072e  2**0
                  CONTENTS, ALLOC, LOAD, DATA
  1 .text         0000069a  00000000  00000000  00000094  2**1
                  CONTENTS, ALLOC, LOAD, READONLY, CODE
  2 .bss          00000002  00800110  00800110  0000073e  2**0
                  ALLOC

Disassembly of section .text:

00000000 <__vectors>:
   0:	0c 94 34 00 	jmp	0x68	; 0x68 <__ctors_end>
   4:	0c 94 51 00 	jmp	0xa2	; 0xa2 <__bad_interrupt>
   8:	0c 94 51 00 	jmp	0xa2	; 0xa2 <__bad_interrupt>
   c:	0c 94 51 00 	jmp	0xa2	; 0xa2 <__bad_interrupt>
  10:	0c 94 51 00 	jmp	0xa2	; 0xa2 <__bad_interrupt>
  14:	0c 94 51 00 	jmp	0xa2	; 0xa2 <__bad_interrupt>
  18:	0c 94 51 00 	jmp	0xa2	; 0xa2 <__bad_interrupt>
  1c:	0c 94 51 00 	jmp	0xa2	; 0xa2 <__bad_interrupt>
  20:	0c 94 51 00 	jmp	0xa2	; 0xa2 <__bad_interrupt>
  24:	0c 94 51 00 	jmp	0xa2	; 0xa2 <__bad_interrupt>
  28:	0c 94 51 00 	jmp	0xa2	; 0xa2 <__bad_interrupt>
  2c:	0c 94 51 00 	jmp	0xa2	; 0xa2 <__bad_interrupt>
  30:	0c 94 51 00 	jmp	0xa2	; 0xa2 <__bad_interrupt>
  34:	0c 94 51 00 	jmp	0xa2	; 0xa2 <__bad_interrupt>
  38:	0c 94 51 00 	jmp	0xa2	; 0xa2 <__bad_interrupt>
  3c:	0c 94 51 00 	jmp	0xa2	; 0xa2 <__bad_interrupt>
  40:	0c 94 51 00 	jmp	0xa2	; 0xa2 <__bad_interrupt>
  44:	0c 94 51 00 	jmp	0xa2	; 0xa2 <__bad_interrupt>
  48:	0c 94 bc 02 	jmp	0x578	; 0x578 <__vector_18>
  4c:	0c 94 51 00 	jmp	0xa2	; 0xa2 <__bad_interrupt>
  50:	0c 94 51 00 	jmp	0xa2	; 0xa2 <__bad_interrupt>
  54:	0c 94 51 00 	jmp	0xa2	; 0xa2 <__bad_interrupt>
  58:	0c 94 51 00 	jmp	0xa2	; 0xa2 <__bad_interrupt>
  5c:	0c 94 51 00 	jmp	0xa2	; 0xa2 <__bad_interrupt>
  60:	0c 94 51 00 	jmp	0xa2	; 0xa2 <__bad_interrupt>
  64:	0c 94 51 00 	jmp	0xa2	; 0xa2 <__bad_interrupt>

00000068 <__ctors_end>:
  68:	11 24       	eor	r1, r1
  6a:	1f be       	out	0x3f, r1	; 63
  6c:	cf ef       	ldi	r28, 0xFF	; 255
  6e:	d8 e0       	ldi	r29, 0x08	; 8
  70:	de bf       	out	0x3e, r29	; 62
  72:	cd bf       	out	0x3d, r28	; 61

00000074 <__do_copy_data>:
  74:	11 e0       	ldi	r17, 0x01	; 1
  76:	a0 e0       	ldi	r26, 0x00	; 0
  78:	b1 e0       	ldi	r27, 0x01	; 1
  7a:	ea e9       	ldi	r30, 0x9A	; 154
  7c:	f6 e0       	ldi	r31, 0x06	; 6
  7e:	02 c0       	rjmp	.+4      	; 0x84 <.do_copy_data_start>

00000080 <.do_copy_data_loop>:
  80:	05 90       	lpm	r0, Z+
  82:	0d 92       	st	X+, r0

00000084 <.do_copy_data_start>:
  84:	a0 31       	cpi	r26, 0x10	; 16
  86:	b1 07       	cpc	r27, r17
  88:	d9 f7       	brne	.-10     	; 0x80 <.do_copy_data_loop>

0000008a <__do_clear_bss>:
  8a:	11 e0       	ldi	r17, 0x01	; 1
  8c:	a0 e1       	ldi	r26, 0x10	; 16
  8e:	b1 e0       	ldi	r27, 0x01	; 1
  90:	01 c0       	rjmp	.+2      	; 0x94 <.do_clear_bss_start>

00000092 <.do_clear_bss_loop>:
  92:	1d 92       	st	X+, r1

00000094 <.do_clear_bss_start>:
  94:	a2 31       	cpi	r26, 0x12	; 18
  96:	b1 07       	cpc	r27, r17
  98:	e1 f7       	brne	.-8      	; 0x92 <.do_clear_bss_loop>
  9a:	0e 94 d9 02 	call	0x5b2	; 0x5b2 <main>
  9e:	0c 94 4b 03 	jmp	0x696	; 0x696 <_exit>

000000a2 <__bad_interrupt>:
  a2:	0c 94 00 00 	jmp	0	; 0x0 <__vectors>

000000a6 <ADC_Init>:
  a6:	88 30       	cpi	r24, 0x08	; 8
  a8:	b1 f0       	breq	.+44     	; 0xd6 <ADC_Init+0x30>
  aa:	89 30       	cpi	r24, 0x09	; 9
  ac:	38 f4       	brcc	.+14     	; 0xbc <ADC_Init+0x16>
  ae:	82 30       	cpi	r24, 0x02	; 2
  b0:	61 f0       	breq	.+24     	; 0xca <ADC_Init+0x24>
  b2:	84 30       	cpi	r24, 0x04	; 4
  b4:	71 f0       	breq	.+28     	; 0xd2 <ADC_Init+0x2c>
  b6:	81 30       	cpi	r24, 0x01	; 1
  b8:	b1 f4       	brne	.+44     	; 0xe6 <ADC_Init+0x40>
  ba:	09 c0       	rjmp	.+18     	; 0xce <ADC_Init+0x28>
  bc:	80 32       	cpi	r24, 0x20	; 32
  be:	79 f0       	breq	.+30     	; 0xde <ADC_Init+0x38>
  c0:	80 34       	cpi	r24, 0x40	; 64
  c2:	79 f0       	breq	.+30     	; 0xe2 <ADC_Init+0x3c>
  c4:	80 31       	cpi	r24, 0x10	; 16
  c6:	79 f4       	brne	.+30     	; 0xe6 <ADC_Init+0x40>
  c8:	08 c0       	rjmp	.+16     	; 0xda <ADC_Init+0x34>
  ca:	91 e0       	ldi	r25, 0x01	; 1
  cc:	0d c0       	rjmp	.+26     	; 0xe8 <ADC_Init+0x42>
  ce:	90 e0       	ldi	r25, 0x00	; 0
  d0:	0b c0       	rjmp	.+22     	; 0xe8 <ADC_Init+0x42>
  d2:	92 e0       	ldi	r25, 0x02	; 2
  d4:	09 c0       	rjmp	.+18     	; 0xe8 <ADC_Init+0x42>
  d6:	93 e0       	ldi	r25, 0x03	; 3
  d8:	07 c0       	rjmp	.+14     	; 0xe8 <ADC_Init+0x42>
  da:	94 e0       	ldi	r25, 0x04	; 4
  dc:	05 c0       	rjmp	.+10     	; 0xe8 <ADC_Init+0x42>
  de:	95 e0       	ldi	r25, 0x05	; 5
  e0:	03 c0       	rjmp	.+6      	; 0xe8 <ADC_Init+0x42>
  e2:	96 e0       	ldi	r25, 0x06	; 6
  e4:	01 c0       	rjmp	.+2      	; 0xe8 <ADC_Init+0x42>
  e6:	97 e0       	ldi	r25, 0x07	; 7
  e8:	80 91 7a 00 	lds	r24, 0x007A
  ec:	80 68       	ori	r24, 0x80	; 128
  ee:	89 2b       	or	r24, r25
  f0:	80 93 7a 00 	sts	0x007A, r24
  f4:	80 91 7b 00 	lds	r24, 0x007B
  f8:	80 93 7b 00 	sts	0x007B, r24
  fc:	80 91 7c 00 	lds	r24, 0x007C
 100:	80 64       	ori	r24, 0x40	; 64
 102:	80 93 7c 00 	sts	0x007C, r24
 106:	08 95       	ret

00000108 <ADC_MUX_Select>:
 108:	ec e7       	ldi	r30, 0x7C	; 124
 10a:	f0 e0       	ldi	r31, 0x00	; 0
 10c:	90 81       	ld	r25, Z
 10e:	98 2b       	or	r25, r24
 110:	90 83       	st	Z, r25
 112:	08 95       	ret

00000114 <ADC_read>:
 114:	80 91 7a 00 	lds	r24, 0x007A
 118:	80 64       	ori	r24, 0x40	; 64
 11a:	80 93 7a 00 	sts	0x007A, r24
 11e:	80 91 7a 00 	lds	r24, 0x007A
 122:	86 fd       	sbrc	r24, 6
 124:	fc cf       	rjmp	.-8      	; 0x11e <ADC_read+0xa>
 126:	20 91 78 00 	lds	r18, 0x0078
 12a:	30 91 79 00 	lds	r19, 0x0079
 12e:	c9 01       	movw	r24, r18
 130:	08 95       	ret

00000132 <ADC_read_channel>:
 132:	90 91 7c 00 	lds	r25, 0x007C
 136:	98 2b       	or	r25, r24
 138:	90 93 7c 00 	sts	0x007C, r25
 13c:	80 91 7a 00 	lds	r24, 0x007A
 140:	80 64       	ori	r24, 0x40	; 64
 142:	80 93 7a 00 	sts	0x007A, r24
 146:	80 91 7a 00 	lds	r24, 0x007A
 14a:	86 fd       	sbrc	r24, 6
 14c:	fc cf       	rjmp	.-8      	; 0x146 <ADC_read_channel+0x14>
 14e:	20 91 78 00 	lds	r18, 0x0078
 152:	30 91 79 00 	lds	r19, 0x0079
 156:	c9 01       	movw	r24, r18
 158:	08 95       	ret

0000015a <_LCD_OutNibble>:
 15a:	80 ff       	sbrs	r24, 0
 15c:	02 c0       	rjmp	.+4      	; 0x162 <_LCD_OutNibble+0x8>
 15e:	5f 9a       	sbi	0x0b, 7	; 11
 160:	01 c0       	rjmp	.+2      	; 0x164 <_LCD_OutNibble+0xa>
 162:	5f 98       	cbi	0x0b, 7	; 11
 164:	81 ff       	sbrs	r24, 1
 166:	02 c0       	rjmp	.+4      	; 0x16c <_LCD_OutNibble+0x12>
 168:	5e 9a       	sbi	0x0b, 6	; 11
 16a:	01 c0       	rjmp	.+2      	; 0x16e <_LCD_OutNibble+0x14>
 16c:	5e 98       	cbi	0x0b, 6	; 11
 16e:	82 ff       	sbrs	r24, 2
 170:	02 c0       	rjmp	.+4      	; 0x176 <_LCD_OutNibble+0x1c>
 172:	5d 9a       	sbi	0x0b, 5	; 11
 174:	01 c0       	rjmp	.+2      	; 0x178 <_LCD_OutNibble+0x1e>
 176:	5d 98       	cbi	0x0b, 5	; 11
 178:	83 ff       	sbrs	r24, 3
 17a:	02 c0       	rjmp	.+4      	; 0x180 <_LCD_OutNibble+0x26>
 17c:	2f 9a       	sbi	0x05, 7	; 5
 17e:	08 95       	ret
 180:	2f 98       	cbi	0x05, 7	; 5
 182:	08 95       	ret

00000184 <_LCD_InNibble>:
 184:	89 b1       	in	r24, 0x09	; 9
 186:	88 1f       	adc	r24, r24
 188:	88 27       	eor	r24, r24
 18a:	88 1f       	adc	r24, r24
 18c:	4e 99       	sbic	0x09, 6	; 9
 18e:	82 60       	ori	r24, 0x02	; 2
 190:	4d 99       	sbic	0x09, 5	; 9
 192:	84 60       	ori	r24, 0x04	; 4
 194:	1f 99       	sbic	0x03, 7	; 3
 196:	88 60       	ori	r24, 0x08	; 8
 198:	08 95       	ret

0000019a <_LCD_Read>:
 19a:	1f 93       	push	r17
 19c:	57 98       	cbi	0x0a, 7	; 10
 19e:	56 98       	cbi	0x0a, 6	; 10
 1a0:	55 98       	cbi	0x0a, 5	; 10
 1a2:	27 98       	cbi	0x04, 7	; 4
 1a4:	29 9a       	sbi	0x05, 1	; 5
 1a6:	28 9a       	sbi	0x05, 0	; 5
 1a8:	0e 94 c2 00 	call	0x184	; 0x184 <_LCD_InNibble>
 1ac:	18 2f       	mov	r17, r24
 1ae:	12 95       	swap	r17
 1b0:	10 7f       	andi	r17, 0xF0	; 240
 1b2:	28 98       	cbi	0x05, 0	; 5
 1b4:	28 9a       	sbi	0x05, 0	; 5
 1b6:	0e 94 c2 00 	call	0x184	; 0x184 <_LCD_InNibble>
 1ba:	28 98       	cbi	0x05, 0	; 5
 1bc:	81 2b       	or	r24, r17
 1be:	1f 91       	pop	r17
 1c0:	08 95       	ret

000001c2 <LCD_ReadStatus>:
 1c2:	2a 98       	cbi	0x05, 2	; 5
 1c4:	0e 94 cd 00 	call	0x19a	; 0x19a <_LCD_Read>
 1c8:	08 95       	ret

000001ca <_LCD_Write>:
 1ca:	1f 93       	push	r17
 1cc:	18 2f       	mov	r17, r24
 1ce:	57 9a       	sbi	0x0a, 7	; 10
 1d0:	56 9a       	sbi	0x0a, 6	; 10
 1d2:	55 9a       	sbi	0x0a, 5	; 10
 1d4:	27 9a       	sbi	0x04, 7	; 4
 1d6:	29 98       	cbi	0x05, 1	; 5
 1d8:	28 9a       	sbi	0x05, 0	; 5
 1da:	82 95       	swap	r24
 1dc:	8f 70       	andi	r24, 0x0F	; 15
 1de:	0e 94 ad 00 	call	0x15a	; 0x15a <_LCD_OutNibble>
 1e2:	28 98       	cbi	0x05, 0	; 5
 1e4:	28 9a       	sbi	0x05, 0	; 5
 1e6:	81 2f       	mov	r24, r17
 1e8:	0e 94 ad 00 	call	0x15a	; 0x15a <_LCD_OutNibble>
 1ec:	28 98       	cbi	0x05, 0	; 5
 1ee:	0e 94 e1 00 	call	0x1c2	; 0x1c2 <LCD_ReadStatus>
 1f2:	87 fd       	sbrc	r24, 7
 1f4:	fc cf       	rjmp	.-8      	; 0x1ee <_LCD_Write+0x24>
 1f6:	1f 91       	pop	r17
 1f8:	08 95       	ret

000001fa <LCD_WriteCommand>:
 1fa:	2a 98       	cbi	0x05, 2	; 5
 1fc:	0e 94 e5 00 	call	0x1ca	; 0x1ca <_LCD_Write>
 200:	08 95       	ret

00000202 <LCD_WriteData>:
 202:	2a 9a       	sbi	0x05, 2	; 5
 204:	0e 94 e5 00 	call	0x1ca	; 0x1ca <_LCD_Write>
 208:	08 95       	ret

0000020a <LCD_ReadData>:
 20a:	2a 9a       	sbi	0x05, 2	; 5
 20c:	0e 94 cd 00 	call	0x19a	; 0x19a <_LCD_Read>
 210:	08 95       	ret

00000212 <LCD_WriteText>:
 212:	cf 93       	push	r28
 214:	df 93       	push	r29
 216:	ec 01       	movw	r28, r24
 218:	03 c0       	rjmp	.+6      	; 0x220 <LCD_WriteText+0xe>
 21a:	21 96       	adiw	r28, 0x01	; 1
 21c:	0e 94 01 01 	call	0x202	; 0x202 <LCD_WriteData>
 220:	88 81       	ld	r24, Y
 222:	88 23       	and	r24, r24
 224:	d1 f7       	brne	.-12     	; 0x21a <LCD_WriteText+0x8>
 226:	df 91       	pop	r29
 228:	cf 91       	pop	r28
 22a:	08 95       	ret

0000022c <LCD_GoTo>:
 22c:	62 95       	swap	r22
 22e:	66 0f       	add	r22, r22
 230:	66 0f       	add	r22, r22
 232:	60 7c       	andi	r22, 0xC0	; 192
 234:	68 0f       	add	r22, r24
 236:	86 2f       	mov	r24, r22
 238:	80 68       	ori	r24, 0x80	; 128
 23a:	0e 94 fd 00 	call	0x1fa	; 0x1fa <LCD_WriteCommand>
 23e:	08 95       	ret

00000240 <LCD_Clear>:
 240:	81 e0       	ldi	r24, 0x01	; 1
 242:	0e 94 fd 00 	call	0x1fa	; 0x1fa <LCD_WriteCommand>
 246:	80 ea       	ldi	r24, 0xA0	; 160
 248:	9f e0       	ldi	r25, 0x0F	; 15
 24a:	01 97       	sbiw	r24, 0x01	; 1
 24c:	f1 f7       	brne	.-4      	; 0x24a <LCD_Clear+0xa>
 24e:	08 95       	ret

00000250 <LCD_Home>:
 250:	82 e0       	ldi	r24, 0x02	; 2
 252:	0e 94 fd 00 	call	0x1fa	; 0x1fa <LCD_WriteCommand>
 256:	80 ea       	ldi	r24, 0xA0	; 160
 258:	9f e0       	ldi	r25, 0x0F	; 15
 25a:	01 97       	sbiw	r24, 0x01	; 1
 25c:	f1 f7       	brne	.-4      	; 0x25a <LCD_Home+0xa>
 25e:	08 95       	ret

00000260 <LCD_Initalize>:
 260:	1f 93       	push	r17
 262:	cf 93       	push	r28
 264:	df 93       	push	r29
 266:	57 9a       	sbi	0x0a, 7	; 10
 268:	56 9a       	sbi	0x0a, 6	; 10
 26a:	55 9a       	sbi	0x0a, 5	; 10
 26c:	27 9a       	sbi	0x04, 7	; 4
 26e:	20 9a       	sbi	0x04, 0	; 4
 270:	22 9a       	sbi	0x04, 2	; 4
 272:	21 9a       	sbi	0x04, 1	; 4
 274:	80 e3       	ldi	r24, 0x30	; 48
 276:	95 e7       	ldi	r25, 0x75	; 117
 278:	01 97       	sbiw	r24, 0x01	; 1
 27a:	f1 f7       	brne	.-4      	; 0x278 <LCD_Initalize+0x18>
 27c:	2a 98       	cbi	0x05, 2	; 5
 27e:	28 98       	cbi	0x05, 0	; 5
 280:	29 98       	cbi	0x05, 1	; 5
 282:	10 e0       	ldi	r17, 0x00	; 0
 284:	c0 e1       	ldi	r28, 0x10	; 16
 286:	d7 e2       	ldi	r29, 0x27	; 39
 288:	28 9a       	sbi	0x05, 0	; 5
 28a:	83 e0       	ldi	r24, 0x03	; 3
 28c:	0e 94 ad 00 	call	0x15a	; 0x15a <_LCD_OutNibble>
 290:	28 98       	cbi	0x05, 0	; 5
 292:	ce 01       	movw	r24, r28
 294:	01 97       	sbiw	r24, 0x01	; 1
 296:	f1 f7       	brne	.-4      	; 0x294 <LCD_Initalize+0x34>
 298:	1f 5f       	subi	r17, 0xFF	; 255
 29a:	13 30       	cpi	r17, 0x03	; 3
 29c:	a9 f7       	brne	.-22     	; 0x288 <LCD_Initalize+0x28>
 29e:	28 9a       	sbi	0x05, 0	; 5
 2a0:	82 e0       	ldi	r24, 0x02	; 2
 2a2:	0e 94 ad 00 	call	0x15a	; 0x15a <_LCD_OutNibble>
 2a6:	28 98       	cbi	0x05, 0	; 5
 2a8:	80 ed       	ldi	r24, 0xD0	; 208
 2aa:	97 e0       	ldi	r25, 0x07	; 7
 2ac:	01 97       	sbiw	r24, 0x01	; 1
 2ae:	f1 f7       	brne	.-4      	; 0x2ac <LCD_Initalize+0x4c>
 2b0:	88 e2       	ldi	r24, 0x28	; 40
 2b2:	0e 94 fd 00 	call	0x1fa	; 0x1fa <LCD_WriteCommand>
 2b6:	88 e0       	ldi	r24, 0x08	; 8
 2b8:	0e 94 fd 00 	call	0x1fa	; 0x1fa <LCD_WriteCommand>
 2bc:	81 e0       	ldi	r24, 0x01	; 1
 2be:	0e 94 fd 00 	call	0x1fa	; 0x1fa <LCD_WriteCommand>
 2c2:	86 e0       	ldi	r24, 0x06	; 6
 2c4:	0e 94 fd 00 	call	0x1fa	; 0x1fa <LCD_WriteCommand>
 2c8:	8f e0       	ldi	r24, 0x0F	; 15
 2ca:	0e 94 fd 00 	call	0x1fa	; 0x1fa <LCD_WriteCommand>
 2ce:	df 91       	pop	r29
 2d0:	cf 91       	pop	r28
 2d2:	1f 91       	pop	r17
 2d4:	08 95       	ret

000002d6 <USART_Init>:
 2d6:	10 92 c5 00 	sts	0x00C5, r1
 2da:	8f ef       	ldi	r24, 0xFF	; 255
 2dc:	80 93 c4 00 	sts	0x00C4, r24
 2e0:	88 e9       	ldi	r24, 0x98	; 152
 2e2:	80 93 c1 00 	sts	0x00C1, r24
 2e6:	86 e0       	ldi	r24, 0x06	; 6
 2e8:	80 93 c2 00 	sts	0x00C2, r24
 2ec:	08 95       	ret

000002ee <USART_Transmit>:
 2ee:	98 2f       	mov	r25, r24
 2f0:	80 91 c0 00 	lds	r24, 0x00C0
 2f4:	85 ff       	sbrs	r24, 5
 2f6:	fc cf       	rjmp	.-8      	; 0x2f0 <USART_Transmit+0x2>
 2f8:	90 93 c6 00 	sts	0x00C6, r25
 2fc:	08 95       	ret

000002fe <BCD_to_dec>:
 2fe:	85 30       	cpi	r24, 0x05	; 5
 300:	10 f0       	brcs	.+4      	; 0x306 <BCD_to_dec+0x8>
 302:	9a e0       	ldi	r25, 0x0A	; 10
 304:	01 c0       	rjmp	.+2      	; 0x308 <BCD_to_dec+0xa>
 306:	90 e0       	ldi	r25, 0x00	; 0
 308:	89 74       	andi	r24, 0x49	; 73
 30a:	89 0f       	add	r24, r25
 30c:	08 95       	ret

0000030e <number_to_string>:
 30e:	8f 92       	push	r8
 310:	9f 92       	push	r9
 312:	af 92       	push	r10
 314:	bf 92       	push	r11
 316:	cf 92       	push	r12
 318:	df 92       	push	r13
 31a:	ef 92       	push	r14
 31c:	ff 92       	push	r15
 31e:	0f 93       	push	r16
 320:	1f 93       	push	r17
 322:	df 93       	push	r29
 324:	cf 93       	push	r28
 326:	cd b7       	in	r28, 0x3d	; 61
 328:	de b7       	in	r29, 0x3e	; 62
 32a:	2b 97       	sbiw	r28, 0x0b	; 11
 32c:	0f b6       	in	r0, 0x3f	; 63
 32e:	f8 94       	cli
 330:	de bf       	out	0x3e, r29	; 62
 332:	0f be       	out	0x3f, r0	; 63
 334:	cd bf       	out	0x3d, r28	; 61
 336:	7b 01       	movw	r14, r22
 338:	8c 01       	movw	r16, r24
 33a:	94 2e       	mov	r9, r20
 33c:	85 2e       	mov	r8, r21
 33e:	de 01       	movw	r26, r28
 340:	11 96       	adiw	r26, 0x01	; 1
 342:	e0 e0       	ldi	r30, 0x00	; 0
 344:	f1 e0       	ldi	r31, 0x01	; 1
 346:	8b e0       	ldi	r24, 0x0B	; 11
 348:	01 90       	ld	r0, Z+
 34a:	0d 92       	st	X+, r0
 34c:	81 50       	subi	r24, 0x01	; 1
 34e:	e1 f7       	brne	.-8      	; 0x348 <number_to_string+0x3a>
 350:	a7 01       	movw	r20, r14
 352:	89 2d       	mov	r24, r9
 354:	98 2d       	mov	r25, r8
 356:	9c 01       	movw	r18, r24
 358:	69 01       	movw	r12, r18
 35a:	08 94       	sec
 35c:	c1 1c       	adc	r12, r1
 35e:	d1 1c       	adc	r13, r1
 360:	ca 01       	movw	r24, r20
 362:	6a e0       	ldi	r22, 0x0A	; 10
 364:	70 e0       	ldi	r23, 0x00	; 0
 366:	0e 94 02 03 	call	0x604	; 0x604 <__divmodhi4>
 36a:	ab 01       	movw	r20, r22
 36c:	61 15       	cp	r22, r1
 36e:	71 05       	cpc	r23, r1
 370:	a1 f7       	brne	.-24     	; 0x35a <number_to_string+0x4c>
 372:	f6 01       	movw	r30, r12
 374:	10 82       	st	Z, r1
 376:	5e 01       	movw	r10, r28
 378:	08 94       	sec
 37a:	a1 1c       	adc	r10, r1
 37c:	b1 1c       	adc	r11, r1
 37e:	c8 01       	movw	r24, r16
 380:	b7 01       	movw	r22, r14
 382:	2a e0       	ldi	r18, 0x0A	; 10
 384:	30 e0       	ldi	r19, 0x00	; 0
 386:	40 e0       	ldi	r20, 0x00	; 0
 388:	50 e0       	ldi	r21, 0x00	; 0
 38a:	0e 94 15 03 	call	0x62a	; 0x62a <__udivmodsi4>
 38e:	f5 01       	movw	r30, r10
 390:	e6 0f       	add	r30, r22
 392:	f7 1f       	adc	r31, r23
 394:	80 81       	ld	r24, Z
 396:	f6 01       	movw	r30, r12
 398:	82 93       	st	-Z, r24
 39a:	6f 01       	movw	r12, r30
 39c:	c8 01       	movw	r24, r16
 39e:	b7 01       	movw	r22, r14
 3a0:	2a e0       	ldi	r18, 0x0A	; 10
 3a2:	30 e0       	ldi	r19, 0x00	; 0
 3a4:	40 e0       	ldi	r20, 0x00	; 0
 3a6:	50 e0       	ldi	r21, 0x00	; 0
 3a8:	0e 94 15 03 	call	0x62a	; 0x62a <__udivmodsi4>
 3ac:	c9 01       	movw	r24, r18
 3ae:	da 01       	movw	r26, r20
 3b0:	7c 01       	movw	r14, r24
 3b2:	8d 01       	movw	r16, r26
 3b4:	e1 14       	cp	r14, r1
 3b6:	f1 04       	cpc	r15, r1
 3b8:	01 05       	cpc	r16, r1
 3ba:	11 05       	cpc	r17, r1
 3bc:	01 f7       	brne	.-64     	; 0x37e <number_to_string+0x70>
 3be:	89 2d       	mov	r24, r9
 3c0:	98 2d       	mov	r25, r8
 3c2:	2b 96       	adiw	r28, 0x0b	; 11
 3c4:	0f b6       	in	r0, 0x3f	; 63
 3c6:	f8 94       	cli
 3c8:	de bf       	out	0x3e, r29	; 62
 3ca:	0f be       	out	0x3f, r0	; 63
 3cc:	cd bf       	out	0x3d, r28	; 61
 3ce:	cf 91       	pop	r28
 3d0:	df 91       	pop	r29
 3d2:	1f 91       	pop	r17
 3d4:	0f 91       	pop	r16
 3d6:	ff 90       	pop	r15
 3d8:	ef 90       	pop	r14
 3da:	df 90       	pop	r13
 3dc:	cf 90       	pop	r12
 3de:	bf 90       	pop	r11
 3e0:	af 90       	pop	r10
 3e2:	9f 90       	pop	r9
 3e4:	8f 90       	pop	r8
 3e6:	08 95       	ret

000003e8 <TWI_start>:
 3e8:	84 ea       	ldi	r24, 0xA4	; 164
 3ea:	80 93 bc 00 	sts	0x00BC, r24
 3ee:	80 91 bc 00 	lds	r24, 0x00BC
 3f2:	87 ff       	sbrs	r24, 7
 3f4:	fc cf       	rjmp	.-8      	; 0x3ee <TWI_start+0x6>
 3f6:	08 95       	ret

000003f8 <TWI_stop>:
 3f8:	84 e9       	ldi	r24, 0x94	; 148
 3fa:	80 93 bc 00 	sts	0x00BC, r24
 3fe:	80 91 bc 00 	lds	r24, 0x00BC
 402:	84 fd       	sbrc	r24, 4
 404:	fc cf       	rjmp	.-8      	; 0x3fe <TWI_stop+0x6>
 406:	08 95       	ret

00000408 <TWI_write>:
 408:	80 93 bb 00 	sts	0x00BB, r24
 40c:	84 e8       	ldi	r24, 0x84	; 132
 40e:	80 93 bc 00 	sts	0x00BC, r24
 412:	80 91 bc 00 	lds	r24, 0x00BC
 416:	87 ff       	sbrs	r24, 7
 418:	fc cf       	rjmp	.-8      	; 0x412 <TWI_write+0xa>
 41a:	08 95       	ret

0000041c <TWI_read>:
 41c:	88 23       	and	r24, r24
 41e:	11 f4       	brne	.+4      	; 0x424 <TWI_read+0x8>
 420:	84 e8       	ldi	r24, 0x84	; 132
 422:	01 c0       	rjmp	.+2      	; 0x426 <TWI_read+0xa>
 424:	84 ec       	ldi	r24, 0xC4	; 196
 426:	80 93 bc 00 	sts	0x00BC, r24
 42a:	80 91 bc 00 	lds	r24, 0x00BC
 42e:	87 ff       	sbrs	r24, 7
 430:	fc cf       	rjmp	.-8      	; 0x42a <TWI_read+0xe>
 432:	80 91 bb 00 	lds	r24, 0x00BB
 436:	08 95       	ret

00000438 <TWI_write_buf>:
 438:	98 2f       	mov	r25, r24
 43a:	f9 01       	movw	r30, r18
 43c:	84 ea       	ldi	r24, 0xA4	; 164
 43e:	80 93 bc 00 	sts	0x00BC, r24
 442:	80 91 bc 00 	lds	r24, 0x00BC
 446:	87 ff       	sbrs	r24, 7
 448:	fc cf       	rjmp	.-8      	; 0x442 <TWI_write_buf+0xa>
 44a:	90 93 bb 00 	sts	0x00BB, r25
 44e:	84 e8       	ldi	r24, 0x84	; 132
 450:	80 93 bc 00 	sts	0x00BC, r24
 454:	80 91 bc 00 	lds	r24, 0x00BC
 458:	87 ff       	sbrs	r24, 7
 45a:	fc cf       	rjmp	.-8      	; 0x454 <TWI_write_buf+0x1c>
 45c:	60 93 bb 00 	sts	0x00BB, r22
 460:	84 e8       	ldi	r24, 0x84	; 132
 462:	80 93 bc 00 	sts	0x00BC, r24
 466:	80 91 bc 00 	lds	r24, 0x00BC
 46a:	87 ff       	sbrs	r24, 7
 46c:	fc cf       	rjmp	.-8      	; 0x466 <TWI_write_buf+0x2e>
 46e:	0c c0       	rjmp	.+24     	; 0x488 <TWI_write_buf+0x50>
 470:	80 81       	ld	r24, Z
 472:	80 93 bb 00 	sts	0x00BB, r24
 476:	90 93 bc 00 	sts	0x00BC, r25
 47a:	80 91 bc 00 	lds	r24, 0x00BC
 47e:	87 ff       	sbrs	r24, 7
 480:	fc cf       	rjmp	.-8      	; 0x47a <TWI_write_buf+0x42>
 482:	31 96       	adiw	r30, 0x01	; 1
 484:	41 50       	subi	r20, 0x01	; 1
 486:	01 c0       	rjmp	.+2      	; 0x48a <TWI_write_buf+0x52>
 488:	94 e8       	ldi	r25, 0x84	; 132
 48a:	44 23       	and	r20, r20
 48c:	89 f7       	brne	.-30     	; 0x470 <TWI_write_buf+0x38>
 48e:	84 e9       	ldi	r24, 0x94	; 148
 490:	80 93 bc 00 	sts	0x00BC, r24
 494:	80 91 bc 00 	lds	r24, 0x00BC
 498:	84 fd       	sbrc	r24, 4
 49a:	fc cf       	rjmp	.-8      	; 0x494 <TWI_write_buf+0x5c>
 49c:	08 95       	ret

0000049e <TWI_read_buf>:
 49e:	98 2f       	mov	r25, r24
 4a0:	f9 01       	movw	r30, r18
 4a2:	84 ea       	ldi	r24, 0xA4	; 164
 4a4:	80 93 bc 00 	sts	0x00BC, r24
 4a8:	80 91 bc 00 	lds	r24, 0x00BC
 4ac:	87 ff       	sbrs	r24, 7
 4ae:	fc cf       	rjmp	.-8      	; 0x4a8 <TWI_read_buf+0xa>
 4b0:	90 93 bb 00 	sts	0x00BB, r25
 4b4:	84 e8       	ldi	r24, 0x84	; 132
 4b6:	80 93 bc 00 	sts	0x00BC, r24
 4ba:	80 91 bc 00 	lds	r24, 0x00BC
 4be:	87 ff       	sbrs	r24, 7
 4c0:	fc cf       	rjmp	.-8      	; 0x4ba <TWI_read_buf+0x1c>
 4c2:	60 93 bb 00 	sts	0x00BB, r22
 4c6:	84 e8       	ldi	r24, 0x84	; 132
 4c8:	80 93 bc 00 	sts	0x00BC, r24
 4cc:	80 91 bc 00 	lds	r24, 0x00BC
 4d0:	87 ff       	sbrs	r24, 7
 4d2:	fc cf       	rjmp	.-8      	; 0x4cc <TWI_read_buf+0x2e>
 4d4:	84 ea       	ldi	r24, 0xA4	; 164
 4d6:	80 93 bc 00 	sts	0x00BC, r24
 4da:	80 91 bc 00 	lds	r24, 0x00BC
 4de:	87 ff       	sbrs	r24, 7
 4e0:	fc cf       	rjmp	.-8      	; 0x4da <TWI_read_buf+0x3c>
 4e2:	9f 5f       	subi	r25, 0xFF	; 255
 4e4:	90 93 bb 00 	sts	0x00BB, r25
 4e8:	84 e8       	ldi	r24, 0x84	; 132
 4ea:	80 93 bc 00 	sts	0x00BC, r24
 4ee:	80 91 bc 00 	lds	r24, 0x00BC
 4f2:	87 ff       	sbrs	r24, 7
 4f4:	fc cf       	rjmp	.-8      	; 0x4ee <TWI_read_buf+0x50>
 4f6:	0e c0       	rjmp	.+28     	; 0x514 <TWI_read_buf+0x76>
 4f8:	41 50       	subi	r20, 0x01	; 1
 4fa:	11 f4       	brne	.+4      	; 0x500 <TWI_read_buf+0x62>
 4fc:	84 e8       	ldi	r24, 0x84	; 132
 4fe:	01 c0       	rjmp	.+2      	; 0x502 <TWI_read_buf+0x64>
 500:	84 ec       	ldi	r24, 0xC4	; 196
 502:	80 93 bc 00 	sts	0x00BC, r24
 506:	80 91 bc 00 	lds	r24, 0x00BC
 50a:	87 ff       	sbrs	r24, 7
 50c:	fc cf       	rjmp	.-8      	; 0x506 <TWI_read_buf+0x68>
 50e:	80 91 bb 00 	lds	r24, 0x00BB
 512:	81 93       	st	Z+, r24
 514:	44 23       	and	r20, r20
 516:	81 f7       	brne	.-32     	; 0x4f8 <TWI_read_buf+0x5a>
 518:	84 e9       	ldi	r24, 0x94	; 148
 51a:	80 93 bc 00 	sts	0x00BC, r24
 51e:	80 91 bc 00 	lds	r24, 0x00BC
 522:	84 fd       	sbrc	r24, 4
 524:	fc cf       	rjmp	.-8      	; 0x51e <TWI_read_buf+0x80>
 526:	08 95       	ret

00000528 <TWI_SetBusSpeed>:
 528:	9c 01       	movw	r18, r24
 52a:	40 e0       	ldi	r20, 0x00	; 0
 52c:	50 e0       	ldi	r21, 0x00	; 0
 52e:	60 e8       	ldi	r22, 0x80	; 128
 530:	78 e3       	ldi	r23, 0x38	; 56
 532:	81 e0       	ldi	r24, 0x01	; 1
 534:	90 e0       	ldi	r25, 0x00	; 0
 536:	0e 94 15 03 	call	0x62a	; 0x62a <__udivmodsi4>
 53a:	20 51       	subi	r18, 0x10	; 16
 53c:	30 40       	sbci	r19, 0x00	; 0
 53e:	40 40       	sbci	r20, 0x00	; 0
 540:	50 40       	sbci	r21, 0x00	; 0
 542:	56 95       	lsr	r21
 544:	47 95       	ror	r20
 546:	37 95       	ror	r19
 548:	27 95       	ror	r18
 54a:	90 e0       	ldi	r25, 0x00	; 0
 54c:	05 c0       	rjmp	.+10     	; 0x558 <TWI_SetBusSpeed+0x30>
 54e:	9f 5f       	subi	r25, 0xFF	; 255
 550:	36 95       	lsr	r19
 552:	27 95       	ror	r18
 554:	36 95       	lsr	r19
 556:	27 95       	ror	r18
 558:	2f 3f       	cpi	r18, 0xFF	; 255
 55a:	31 05       	cpc	r19, r1
 55c:	09 f0       	breq	.+2      	; 0x560 <TWI_SetBusSpeed+0x38>
 55e:	b8 f7       	brcc	.-18     	; 0x54e <TWI_SetBusSpeed+0x26>
 560:	80 91 b9 00 	lds	r24, 0x00B9
 564:	83 70       	andi	r24, 0x03	; 3
 566:	98 2b       	or	r25, r24
 568:	90 93 b9 00 	sts	0x00B9, r25
 56c:	20 93 b8 00 	sts	0x00B8, r18
 570:	84 e4       	ldi	r24, 0x44	; 68
 572:	80 93 bc 00 	sts	0x00BC, r24
 576:	08 95       	ret

00000578 <__vector_18>:
 578:	1f 92       	push	r1
 57a:	0f 92       	push	r0
 57c:	0f b6       	in	r0, 0x3f	; 63
 57e:	0f 92       	push	r0
 580:	11 24       	eor	r1, r1
 582:	8f 93       	push	r24
 584:	ef 93       	push	r30
 586:	ff 93       	push	r31
 588:	80 91 11 01 	lds	r24, 0x0111
 58c:	e6 ec       	ldi	r30, 0xC6	; 198
 58e:	f0 e0       	ldi	r31, 0x00	; 0
 590:	80 83       	st	Z, r24
 592:	80 81       	ld	r24, Z
 594:	80 93 11 01 	sts	0x0111, r24
 598:	80 91 10 01 	lds	r24, 0x0110
 59c:	8f 5f       	subi	r24, 0xFF	; 255
 59e:	80 93 10 01 	sts	0x0110, r24
 5a2:	ff 91       	pop	r31
 5a4:	ef 91       	pop	r30
 5a6:	8f 91       	pop	r24
 5a8:	0f 90       	pop	r0
 5aa:	0f be       	out	0x3f, r0	; 63
 5ac:	0f 90       	pop	r0
 5ae:	1f 90       	pop	r1
 5b0:	18 95       	reti

000005b2 <main>:
 5b2:	8f b7       	in	r24, 0x3f	; 63
 5b4:	80 68       	ori	r24, 0x80	; 128
 5b6:	8f bf       	out	0x3f, r24	; 63
 5b8:	80 91 6f 00 	lds	r24, 0x006F
 5bc:	82 60       	ori	r24, 0x02	; 2
 5be:	80 93 6f 00 	sts	0x006F, r24
 5c2:	80 91 81 00 	lds	r24, 0x0081
 5c6:	8c 60       	ori	r24, 0x0C	; 12
 5c8:	80 93 81 00 	sts	0x0081, r24
 5cc:	82 e1       	ldi	r24, 0x12	; 18
 5ce:	9a e7       	ldi	r25, 0x7A	; 122
 5d0:	90 93 89 00 	sts	0x0089, r25
 5d4:	80 93 88 00 	sts	0x0088, r24
 5d8:	0e 94 6b 01 	call	0x2d6	; 0x2d6 <USART_Init>
 5dc:	78 94       	sei
 5de:	0e 94 30 01 	call	0x260	; 0x260 <LCD_Initalize>
 5e2:	80 e1       	ldi	r24, 0x10	; 16
 5e4:	97 e2       	ldi	r25, 0x27	; 39
 5e6:	01 97       	sbiw	r24, 0x01	; 1
 5e8:	f1 f7       	brne	.-4      	; 0x5e6 <main+0x34>
 5ea:	80 91 10 01 	lds	r24, 0x0110
 5ee:	88 23       	and	r24, r24
 5f0:	e1 f3       	breq	.-8      	; 0x5ea <main+0x38>
 5f2:	10 92 10 01 	sts	0x0110, r1
 5f6:	0e 94 20 01 	call	0x240	; 0x240 <LCD_Clear>
 5fa:	8b e0       	ldi	r24, 0x0B	; 11
 5fc:	91 e0       	ldi	r25, 0x01	; 1
 5fe:	0e 94 09 01 	call	0x212	; 0x212 <LCD_WriteText>
 602:	f3 cf       	rjmp	.-26     	; 0x5ea <main+0x38>

00000604 <__divmodhi4>:
 604:	97 fb       	bst	r25, 7
 606:	09 2e       	mov	r0, r25
 608:	07 26       	eor	r0, r23
 60a:	0a d0       	rcall	.+20     	; 0x620 <__divmodhi4_neg1>
 60c:	77 fd       	sbrc	r23, 7
 60e:	04 d0       	rcall	.+8      	; 0x618 <__divmodhi4_neg2>
 610:	2e d0       	rcall	.+92     	; 0x66e <__udivmodhi4>
 612:	06 d0       	rcall	.+12     	; 0x620 <__divmodhi4_neg1>
 614:	00 20       	and	r0, r0
 616:	1a f4       	brpl	.+6      	; 0x61e <__divmodhi4_exit>

00000618 <__divmodhi4_neg2>:
 618:	70 95       	com	r23
 61a:	61 95       	neg	r22
 61c:	7f 4f       	sbci	r23, 0xFF	; 255

0000061e <__divmodhi4_exit>:
 61e:	08 95       	ret

00000620 <__divmodhi4_neg1>:
 620:	f6 f7       	brtc	.-4      	; 0x61e <__divmodhi4_exit>
 622:	90 95       	com	r25
 624:	81 95       	neg	r24
 626:	9f 4f       	sbci	r25, 0xFF	; 255
 628:	08 95       	ret

0000062a <__udivmodsi4>:
 62a:	a1 e2       	ldi	r26, 0x21	; 33
 62c:	1a 2e       	mov	r1, r26
 62e:	aa 1b       	sub	r26, r26
 630:	bb 1b       	sub	r27, r27
 632:	fd 01       	movw	r30, r26
 634:	0d c0       	rjmp	.+26     	; 0x650 <__udivmodsi4_ep>

00000636 <__udivmodsi4_loop>:
 636:	aa 1f       	adc	r26, r26
 638:	bb 1f       	adc	r27, r27
 63a:	ee 1f       	adc	r30, r30
 63c:	ff 1f       	adc	r31, r31
 63e:	a2 17       	cp	r26, r18
 640:	b3 07       	cpc	r27, r19
 642:	e4 07       	cpc	r30, r20
 644:	f5 07       	cpc	r31, r21
 646:	20 f0       	brcs	.+8      	; 0x650 <__udivmodsi4_ep>
 648:	a2 1b       	sub	r26, r18
 64a:	b3 0b       	sbc	r27, r19
 64c:	e4 0b       	sbc	r30, r20
 64e:	f5 0b       	sbc	r31, r21

00000650 <__udivmodsi4_ep>:
 650:	66 1f       	adc	r22, r22
 652:	77 1f       	adc	r23, r23
 654:	88 1f       	adc	r24, r24
 656:	99 1f       	adc	r25, r25
 658:	1a 94       	dec	r1
 65a:	69 f7       	brne	.-38     	; 0x636 <__udivmodsi4_loop>
 65c:	60 95       	com	r22
 65e:	70 95       	com	r23
 660:	80 95       	com	r24
 662:	90 95       	com	r25
 664:	9b 01       	movw	r18, r22
 666:	ac 01       	movw	r20, r24
 668:	bd 01       	movw	r22, r26
 66a:	cf 01       	movw	r24, r30
 66c:	08 95       	ret

0000066e <__udivmodhi4>:
 66e:	aa 1b       	sub	r26, r26
 670:	bb 1b       	sub	r27, r27
 672:	51 e1       	ldi	r21, 0x11	; 17
 674:	07 c0       	rjmp	.+14     	; 0x684 <__udivmodhi4_ep>

00000676 <__udivmodhi4_loop>:
 676:	aa 1f       	adc	r26, r26
 678:	bb 1f       	adc	r27, r27
 67a:	a6 17       	cp	r26, r22
 67c:	b7 07       	cpc	r27, r23
 67e:	10 f0       	brcs	.+4      	; 0x684 <__udivmodhi4_ep>
 680:	a6 1b       	sub	r26, r22
 682:	b7 0b       	sbc	r27, r23

00000684 <__udivmodhi4_ep>:
 684:	88 1f       	adc	r24, r24
 686:	99 1f       	adc	r25, r25
 688:	5a 95       	dec	r21
 68a:	a9 f7       	brne	.-22     	; 0x676 <__udivmodhi4_loop>
 68c:	80 95       	com	r24
 68e:	90 95       	com	r25
 690:	bc 01       	movw	r22, r24
 692:	cd 01       	movw	r24, r26
 694:	08 95       	ret

00000696 <_exit>:
 696:	f8 94       	cli

00000698 <__stop_program>:
 698:	ff cf       	rjmp	.-2      	; 0x698 <__stop_program>
