:100000000C94DB1D0C94F81D0C94F81D0C94E3214A
:100010000C940C6D0C94F81D0C9487690C94A269D7
:100020000C94F81D0C94F81D0C94F81D0C94F81DFC
:100030000C94F81D0C94A82F0C94F81D0C94F81D2A
:100040000C94F81D0C94F81D0C94F81D0C94F81DDC
:100050000C94BA1F0C94F81D0C94F81D0C94F81D08
:100060000C94E53D0C94F81D0C94F81D0C94F81DAF
:100070000C94F81D0C94F81D0C94F81D4552524F29
:10008000520D0A0D0A000D0A53443A25733E000D25
:100090000A000D0A45696E6520452D4D61696C2089
:1000A000736F6C6C746520676573656E646574202E
:1000B00077657264656E2E004336205A6569743A1E
:1000C0002025692053656B756E64656E00436F6D06
:1000D00070696C69657274206D69742047434320B0
:1000E00056657273696F6E20342E322E3220285777
:1000F000696E415652203230303731323231290D5B
:100100000A00436F6D70696C6965727420616D20BF
:100110004D6179203233203230303820756D2032F5
:10012000313A35333A33340D0A000A0D537973747A
:10013000656D2052656164790A0D003A20504F4E7A
:1001400047210D0A002E2569002E2569002E2569FC
:10015000002569004D792049503A202531692E2526
:1001600031692E2531692E2531690D0A0D0A00529B
:1001700045414459210D0A000A0D4E494320696E3C
:1001800069743A001F1C1F1E1F1E1F1F1E1F1E1FEB
:100190004A616E4665624D61724170724D61794A85
:1001A000756E4A756C4175675365704F63744E6F19
:1001B000764465630025326420257320253464006D
:1001C0004142434445464748494A4B4C4D4E4F50A7
:1001D0005152535455565758595A61626364656673
:1001E0006768696A6B6C6D6E6F7071727374757627
:1001F0007778797A303132333435363738392B2FB6
:100200003D000400051A06FF071F080009000AFF49
:100210000B19C100C00DC232CAEECB05C412C61202
:10022000C70CE400E520E218E3B1E015E16F696E68
:100230006465782E68746D003C686561643E3C6D51
:1002400065746120687474702D65717569763D22DE
:10025000436F6E74656E742D547970652220636FE0
:100260006E74656E743D22746578742F68746D6C5D
:100270003B20636861727365743D69736F2D383814
:1002800035392D3122202F3E0D0A3C7469746C657E
:100290003E415652206D696E6920576562736572E2
:1002A0007665723C2F7469746C653E0D0A3C7374FC
:1002B000796C6520747970653D22746578742F635C
:1002C0007373223E0D0A3C212D2D0D0A424F4459D5
:1002D000207B096D617267696E3A203020302030D2
:1002E00020303B206261636B67726F756E642D63B3
:1002F0006F6C6F723A2077686974653B207465781B
:10030000742D616C69676E3A63656E7465723B202B
:100310007D0D0A502C204449562C2048312C204871
:1003200032207B666F6E742D66616D696C793A2040
:1003300076657264616E612C20617269616C3B202C
:10034000666F6E742D73697A653A20313170783B2F
:100350007D0D0A4831207B20206261636B67726FDC
:10036000756E642D636F6C6F723A20234343434371
:1003700046463B2070616464696E672D746F703A05
:100380003570783B2070616464696E672D626F74AC
:10039000746F6D3A3570783B666F6E742D73697A41
:1003A000653A20323070783B20636F6C6F723A2070
:1003B000233030343036303B20666F6E742D7765D5
:1003C000696768743A626F6C643B206C657474652D
:1003D000722D73706163696E673A203870783B6282
:1003E0006F726465722D746F703A2032707820736A
:1003F0006F6C696420234545454545453B20626F48
:10040000726465722D6C6566743A20327078207360
:100410006F6C696420234545454545453B626F72D5
:100420006465722D626F74746F6D3A20327078203B
:10043000736F6C696420233030343036303B206277
:100440006F726465722D72696768743A20327078D1
:1004500020736F6C696420233030343036303B7D3C
:100460000D0A4832207B20666F6E742D73697A65A1
:100470003A20313570783B2070616464696E672D75
:10048000746F703A20323070783B20706164646918
:100490006E672D6C6566743A353070783B207061FC
:1004A0006464696E672D72696768743A3530707874
:1004B0003B636F6C6F723A233030343038303B20FE
:1004C000666F6E742D7765696768743A626F6C64E5
:1004D0003B20746578742D6465636F726174696F15
:1004E0006E3A756E6465726C696E653B626F7264BC
:1004F00065722D746F703A2031707820736F6C695B
:100500006420233030343038303B7D20502C20485C
:10051000312C204832207B6D617267696E3A203041
:1005200070782030707820357078203070783B7D7E
:100530000D0A2D2D3E0D0A3C2F7374796C653E3CDF
:100540002F686561643E0D0A3C626C6F636B717568
:100550006F74653E0D0A3C626C6F636B71756F74EE
:10056000653E0D0A3C626C6F636B71756F74653E1E
:100570000D0A3C626F64793E3C64697620616C6967
:10058000676E3D2263656E746572223E0D0A3C689B
:10059000313E415652206D696E6920576562736520
:1005A000727665723C2F68313E0D0A3C2F64697685
:1005B0003E3C42523E0D0A3C68323E476C26757501
:1005C0006D6C3B636B77756E7363683C2F68323E6E
:1005D0003C42523E0D0A3C703E57656E6E2064757B
:1005E0002064696573656E2054657874206C65734A
:1005F000656E206B616E6E73742C2068617374205D
:100600006475206573206765736368616666743A14
:100610003C2F703E3C42523E3C42523E0D0A3C70E2
:100620003E3C696D67207372633D2272616B657435
:100630002E676966222077696474683D223930220A
:10064000206865696768743D223932223E3C2F700C
:100650003E3C42523E0D0A3C703E44657220576556
:1006600062736572766572206C2661756D6C3B7580
:10067000667420212121202544415445202D202528
:1006800054494D453C2F703E3C42523E0D0A3C665B
:100690006F726D206E616D653D22666F726D3122E5
:1006A000206D6574686F643D22706F7374222061E1
:1006B0006374696F6E3D22223E0D0A3C7020616CAE
:1006C00069676E3D226C656674223E266E627370A9
:1006D0003B202020203C2F703E0D0A3C7020616C96
:1006E00069676E3D226C656674223E0D0A3C696E38
:1006F00070757420747970653D22636865636B6200
:100700006F7822206E616D653D224F555422207610
:10071000616C75653D2241222025504F5254413075
:100720003E0D0A3C7370616E20636C6173733D22F1
:100730005374696C32223E506F72742041205069AC
:100740006E20303C2F7370616E3E3C2F703E0D0A60
:100750003C7020616C69676E3D226C656674223E58
:100760000D0A3C696E70757420747970653D226362
:100770006865636B626F7822206E616D653D224F04
:100780005554222076616C75653D22422220255009
:100790004F525441313E0D0A3C7370616E20636CC0
:1007A0006173733D225374696C32223E506F7274D0
:1007B00020412050696E20313C2F7370616E3E3CA9
:1007C0002F703E0D0A3C7020616C69676E3D226C93
:1007D000656674223E0D0A3C696E707574207479EA
:1007E00070653D22636865636B626F7822206E617D
:1007F0006D653D224F5554222076616C75653D2212
:1008000043222025504F525441323E0D0A3C737012
:10081000616E20636C6173733D225374696C322284
:100820003E506F727420412050696E20323C2F730D
:1008300070616E3E3C2F703E0D0A3C64697620610B
:100840006C69676E3D226C656674223E0D0A3C70D1
:10085000726520616C69676E3D226C656674223E2C
:100860003C696E70757420747970653D2273756291
:100870006D697422206E616D653D225355422220C0
:1008800076616C75653D2253656E64656E223E3CF3
:100890002F7072653E0D0A3C62723E0D0A3C627218
:1008A0003E0D0A3C703E3C696D67207372633D22C9
:1008B0002550494E4437222077696474683D2231BF
:1008C0003722206865696768743D223137223E20EF
:1008D000506F727420442050696E20373C2F703E58
:1008E0000D0A3C703E3C696D67207372633D2225A2
:1008F00050494E4436222077696474683D2231376E
:1009000022206865696768743D223137223E205095
:100910006F727420442050696E20363C2F703E0D5B
:100920000A3C703E3C696D67207372633D2225501E
:10093000494E4435222077696474683D223137225C
:10094000206865696768743D223137223E20506F08
:10095000727420442050696E20353C2F703E0D0A81
:100960003C62723E0D0A3C62723E0D0A3C7461624A
:100970006C6520616C69676E3D2263656E7465729B
:10098000222077696474683D223530302220626FFE
:10099000726465723D2230223E0D0A3C74723E0D37
:1009A0000A3C74682073636F70653D22636F6C222C
:1009B0003E3C7020616C69676E3D2263656E7465B4
:1009C00072223E45696E67616E673C2F703E3C2F18
:1009D00074683E0D0A3C74682073636F70653D2235
:1009E000636F6C223E3C7020616C69676E3D2263D0
:1009F000656E746572223E42616C6B656E3C2F7051
:100A00003E3C2F74683E0D0A3C74682073636F701F
:100A1000653D22636F6C223E3C7020616C69676E9D
:100A20003D2263656E746572223E54656D70657219
:100A300061747572205B266465673B435D3C2F7073
:100A40003E3C2F74683E0D0A3C2F74723E0D0A3CEA
:100A500074723E0D0A3C74643E3C7020616C6967A0
:100A60006E3D2263656E746572223E41442D4B617A
:100A70006E616C303C2F703E3C2F74643E0D0A3C1E
:100A800074643E3C696D67207372633D2262616CE1
:100A90006B652E676966222077696474683D22253C
:100AA000564140303022206865696768743D2231C4
:100AB00030223E3C2F74643E0D0A3C74643E3C7010
:100AC00020616C69676E3D2263656E746572223EBB
:100AD0002556414030303C2F703E3C2F74643E0D13
:100AE0000A3C2F74723E0D0A3C74723E0D0A3C742F
:100AF000643E3C7020616C69676E3D2263656E7474
:100B00006572223E41442D4B616E616C313C2F7009
:100B10003E3C2F74643E0D0A3C74643E3C696D6734
:100B2000207372633D2262616C6B652E6769662279
:100B30002077696474683D22255641403031222077
:100B40006865696768743D223130223E3C2F7464C9
:100B50003E0D0A3C74643E3C7020616C69676E3DDA
:100B60002263656E746572223E2556414030313CE9
:100B70002F703E3C2F74643E0D0A3C2F74723E0D64
:100B80000A3C74723E0D0A3C74643E3C7020616CF9
:100B900069676E3D2263656E746572223E41442D25
:100BA0004B616E616C323C2F703E202020203C2F28
:100BB00074643E0D0A3C74643E3C696D6720737238
:100BC000633D2262616C6B652E67696622207769DE
:100BD0006474683D222025564140303222686569A0
:100BE0006768743D223130223E3C2F74643E0D0A0A
:100BF0003C74643E3C7020616C69676E3D226365A5
:100C00006E746572223E2556414030323C2F703E54
:100C10003C2F74643E0D0A3C2F74723E0D0A3C74E6
:100C2000723E0D0A3C74643E3C7020616C69676ED4
:100C30003D2263656E746572223E41442D4B616EA8
:100C4000616C333C2F703E202020203C2F74643E8A
:100C50000D0A3C74643E3C696D67207372633D22EB
:100C600062616C6B652E67696622207769647468BF
:100C70003D222025564140303222686569676874FC
:100C80003D223130223E3C2F74643E0D0A3C746498
:100C90003E3C7020616C69676E3D2263656E7465D1
:100CA00072223E2556414030323C2F703E3C2F741C
:100CB000643E0D0A3C2F74723E0D0A3C74723E3C39
:100CC00074643E3C7020616C69676E3D2263656EA2
:100CD000746572223E312D576972652057657274B2
:100CE000313C2F703E3C2F74643E3C74643E3C6942
:100CF0006D67207372633D2262616C6B652E67695C
:100D000066222077696474683D22254F5740303051
:100D1000226865696768743D223130223E3C2F7439
:100D2000643E3C74643E3C7020616C69676E3D2299
:100D300063656E746572223E254F574032303C2FFA
:100D4000703E3C2F74643E3C2F74723E0D0A3C741E
:100D5000723E3C74643E3C7020616C69676E3D225B
:100D600063656E746572223E312D57697265205736
:100D7000657274323C2F703E3C2F74643E3C746448
:100D80003E3C696D67207372633D2262616C6B65E6
:100D90002E676966222077696474683D22254F5763
:100DA000403031226865696768743D223130223EE7
:100DB0003C2F74643E3C74643E3C7020616C6967F7
:100DC0006E3D2263656E746572223E254F57403238
:100DD000313C2F703E3C2F74643E3C2F74723E0DAC
:100DE0000A3C2F7461626C653E0D0A3C42523E3CE7
:100DF00042523E203C7020616C69676E3D226C65FA
:100E00006674223E203C68323E3C2F68323E3C42B3
:100E1000523E0D0A3C703E3C6120687265663D2280
:100E20005374617475732E68746D223E53746174CB
:100E300075733C2F613E3C2F703E3C42523E0D0A82
:100E40003C42523E3C42523E203C7020616C6967FD
:100E50006E3D226C656674223E203C68323E3C2F1B
:100E600068323E3C42523E0D0A3C703E3C61206876
:100E70007265663D22687474703A2F2F7777772EEB
:100E8000756C7269636872616469672E6465223E7D
:100E90007777772E756C7269636872616469672E03
:100EA00064653C2F613E3C2F703E3C42523E0D0A31
:100EB0003C7020616C69676E3D226C656674223EF1
:100EC000556C726963682052616469672032303002
:100ED00038203C42523E3C42523E3C2F703E0D0A6E
:100EE0003C2F626F64793E3C2F68746D6C3E0D0A36
:100EF0000D0A25454E44005374617475732E687451
:100F00006D003C626C6F636B71756F74653E0D0AAA
:100F10003C626C6F636B71756F74653E0D0A3C6269
:100F20006C6F636B71756F74653E0D0A3C626F6424
:100F3000793E3C64697620616C69676E3D22636529
:100F40006E746572223E0D0A3C68313E53746174C2
:100F5000757320506167653C2F68313E0D0A3C2F48
:100F60006469763E3C42523E0D0A3C6469763E43DB
:100F70006F6D70696C6965727420616D204D617967
:100F8000203233203230303820756D2032313A35FE
:100F9000333A33363C76723E20436F6D70696C692C
:100FA000657274206D6974204743432056657273DF
:100FB000696F6E20342E322E32202857696E4156CA
:100FC00052203230303731323231293C2F64697649
:100FD0003E0D0A3C6469763E4265737563686572CE
:100FE0002073656974205374617274206465732082
:100FF0005765627365727665727320282556414085
:101000003039293C2F6469763E0D0A3C42523E3C01
:1010100042523E203C7020616C69676E3D226C65D7
:101020006674223E203C68323E3C2F68323E3C4291
:10103000523E0D0A3C703E3C6120687265663D225E
:10104000696E6465782E68746D223E4861757074AF
:1010500073656974653C2F613E3C2F703E3C425283
:101060003E0D0A3C42523E3C42523E3C7020616C76
:1010700069676E3D226C656674223E203C68323E94
:101080003C2F68323E3C42523E0D0A3C703E3C6171
:1010900020687265663D22687474703A2F2F7777E6
:1010A000772E756C7269636872616469672E646516
:1010B000223E7777772E756C726963687261646916
:1010C000672E64653C62723E0D0A3C2F613E3C62B5
:1010D000723E556C726963682052616469672032A0
:1010E0003030373C2F703E3C42523E3C2F736D6196
:1010F0006C6C3E0D0A3C2F626F64793E3C2F687425
:101100006D6C3E0D0A25454E44006C65646F6E2E75
:101110006769660047494638396111001100A53FEB
:10112000004D4D4D50504F545454416A445C5C5CEA
:101130003F73426262626A6B6B16A71E6F6F6F5FCE
:101140007A6019AD211CB2255694597B7B7B1ABD60
:101150002323BA2C1BC3258383831CCA267C8B7D47
:101160001CD3268B8B8B2DCC361CD8261DDF2890CC
:1011700091911DE1281EE22921E22C35DB3F2EE46E
:10118000389C9D9D3EE64740E649A5A5A547E7500A
:1011900050E458A9A9A94EE856AEAEADAFB0AFB075
:1011A000B0B064E66BB4B4B5B8B8B96CEC7377EDB5
:1011B0007DBFC0BFC0C0C0C2C2C2A6DAA9C9C8C96B
:1011C00093F198CCCCCCD1D1D1A5F3A9D5D5D5DE8E
:1011D000DEDEE0E0E0C5F7C8E7E7E7EFEFEFFFFFAF
:1011E000FF21F904010A003F002C0000000011005B
:1011F00011000006EDC09F50D8CBC954A9966DC808
:10120000FCF974371A8C65026940B4A66FA72B2DC0
:1012100010E0C545E2680D7DBB1923E2097D3295DA
:10122000C7A2918009753AC6C5F5729D3E1B15137C
:101230000B09123F3D371E112B3538352E221D1B51
:10124000180F10062C39340B1E2F383C382F241D54
:101250001B1B150B0616323008212E3538352E2271
:101260001CA4180804072A2C081F272E2F2E271F1E
:10127000A41B19080402292608191F2224221FC4AE
:101280001B190802062D200B181B1DDED31B150B86
:101290000212361A100FE0D3111000283F20140B51
:1012A00013EA1B130B030942340E0D0B0F18326C9B
:1012B000C880E1C1820200580C6991400184056038
:1012C000102C601000C008263F624830608000018A
:1012D00001020024608171080B0B07041890800242
:1012E0006310003B25454E446C65646F66662E674F
:1012F00069660047494638396111001100A53F0071
:101300004D4D4D5050505252525454545756575AB6
:101310005A595D5D5D5E5D5D5E5E5E6060606262ED
:10132000626363636464646565656969696E6E6E52
:101330007070707777777878787A7A7A7B7B7B7E33
:101340007E7E7F7F7F80808081818183838387878A
:10135000878989898B8B8B8E8E8E909191919192BA
:101360009393939797979A9A9A9C9C9CA5A5A5A9C5
:10137000A9A9ABABABACACACAEAEADAFAFAFAFB0A1
:10138000AFB0B0B0B2B2B2B4B4B4B4B4B5B5B5B530
:10139000B8B8B9BFC0BFBFC0C0C0C0C0C2C2C2C859
:1013A000C8C8C9C9C9CCCCCCD1D1D1D5D5D5DDDD42
:1013B000DDDEDFDEE0E0E0E7E7E7EFEFEFFFFFFF96
:1013C00021F904010A003F002C0000000011001167
:1013D000000006ECC09F50D8CBD1562AD86DC8FC6F
:1013E000F976B85AEC551A7946B5A68FA713351079
:1013F00006C442A3A1C0863EDECC31E97C36950905
:10140000A41181C8843B9DA373629D461B161612CE
:101410000C0F183F3D381F1327343734272018820C
:1014200010120A2E39360D1D2C373B372C2119820C
:10143000130A091C3431081F263437342720178239
:101440001508070E2B2F061B23272C27231B828210
:10145000060503292508151B2021201BC316150886
:10146000040C30230B1316181918D116130A02197D
:10147000371E1710DFD1101500283F231A0D12E96F
:1014800016120A010F423514110C1013152C549822
:1014900000414101002D86C080F040820204061008
:1014A000287810000089263330284860A000010108
:1014B000001EB46832C405070703186440D124082D
:1014C000003B25454E4462616C6B652E6769660082
:1014D00047494638396102000A00A20000A2A5ED82
:1014E000848FE5667CDD4960D62144DAFE01020086
:1014F000000000000021F90405140005002C000084
:10150000000002000A0000030A48342312014800C8
:101510001D5309003B25454E4472616B65742E676F
:101520006966004749463839615A005C00F7000097
:101530006C6E64BCBA4CB7B5AC6161AF908CA8DA84
:10154000DCAF6F66D8DCDE71DEDEE28F8DD7DCDEED
:1015500088B6B6E07979D8F0F0B0EFF0878378A953
:10156000F6F4E18C8E549F9FDAA1A2A9C9C9E07F4D
:1015700078F0EFF0C7E9F2A2BAB782C9CAB07878BA
:10158000C1E9F1627569F1929279EBF1FBC4C9810D
:10159000918EEFF0F2708C8CC0DEDEFAE3E0C8B71B
:1015A000B4FA8A84D7C8C9FBF8FD88A4A278716808
:1015B000BFA3A0F09F9FC0776E97FAFDB0DFDF9FBB
:1015C0008883C0BAB8C78784F0FAFDC8F9FD71787E
:1015D00070D8CEC9C57F78E48183A9D7E7FCF8FD30
:1015E000A0B4B4979C98D8FCFDE0FCFEFB9897C192
:1015F0009793917770C08C8088DEE8AFE6EA87EE3B
:10160000EF947270EEF0F0BC7E78CC8178FCB0ACD8
:10161000F2F2F3D4BFC89F9998F0C0C0FBD2D4FBBC
:10162000A09AA8BFBFE0857BD9D1D3E1D3D3B0B115
:10163000ACA6DEE8C9A8ACC081809A7E79B4F7F385
:101640009EC7C771C1C0B1EAF07C7264E4EAE9DF09
:10165000A090D6F4F6B0ACACD8F8FD94C4C2C9D50D
:10166000DB94F4F688F2F0ECF5F6C7857CC1F6FE63
:101670005BF7F4FBF9FD7C7870E4A19C93827EF12A
:10168000878BCCEDE0FCA6A48EBCC09A7871CC7898
:1016900070FC8D8CE4A7A34F928FFCBEBAFAFAFDC2
:1016A000BCEAE8FBD4D599726CA7928EB4DCDEBCA0
:1016B000B9B7EC897F61B7B6699A9461A1A06C84CF
:1016C0007E7CE1E767807888C4C27CA19B79D4D412
:1016D00080CFD6C9EBE8A0C0C064D4CA97ACAE78BE
:1016E000A9A3E49A9EB4C5C7EC6967CC888898CC56
:1016F000CE647E7799949A44AAAA92848769E8E98D
:10170000BCDFE8949497B4D7D5ECD4D4BCE6E8D445
:10171000B9B5BCE0E17CE1E0ECB4B58C999284C64B
:10172000C78CDEE0D4A5A2FCA4A0CCB2B4D4CECCAD
:10173000D4746CB47C66B4C8BAE0AEA4AACCCEBCF7
:10174000F7F5647469FCD5CDFBB4B8A492939C9072
:10175000926CD0CCA48B888BACAA688583E48D85F1
:10176000CCFBFDD48483B49A98CCA098FCA9ABCCD4
:10177000C2C0D49A9B9CC4C2A4BCB674888878E9C1
:10178000E294968ECC7668CC7C7274A2A5848A830F
:10179000FC9A99E4FCFEECEEE7B27D70F1AEABFC96
:1017A000DDD5FBBCC2ECE0D2E0B4ADB4EDE9C8C11C
:1017B000C0BCB4AEE4F8FE64D0D6A4E9EA749C9A46
:1017C00084988999BFBAB19692A6E4E2B0736AD9B7
:1017D000867EA9A2A6D9CCCEE49A92C4AEA6F2A9DE
:1017E000A6BCD4CECCC4C28CDCD6D4B4B65CECE8F7
:1017F000ECA4A29C88806CC2C174AFAA84C8CF74C8
:10180000ACAE9CDCCAEC817EE4F4F694F0F6BC7ECF
:101810007ECC807EFC847EB4F3F67C716AE4F6F6BE
:10182000ECA8A6B4D4CE8CADA6CCC0BAD47572B494
:1018300021F9040100003E002C000000005A005C69
:10184000000708FF007D081C48B0A0C18306990D61
:101850005C23B08743850419AE99280B818F893E9C
:1018600098415008D1C7198420438A1C499059C710
:101870008110F45D6468704F9E291705326369908A
:1018800026C99B3849DA5CC8334F02311E640ADC32
:101890003934A7D1A3327B9CDC13D487CA811013BF
:1018A000D01121F0E91E5904F51145CA35A4C35DD4
:1018B000457DF498B1AB07548852BE99A8EA23C776
:1018C00032255DE3E264C8AC4759851E58A2315BFE
:1018D000D28707791540105C40E719C69872131F2C
:1018E000FC0AF6E2293B3C508993B8C624B3131591
:1018F000EA34699A83478D122CF7C0548CF464C47F
:10190000B1652FAE086267459A2C4EF6C464A66F87
:1019100081110E76827A50C2E086E18B14406D25EB
:101920003DD2724166F41A80DDAD01CEC072FF4A2D
:101930000CECB1265ABE0A3C0682B8C1E0772B2CCB
:101940004F881BFFAD5B3763C9192ECC3E31B142C6
:10195000B6873D0B74A5B129AE420D316B3C3C6995
:10196000D3E6D49E35B28880C308C3155460570EA1
:101970002548D0582EA0E1431C48E411871227289F
:10198000214510CB1CE683280968308240B2DC2058
:10199000C3877BF0008E353C8957DC2E6529B5E086
:1019A0000C17D0C3CC1E69C8B20718300491862E1C
:1019B000E3D0D4C317E1F811D41A4E7CE3CB19D588
:1019C000C12002348845A4E2627691E5504C63E977
:1019D00090DE1EABE8C21028C4B841411C03E933B5
:1019E000033D36C430543C608009011638007293C0
:1019F00086C431B3CB9833B828931EF3E8408F07E1
:101A00003FA4F1833ABBA081060419CDC44C183A17
:101A100058F189427B8892CA1A165041C9024D0D6D
:101A2000E541A561A9C89043338C999A4C33E8806D
:101A3000820E3DC4C1431AC04030831E2D2AA4CF5C
:101A40001863A4FFB750650D0C218AA598FA55D4E8
:101A5000813941245146ABBAA0C70C103183DE183E
:101A600066CCE0C31EF5F022CD11174849E82E28B8
:101A7000D0A083B2027D21E7108DC926D01339E4AE
:101A800040C12FBDF4C2030FBD5C615193999664B0
:101A9000D2AC16B8B806394A045565AC4B141A2AAC
:101AA0000D28C83A8209E014E042034A39A4070D20
:101AB000D62ACB123DBB58905F1C259C22317770F3
:101AC000F4D15B0D0CC8A30434BCAE28680F1E987B
:101AD000C0801D3988A5033E63EC62590F7AB0417E
:101AE00043B217359106299D82A5EA186CB0A1036F
:101AF000A1138922001731FCF28F09264C22C3372B
:101B00000C9450C209CF54F08D0C4E5CAA580F0DA6
:101B10005CEB81060C7CD3C408CC1C8C8FAC0251CE
:101B20007B0D1B2E2C6B822E9490D080B210B8D0DF
:101B300005D910AC7142097648B10AD12A30108417
:101B4000040BE4FFD0D4A5CBA85542AE079996620A
:101B500043C6C62A0E126F9CC2C00AA2F4A0030D8F
:101B6000D152596DBF0A2DD307283D84A18749A1C1
:101B700036E3890826B4E1B40C7420D1440923EC7F
:101B800051B24039C0948706CB3CD1B152A60D1753
:101B90006A18BF30D01D080C244006A26390AA50DA
:101BA0000FF3B08142315FDC8805362E44BB0B0455
:101BB000E8B8E2471AC754E0CC1B5238E137EC3E94
:101BC0004800480E4FA4E284133780F0A179ECCB93
:101BD000D5353DCBBC914B1332DC50030CD534834F
:101BE0006C1875CE30060A5D400437F6D18D45106D
:101BF000010544A859144C50030EA44F162CA914E7
:101C00000B725002068840044E3881330CE0848603
:101C1000E00E2A24E108423CE08B249CC00E46A83A
:101C2000431D9C218569940105A35A153EF0318F0F
:101C30000FECE0159A70010ACCB00917B8C00ABAC7
:101C4000F00207FF7C211B86E8431F66094A0264F5
:101C5000E08B4904C109D050C61BF24014111AEEA2
:101C60002C09220FFB1842C25878C00E78C88C117C
:101C70006A008E0FC090063EC407D91AD00017E83C
:101C8000A00B3A48473A7C48050D702009CF48CA56
:101C9000BBF471821C38C1084678437B4E61249A9C
:101CA00020D124FAD848FB0AE710342CA14553AAC6
:101CB0008C0F40F0060F8CE014F270021DE8F08BE0
:101CC0004DD04079FCD2C1180E88337E61821D1739
:101CD000B8800BB800831ADC200F4E2148504EA16B
:101CE0008CA6C923014F380512A4B0873D40A060DF
:101CF0009DFAE0BB425297B158A0667799513D6476
:101D000090836738E10927A807039E300314E42C69
:101D1000673BC4070CABA50062D8005A179885062C
:101D2000267183A80D44141EF8452F39500723C08F
:101D3000E109B2C08306FE8380638E490F7AC0DD5D
:101D40001511C2FF297A84C105C1F481246AF00605
:101D5000273C436280718612D0300684CD430B0845
:101D6000DBA116D6F68817ECE20FC9B80015606043
:101D700084249CE2757CF2012A24F0846FDC400507
:101D8000E1F041050C009A4E4C010D7AB88095EABD
:101D9000B44F84D08541FF0CC31198010D5DD02153
:101DA0006B1500242041A08F22204C0B3A80C535B2
:101DB00068100A0C4060097C2880373A90810B58E3
:101DC000A11E4988453EA221100FF0C203271880AA
:101DD0000C2A90490F38A102F618C11780F0891912
:101DE000144158F9ACE915E95297198421A716A8AE
:101DF00006277E00877A8060121DB5C70022514DEC
:101E00007EB141A9D918063240A1CA5700A103FFEB
:101E1000B4422E62118B6FFC4257E1585A1B9CD181
:101E2000CE117800063738C508124108CF5DA02CC6
:101E30001DF30AA766508CB736205FAAE0C50A7268
:101E4000D90606FF2C0307106828C23E890205B890
:101E5000410E79AAC2213431042B4C401EECAC0057
:101E60000C9A72821AE0C11E49E0802C7290877A27
:101E7000482007EA08C40588C02ABEA4762454D3A3
:101E800021BF66600A4E68A08F1319411052310FAE
:101E900084B94C793CDC040A2E0000282CE1132C78
:101EA00018400DEC710A0ED001126D194103EB9030
:101EB0008F53E8E71B1A308505B4318B19348050F5
:101EC000486457086B22161D62530F8BE0453D1284
:101ED00000030D98E0061A60C419D9900D05306210
:101EE0000C2140812232200A04104003F2E0C11389
:101EF000F670472910C80725AC03123C9003112047
:101F000001104B284532D0400F6C39A95735A98BA9
:101F10001E44F93F2DB0E01FE7BA813D8CA0014F70
:101F2000BCB1A10AB8051044E5802D14000109C810
:101F30001A0FFC068D3A70A00DCBC8CB08DEF08DD1
:101F40001FF8E0FF0470C0823E10108C3FCCC92CFB
:101F5000BFC249311364A705A1210C0D1DC3346014
:101F6000008D11E4E1191C60802B8E8033366C42A9
:101F70001B6E38990EF8408D6EBCA10E99F44B7F04
:101F80002B5081492C43202774C21A4E918639D098
:101F9000830C31F8E5948E639961F2A4AE7AF02156
:101FA0005C83C9978CF4408745B00001E860000667
:101FB000C8C00B37B00409C6B0011816A108CA235F
:101FC000822658A0012F5440064D0141054EF10CC8
:101FD0006518E1097939C11EE220054BC8940B71DF
:101FE00060096382256B80B6C8206389B50ED66D03
:101FF000251F0EEB2155424118D001C65334C1179D
:10200000CAD0001926B7CD6A8D610813F8C70D8CA8
:1020100070837AC4049379F0C029BC00870F11A99A
:102020000248E8861B4950A839A14754302CDE4CA1
:10203000550692BAA247A6FFDBA6B004E5C644D572
:10204000A30227FF78422E83E0075B880A61D7400E
:102050004103409185493841060C90004656C080A6
:102060009239C10E038083044E504229B4020DE61A
:10207000466AC8ADC9AF7ED19AD58BD9C592FFE764
:10208000B25115001455A04218A2450124841678B7
:102090006F5041303491BC4F86210322C80533E98B
:1020A000D07096F080013E70020372210F0D4893AC
:1020B00003F908823AF4F0562DB82CA219B792CA47
:1020C0003A7298621A2E4A3EFCDF2640A18B6F18A6
:1020D00000061318C20F832182139CC009A77883BE
:1020E0000940D1003398A10136C0813C7A7E022498
:1020F0002460220A69420DF2F086DB1881013078F3
:10210000C06B80800614149BE963D31304549D9024
:10211000E9107E2837ED143E3310440766E1161DA2
:10212000903C1370B08CF3D9A30EDF78C092B54009
:102130000254E4CD0E3EC8836D87F46623B4C10813
:10214000CA504BFF34CEF0052E246214465543D3BB
:1021500061A8837C1EB9F714B609441620056704EC
:10216000211243D8042632E1823088E00D35600424
:10217000B1500715D00247A005CD0005AEF44E6062
:10218000953ECB22104E9004AFA7019CC0046E84F4
:102190002C3B84026AA07E6C300F00056FB5761C64
:1021A0008B444C5D550206F00DD6F00963D0050551
:1021B000900CC5C30274905C3710045070042E203C
:1021C000000FE034BC5032CF504E2C8119CE20038A
:1021D0001A100956E002A3244A0E400465C706639C
:1021E000D05D2661172178134F982065911A392008
:1021F00005747002CCE0467AB00528300F54900682
:102200001CC001414000C1E0096130042C10806D08
:10221000700502110DF2101E6F960B8EA701FE6065
:102220000143300416F00558070F5530072FB06EE4
:1022300071C567C8944507B12951126BB2166BEF8F
:10224000A60F3FFFF00051B0062C430F17004317B5
:102250008009C6B00AAEC004477057F0500FCEC612
:1022600000921014271004E1B1070C940B30000405
:10227000BB30048E300BDB60092D000531C00D3BF7
:10228000800165E04364116BE4D66E35232FB361A2
:1022900017890743D884021AF70EF8C404B48003E0
:1022A00055F00AD4400F66604DD970017AA0050E32
:1022B000E0437F4000FBF50C0CB03EE2304F7B402A
:1022C0000E6D703F36A005324702F1D00FD2F04BB1
:1022D000431053EDD00830940DDB244AD6D46F82DE
:1022E0002825FAB032735272FF1372B0320FEFF03A
:1022F0005668A00A62300D50E006EE200821C006A4
:102300004B055F0E400F57006398D70403E101624D
:10231000C0340C300926300D618002D7D00829B0B6
:102320000DDB900811400818F00276150A34700D84
:10233000631351F3308FC5E36E75A24FC621131E90
:10234000A76E2EFF300A5C9001243002D0B007E85F
:1023500080005C700EEFB05BECE702549091E1906E
:10236000030C700A2BE103236007DC0103557004A2
:10237000F3A05421100A8E800D0AA0003B0004B780
:10238000500DD41006111572EBE643107006595427
:1023900030E4D167ECB25ABB7006E8000485200433
:1023A00042C00EB5707E0DA000D5E232D9E00068C3
:1023B000400937F0067EA30125E02D130102CEA0CF
:1023C0000B643004A2F25E28E000A23206D4B0070B
:1023D00022F000AEA009FFA3038C6025C35227BCE6
:1023E000225785D23EC6B2643A009007B04D1BA872
:1023F000063A600A41C0001D541D2B401388760C1C
:10240000ADD000F3C808C5A003D10843F300013ED6
:10241000F5005CB02AB4D66ABB7214EF32857382C1
:102420007128803263E0005A80622BA903A8603FC4
:102430009EE503D6600D2CC16D521009D4A0038611
:1024400010023AFFD00083F008805609A1E002CDC7
:10245000C00537E00CBC500D9AF04F52929C6FF2C1
:102460007E62217C53C7749F94624470572FB005DD
:1024700048450541E00C6B418A1270117100035808
:102480008009F255049770077C70048330086C94BF
:10249000026E200D68E20C1C000E5CC09C1BD7670E
:1024A000FB04273E122CB072462C09780170070DF0
:1024B000E008B540089A8006FBC01F70311080C04C
:1024C000102BC00B3BA0030CD95B0DA009D4400816
:1024D00088E0438F2004E0F000AC700C11870D2FD2
:1024E000D7749E39937CE66A06D210AB428F7F8701
:1024F00030AB39365FD80882300354C00E29000152
:1025000014900653664E7EF103790009BA400B46DB
:102510001502C56606E7100819D0000E608C4570DC
:102520000EA42004DB0004F0C007A2C45BD79471A2
:10253000C2F28B0F512C109148108074F4684DD862
:1025400054A5CAFF13995AC00F2F6001194005679F
:10255000300E41E00B20E0260371025260027EB093
:10256000049713029FC4081850008CC090A1D40097
:10257000CDA009C5109DA262064B578CC5430F45DF
:10258000B61753723C63D129E5B6AB8AB86EB1F287
:1025900072A3D20E83D05A6860030F009B4A900A40
:1025A00004610D52A002E5582D9FE45E29664DD7C7
:1025B000A07E19D76FB10250FF5472ED0650454608
:1025C0006B2E524CF8F9992CC26751122CD06A0626
:1025D0000AA0085F3803B7700F69160D5130246BDD
:1025E000900548D00A33E0002E93628CBA5BBBF5AD
:1025F0007763A33C33451664C122065BB0E69A10AC
:102600004FFA7B95A12AB8E95E9F045FD470083029
:10261000F03D94E21769D00750F0078F3943A5C405
:10262000061BA04DD0BAA811BB4DB1029AC168AE2D
:102630001F849C76C1502ED3922B49036340020421
:10264000F00F39FFC010CAFA044D8004E390018FE7
:10265000A93C0E100AF2583CC852A5C49833FECAD1
:10266000842E901A2C411EFB14852171713BE45E6F
:10267000DBB4545DC005FFE0210201087B700A3520
:10268000F00F0250890EB905ED503C8C60016DB41D
:1026900092277A4D55BA54A1542720444C3525161B
:1026A00075B5A48D8A0248358FA2D0071A400E7ED8
:1026B000210BA7500174D00F9FA007DB64065AF0CE
:1026C00001815806899008091902D5EAB68ADAA864
:1026D00048FBB66E591A0CB2A4F3286BBC399E9E07
:1026E000200A0F1004BAF01F7B6007410003A660A8
:1026F0000547D0005A50045A60577A500A836092B6
:10270000C3700707B00192DBA89EE943C4382A7A58
:10271000C0335CC12916C6A432397563400FD3603B
:10272000090B800A22A001ABA00141A00238A00A37
:1027300056300A1D8009A5800B811008C26001B6C1
:1027400030079BFFC03F61A008FA1AADEE35537603
:10275000B164EC17060C73B922713CFBE8ABED37A2
:102760000384A264938346C4A7020970023F000653
:1027700041500352A00BB33004D8200758D00DD5D8
:10278000800E3640005920068E3906F3D000D4E082
:1027900008CDB0A41B38364BCB1173D2AB9BE9BE2E
:1027A00008611273B2BA9EF36E3121893A3436430E
:1027B00070080C600F93F04E15A20B3C0004BB791F
:1027C0000168F00A584009A27006E5800441500DE6
:1027D0004790873B2007B34005CD608E6A6BADEE16
:1027E000371D240A43BB908F245817BBF04890F440
:1027F0007BB7467544C00974900449307AB95002D9
:1028000071200D4BF0B03B74019E6009FD6001DE4C
:10281000700F3560021200038700045CE006A4B06C
:10282000036E554A1C182B8D216E1627252B0B2560
:10283000097B129BA20754370647700FD336656891
:10284000C5002DFF400AC53006864003EAF76F58E1
:10285000E00F5A500C5870313040069F80064740B8
:1028600005A3700E6DF49C8A6A8C608318059345ED
:1028700073FB84E56138C752752E500DB081076F28
:102880009004D0170462500D7C29AA6AC0066650D5
:102890000642600EF35004509005FFE0077370018C
:1028A000FDA8030A800B5AF0BA52AB3C275B38866E
:1028B00037B72004A515D697A3A20F50100E7B4062
:1028C000076F606D82F404AE20B44C47625B900CDD
:1028D0009A39067F300DD340022EC0061BB801C5C1
:1028E000B305F3300F058B1EC488C7B36293D40CB5
:1028F0005E868B304DD8037B00035310050C800798
:1029000078C000F51007E1800C5A20B208830F262A
:10291000265EEB8628D5B28156A20507E4BB4AB1F4
:102920000B1606430055385CC1112CF39801BD0607
:10293000D010046B100CBAF00CCFA0017DF0040491
:1029400050053AFF340F63000B4C5A76FCF23FB847
:10295000AB7E0055350B392A322175186725501B7F
:1029600017753BB0D4B1072500061E700B38E00484
:102970004AF00F22E00F42500045102B7E8730B006
:102980006A06FE6A25D08A02ACE2D1A23A2AB5963E
:10299000B9BE4B2C89F18481B26E1C87A084260AB3
:1029A0009680034F1004F58003E610A76EE443669B
:1029B000507579E29166E74639830F5A501668A040
:1029C000A321902CBEE2031E2D4AD7E2C146E1109E
:1029D0004B800633391471300ED3F005CCD60B235F
:1029E00040079B470265F056FCA343F8C02FBC0B81
:1029F000D033B0042EE0D54C3893539727D8C21269
:102A000052D77FAC62CD91FD15054328F00109FD39
:102A100000018BE061DA660074E00A0D60D3816A20
:102A20008455D729A584027B81061025B371B59CF6
:102A30009D9BC752FA745D31850F211067200E9D52
:102A4000C01423FFF003C740447150034850051DD4
:102A5000D9842CA20766A0463AF048EFBC546160C6
:102A6000302E132B4A81444BA63CA55C104784D4DE
:102A7000D3FC141731243C9037A2164D3FC0B1301F
:102A800034938006D24A71C268548538D32F8DC1E1
:102A9000D83A1443DE15A52AE2DF1E00087420058B
:102AA00027B00623600C3FF005466806C6C332FF18
:102AB000330F71E53F9F941EC2588F46662C46A87F
:102AC00005DD75384F42107B4001F780041DC4D4EA
:102AD000E1800EBBA003923988D5E474A06361B293
:102AE00062173A2AD61DC1206D04B7351E165293BF
:102AF000037E000E38D0E11ED0099D90119D778D88
:102B00008337163014062AD3E2017D1163012BA509
:102B10009C2074F2D671AB221E200B7E80050B0028
:102B2000271040D4F6DC03F958C5CC7DCAFE43DF3C
:102B300054B2D7114ED268102FF087143671184F47
:102B4000C00238FFC00253C0109D10034C026BFC42
:102B500003152C332A83072CA252CA30CE3F786645
:102B6000933DB07B471D1713C1457BF0043F4000E8
:102B7000E2D055CBC2311931279A3E1B52573CB592
:102B80005617BC59DBC1372C6ACE11B4F1E43ED0E4
:102B900009E56009BF603B98E2236301E6676DE2E7
:102BA000F9FDE3FAACC44506A28562DB5DF1117E56
:102BB000A10AC0002636E1DF436130C3A210744190
:102BC000D4F97D6BEDA7147A1C4C27D1CF5D51E869
:102BD000FF2D132AC11248B40BCBAEEDB6C6882721
:102BE000C1321FB820B91AE1BADE2487E12D625143
:102BF00038BB70049F226EC4198230AED6297B1771
:102C0000F70E12F25738AAB26A4941D94636D4684B
:102C1000A0323481DD078FD40A5210B91A8575A508
:102C200048F4CEF0153FD27E0CB586C86ACEFEF1D0
:102C30007171F1186F12DF65F289E1F1EE52F22C39
:102C4000AF222E07DF17E4AE180101003B25454EE9
:102C5000442E023802F70E020F19152315C614D0A0
:102C6000140A111411E812F3120000000048545421
:102C7000502F312E302032303020446F63756D6517
:102C80006E7420666F6C6C6F77730D0A5365727685
:102C900065723A204156525F536D616C6C5F5765A7
:102CA000627365727665720D0A436F6E74656E7439
:102CB0002D547970653A20746578742F68746D6C42
:102CC0000D0A0D0A00485454502F312E3020323056
:102CD0003020446F63756D656E7420666F6C6C6F29
:102CE00077730D0A5365727665723A204156525FCA
:102CF000536D616C6C5F5765627365727665720DBA
:102D00000A436F6E74656E742D547970653A20694C
:102D10006D6167652F6A70670D0A0D0A004854548B
:102D2000502F312E302034303120556E617574684B
:102D30006F72697A65640D0A5365727665723A201E
:102D40004156525F536D616C6C5F5765627365727B
:102D50007665720D0A5757572D41757468656E7404
:102D600069636174653A20426173696320726561C9
:102D70006C6D3D224E65656450617373776F72644C
:102D8000220D0A436F6E74656E742D547970653A26
:102D900020746578742F68746D6C0D0A0D0A0048F4
:102DA0005454502F312E3120323030204F4B0D0AE9
:102DB0005365727665723A204156525F536D616C6D
:102DC0006C5F5765627365727665720D0A436F6E4C
:102DD00074656E742D446973706F736974696F6E76
:102DE0003A206174746163686D656E743B66696CEA
:102DF000656E616D653D446174616C6F672E6373D0
:102E0000760D0A436F6E6E656374696F6E3A206368
:102E10006C6F73650D0A436F6E74656E742D547913
:102E200070653A2066696C650D0A0D0A0034303110
:102E300020556E617574686F72697A656425454EB8
:102E40004400454E44006C65646F6E2E67696600F1
:102E50006C65646F66662E6769660050494E0000B7
:102E600000636865636B656400504F5254004F57B0
:102E700040005641400025322E32642E25322E323B
:102E8000642E25346400444154450025322E3264BA
:102E90003A25322E32643A25322E32640054494D9E
:102EA00045002E68746D002E676966002E6A706793
:102EB000006373760068746D00494E4445582E488F
:102EC000544D00504F535400537461727420546534
:102ED0006C6E6574205365727665723A0D0A00D97E
:102EE000000AFA00000000000104000000000000D9
:102EF00000000000000000000000000000000000D2
:102F000000000000000000C7D6AC720800000025D9
:102F1000454E44474554202F676C6F62616C77655E
:102F200061746865722E61736D782F47657457659B
:102F300061746865723F436974794E616D653D5097
:102F400061646572626F726E26436F756E7472791A
:102F50004E616D653D4765726D616E7920485454D0
:102F6000502F312E310D0A486F73743A20777777DE
:102F70002E77656273657276696365782E6E657407
:102F80000D0A4B6565702D416C6976653A203330CA
:102F9000300D0A436F6E6E656374696F6E3A204B35
:102FA0006565702D416C6976650D0A0D0A000D0A84
:102FB0000D0A0D0A446174656E20416E666F72647D
:102FC00065726E0D0A005443502045696E7472613B
:102FD0006720676566756E64656E20284854545096
:102FE0005F434C49454E5429210D0A00544350205B
:102FF00045696E74726167206E69636874206765E5
:1030000066756E64656E2028485454505F434C4981
:10301000454E5429210D0A004152502052657175C8
:103020006573740A0D0025630051554954004558D5
:1030300049540052455345540041525000544350A6
:10304000004950004E455400524F55544552004ED1
:103050005450004D414300564552005356005449C8
:103060004D45004E5450520050494E47004449527D
:10307000004449534B0043415400505744004357C8
:103080004400434400434455500055534552004EBC
:103090004F4F5000545950450050415356004C4931
:1030A000535400524554520053544F5200524D4411
:1030B000004D4B440044454C45005359535400487F
:1030C000454C50003F00414443004F57004F57527A
:1030D000454144002930173E2E30173E33301A3E0A
:1030E000393032433D3068424130BC4A4430F049C7
:1030F00048308A494F30564A53303E3F5730093F97
:103100005B30EB485E307E3E6330634868308B480E
:103110006D30F4467130D23F7630D1467A30573E2A
:103120007E302845823028458530BC448A30414471
:103130008F30414494308F449930203E9E30774404
:10314000A3305D46A830A846B5308446B13041462C
:10315000AD308446BA301145BF309140C430914003
:10316000C6302442CA30BA40CD30E34100000000EE
:10317000524553455420202D207265736574207488
:10318000686520415652202D20436F6E74726F6C1B
:103190006C65720D0A415250202020202D206C6950
:1031A00073742074686520415250207461626C65AC
:1031B0000D0A544350202020202D206C6973742068
:1031C00074686520746370207461626C650D0A49CF
:1031D0005020202020202D206C6973742F6368619B
:1031E0006E67652069700D0A4E4554202020202D01
:1031F000206C6973742F6368616E6765206E6574F7
:103200006D61736B0D0A524F55544552202D206C41
:103210006973742F6368616E676520726F7574657A
:10322000722069700D0A4E5450202020202D206CF1
:103230006973742F6368616E6765204E54500D0A80
:103240004E5450522020202D204E5450205265665E
:10325000726573680D0A4D4143202020202D206C9B
:10326000697374204D41432D616464726573730DFD
:103270000A564552202020202D206C697374206549
:103280006E632076657273696F6E206E756D626510
:10329000720D0A535620202020202D2073657420A3
:1032A0007661726961626C650D0A50494E47202053
:1032B000202D2073656E642050696E670D0A646965
:1032C000736B2020202D2053442D4B617274656E4A
:1032D000696E666F726D6174696F6E0D0A646972F2
:1032E000202020202D204469726563746F7279203C
:1032F0006465722053442D4B617274650D0A6361DD
:1033000074202020202D20446174656920616E7A2C
:10331000656967656E0D0A637764202020202D2083
:103320006368616E676520776F726B696E67206492
:1033300069726563746F72790D0A636420202020BE
:10334000202D20776965206377640D0A4F5709099E
:103350002D20312D776972652053656E736F72650C
:103360006E2073756368656E0D0A4F575245414470
:10337000092D20766F7262656C6567746520312D4A
:10338000776972652053656E736F72656E20617523
:10339000736C6573656E0D0A54494D452020202DD0
:1033A000206765742074696D650D0A48454C50208E
:1033B00020202D207072696E742048656C707465D1
:1033C00078740D0A3F2020202020202D2070726963
:1033D0006E742048656C70746578740D0A000D0A6F
:1033E000666F726D61743A20202569000D0A77724C
:1033F0002E70722E3A202025692F2569000D0A6350
:103400006F70793A202020202569000D0A73697AAF
:10341000653A20202020256C000D0A646174653A0D
:103420002020202025692F2569000D0A7365726907
:10343000616C3A2020256C000D0A7265763A2020D6
:103440002020202569000D0A70726F643A20202028
:10345000202573000D0A6F656D3A2020202020255D
:1034600073000D0A6D616E75663A2030782578001C
:103470000D0A4469736B206B616E6E206E69636820
:10348000742067656C6573656E2077657264656E20
:103490002E00256300202A2A2A204D657373756E3D
:1034A00067206665686C67657363686C6167656EE5
:1034B0002E20284B75727A7363686C7573733F297D
:1034C000202A2A2A0020435243204572726F72201C
:1034D000286C6F737420636F6E6E656374696F6EB2
:1034E0003F29002025692025692E253469204320A5
:1034F000256900205370616E6E756E677376657214
:10350000736F7267756E672E200065787465726ED2
:1035100065720070617261736974616572657200D1
:10352000206D6974200044533138423230004453D6
:1035300031385332302F445331383230000D0A23A2
:103540002569206973742065696E20000A0D25695C
:1035500020312D576972652053656E736F72656EE9
:1035600020676566756E64656E2E0D0A000D0A4251
:103570007573204572726F72000D0A4E6F2053658D
:103580006E736F7220666F756E64000D0A5363610F
:103590006E6E696E672042757320666F72204453A9
:1035A0003138583230000D0A000D0A25693A2025BD
:1035B00069000D0A466978656420542D53656E7361
:1035C0006F722057657274653A000D0A000D0A414A
:1035D00044432D4B616E616C28256929203D2025CF
:1035E000690032323720456E746572696E6720500B
:1035F000617373697665204D6F6465202825692C99
:1036000025692C25692C25692C382C3532290D0A81
:1036100000353530205265717565737465642061BD
:103620006374696F6E206E6F742074616B656E2EAB
:103630000D0A00353032206E6F7420696D706C6534
:103640006D656E7465642E0D0A00323530206F6B27
:103650002E0D0A0032303020436F6D6D616E642094
:103660006F6B2E0D0A00313530204F70656E696E1C
:1036700067204153434949206D6F6465206461743C
:103680006120636F6E6E656374696F6E2E0D0A0044
:10369000313530204F70656E696E672042494E416A
:1036A0005259206D6F6465206461746120636F6E90
:1036B0006E656374696F6E2E0D0A003230302055CE
:1036C00073696E67204153434949206D6F646520DB
:1036D000746F207472616E736665722064617461C8
:1036E0002E0D0A00323030205573696E6720424932
:1036F0004E415259206D6F646520746F2074726161
:103700006E7366657220646174612E0D0A00323535
:1037100030204469726563746F7279206368616EEA
:1037200067656420746F2025730D0A002F00323501
:1037300030204469726563746F7279206368616ECA
:1037400067656420746F2025730D0A002F002F0019
:103750002F00323537202225732220697320796F9C
:1037600075722063757272656E74206C6F6361741C
:10377000696F6E0D0A0025730025396C200020202A
:1037800020203C4449523E20000D0A2532692E2556
:1037900032692E2569202532693A253269200025B3
:1037A000692D25692D25692025693A25693A2569FC
:1037B000202538732025730D0A00256C64003C44D5
:1037C00049523E000A0D53442D4B617274653A5CB8
:1037D0003E0032313520444F530D0A000A0D544942
:1037E0004D453A202532693A2532693A2532690D2C
:1037F0000A00323530206F6B2E2054696D653A20F7
:103800002532693A2532693A2532690D0A00496E36
:1038100068616C7420646572205661726961626CC3
:10382000655B2532695D203D202532690D0A00491E
:103830006E68616C742064657220566172696162A1
:103840006C655B2532695D203D202532690D0A00DB
:10385000202054696D653A2534690D0A00202050F6
:103860004F52543A253469002E253369002E2533F2
:1038700069002E25336900202049503A253369001C
:1038800025326900202054696D653A2534690D0A96
:10389000002E253369002E253369002E253369005B
:1038A000202049503A253369002E253278002E25F4
:1038B0003278002E253278002E253278002E2532DF
:1038C000780025326920204D41433A253278004561
:1038D0004E4332384A36302D56657273696F6E3AF0
:1038E000202531780D0A00323530206F6B2E2045AF
:1038F0004E4332384A36302D56657273696F6E3AD0
:10390000202531780D0A004D79204D41433A20257C
:1039100032783A2532783A2532783A2532783A2583
:1039200032783A2532780D0A00323530206F6B2E0E
:10393000204D79204D41433A202532783A2532787E
:103940003A2532783A2532783A2532783A25327853
:103950000D0A00526F757465722049503A20253166
:10396000692E2531692E2531692E2531690D0A0010
:10397000323530206F6B2E20526F7574657220497E
:10398000503A2025692E25692E25692E25690D0AB4
:10399000004E45544D41534B3A202531692E253177
:1039A000692E2531692E2531690D0A004E45544D89
:1039B00041534B3A2025692E25692E25692E25690C
:1039C0000D0A004E54505F5365727665723A202599
:1039D00031692E2531692E2531692E2531690D0A6F
:1039E000004E54505F5365727665723A2025692EF9
:1039F00025692E25692E25690D0A004D792049502B
:103A00003A202531692E2531692E2531692E25313F
:103A1000690D0A004D792049503A2025692E256903
:103A20002E25692E25690D0A000D0A00323230203C
:103A3000536572766572206265726569740D0A005D
:103A4000323236205472616E7366657220636F6D18
:103A5000706C6574652E20436C6F73696E672064AB
:103A600061746120636F6E6E656374696F6E0D0AB9
:103A7000006279652C20627965202E2E2E0D0A00B9
:103A8000353032206E6F7420696D706C656D656EB7
:103A90007465642E0D0A0028D70032010000BB288F
:103AA000C91F32010000E00000000000000000001B
:103AB0000000000000000000000000000000000006
:103AC00000000000000000000000000000000000F6
:103AD0000000000000000000000000000000000DD9
:103AE0000A002534693B002534693B2534693B25B0
:103AF00034693B2534693B002532693B2532693AFC
:103B00002532693A2532693B20533B2563256325DD
:103B1000633B2532693B25693B25693B25693B00B1
:103B20004C6F6720676573746172746574202D2D06
:103B30002D2D2D2D2D2D0D0A006C6725322E32696D
:103B400025322E326925322E32692E637376006E4D
:103B500065753B2563256325633B2532693B0D0A6B
:103B6000002532693B2532693A2532693A253269A6
:103B70003B616C743B2563256325633B2532693BC0
:103B80000001030406090B0C0E20435243204F2E64
:103B90004B2E200020435243204641494C20002810
:103BA000203F202900283138422900283138532964
:103BB00000257820000011241FBECFEFD0E1DEBF2A
:103BC000CDBF11E0A0E0B1E0EEE9F0EF02C005905A
:103BD0000D92AC39B107D9F71CE0ACE9B1E001C0F6
:103BE0001D92AC3CB107E1F70E94FA1D0C944E788F
:103BF0000C9400002F923F924F925F926F927F92AF
:103C00008F929F92AF92BF92CF92DF92EF92FF92EC
:103C10000F931F93CF93DF93CDB7DEB722970FB6E5
:103C2000F894DEBF0FBECDBF87E081B917B81AB8D0
:103C300060E076E980E090E00E94861F0E94DE3D11
:103C40008AE291E09F938F930E943E2082E091E070
:103C50009F938F930E943E208DEC90E09F938F93D3
:103C60000E943E2080E090E0A0E0B0E02DB73EB79B
:103C70002A5F3F4F0FB6F8943EBF0FBE2DBF000026
:103C80000196A11DB11D803432E493073FE0A307E4
:103C900030E0B307A1F70E94252D0E94123A0E943E
:103CA000703BEA9A78940E94763C0E942B3C0E94DA
:103CB000BA4D0E9417530E94706C8E010F5F1F4F08
:103CC00082E9282E80E0382EB8EB4B2EB0E05B2E38
:103CD000AFE86A2EA0E07A2EF8E88F2EFAE09F2E49
:103CE000ECE7AE2EE0E0BE2E79E4C72E71E0D72ED1
:103CF00066E8E62E60E0F62E8091F704882339F01E
:103D00000E94CA2E8091F70481508093F70480911D
:103D1000FB04882339F00E94246B81E08093F8042F
:103D20001092FB048091F804882331F080E090E049
:103D30000E94716B1092F8048091FA04882341F07C
:103D4000C8010E94952FC8010E94716A1092FA045E
:103D50008091F904882339F00E94976C81E0809368
:103D6000FC041092F9048091FC04882321F00E9445
:103D7000B1691092FC048091FE04882309F48BC081
:103D80008091FE0487FF0DC08091000587FD09C06A
:103D90008091D50A9091D60A01969093D60A809385
:103DA000D50A8091FE0486FF37C08091000586FD0C
:103DB0000DC08091630B9091640BA091650BB09145
:103DC000660B9093D80A8093D70A26C02091630B84
:103DD0003091640B4091650B5091660B8091D70A2E
:103DE0009091D80AA0E0B0E0281B390B4A0B5B0B7E
:103DF0005F934F933F932F935F924F920E943E2089
:103E00001092D80A1092D70A8DB79EB706960FB6B1
:103E1000F8949EBF0FBE8DBF8091FE0485FF0DC03C
:103E200080910005807649F48091D90A9091DA0A50
:103E300001969093DA0A8093D90A8091FE0484FF58
:103E40000AC08091000584FD06C03F922F920E9417
:103E50003E200F900F908091000521E030E08227F6
:103E600081708093D10A8091000590E096958795A6
:103E70008227932781708093D20A8091000590E079
:103E8000969587959695879582279327817080933D
:103E9000D30A1092FE048FEE80937A000E942E2C9B
:103EA0008091020A80FF21C07F926F920E943E2083
:103EB000C4010E94224B0F900F90882359F0DF928B
:103EC000CF92FF92EF920E943E200F900F900F90A2
:103ED0000F9006C0BF92AF920E943E200F900F90AD
:103EE0008091020A8E7F8093020A8091390190911D
:103EF0003A01892B41F484E794E090933A0180934E
:103F000039010E942B3C0E941F3AF6CE9B01AC0166
:103F100088E98093C10084E0220F331F441F551F9E
:103F20008A95D1F760E070E081EE90E00E94BA7768
:103F300021502093C4008091020A8B7F8093020A53
:103F40000895982F8091020A82FD06C08091C000DA
:103F500085FFFCCF9093C6000895CF93DF93EC01CB
:103F600003C021960E94A11F88818823D1F7DF9189
:103F7000CF9108951F920F920FB60F9211241F93A5
:103F80002F933F934F935F936F937F938F939F9361
:103F9000AF93BF93EF93FF938091020A82FD3FC0DE
:103FA0001091C600812F0E94A11F8091020A80FFFC
:103FB00004C08091020A826020C0183049F48091C8
:103FC0009C01882309F448C080919C01815024C041
:103FD0001D30B1F4E0919C01F0E0E957F54F80818C
:103FE0008C3571F0E0919C01F0E0E857F54F1082BC
:103FF00010929C018091020A81608093020A2CC079
:1040000080919C01813340F580919C01E82FF0E084
:10401000E857F54F10838F5F80939C011DC020915E
:1040200000013091010180910201909103010197FB
:104030002817390789F08091C600F9018193F09320
:104040000101E0930001E95BFA4031F42053304074
:104050003093010120930001FF91EF91BF91AF9147
:104060009F918F917F916F915F914F913F912F9190
:104070001F910F900FBE0F901F9018959F92AF92B7
:10408000BF92CF92DF92EF92FF920F931F93CF9345
:10409000DF93CDB7DEB76A970FB6F894DEBF0FBED9
:1040A000CDBFFE01B896E190F190FA83E98399249F
:1040B0002DE0C22ED12CCC0EDD1E93E0A92EB12C0A
:1040C000AC0EBD1EF7018491882309F4B3C0089497
:1040D000E11CF11C853209F0AAC0F7010894E11C2B
:1040E000F11C2491822F90E0C0970A9710F0822F44
:1040F0000BC02B831C82C5010E94B172982EF70160
:104100000894E11CF11C84918C3609F445C08D366D
:1041100040F4833651F1893609F44DC0823691F668
:1041200022C0833779F0843718F48F3659F606C0E9
:10413000853719F1883709F0C5CF02C048E03CC087
:1041400040E13AC0E981FA813296FA83E98312911B
:10415000029104C00F5F1F4F0E94A11FF8018081D0
:104160008823C1F7AFCF42E027C0E981FA813296B8
:10417000FA83E983329780815AC0E981FA813496C3
:10418000FA83E98392918291729162912AE030E000
:10419000A6010E946B741BC0E981FA813496FA83F0
:1041A000E98392918291729162912AE030E0A601B6
:1041B0000E942F740CC04AE0E981FA813296FA839A
:1041C000E98350E0B601929182910E940E7420E042
:1041D00030E0F601E20FF31F80812F5F3F4F88230D
:1041E000C1F721503040892D90E028173907D4F4C9
:1041F000921AA0E0B0E0292D30E005C0EA0FFB1FC5
:1042000080E380831196F501A217B307B9F7AA0DD1
:10421000BB1D1C92B601C5010E949D73B501C6016C
:104220000E94BC73C6010E94AD1F99244BCF0E940F
:10423000A11F48CF6A960FB6F894DEBF0FBECDBF60
:10424000DF91CF911F910F91FF90EF90DF90CF9072
:10425000BF90AF909F900895CF92DF92EF92FF9220
:104260000F931F93CF93DF93CDB7DEB724970FB68D
:10427000F894DEBF0FBECDBF6C017A018B0120E048
:1042800030E0AE014F5F5F4FD601A20FB31F0E9417
:10429000EF77802DFA01E20FF31F80832F5F3F4FEE
:1042A0002430310589F769817A818B819C816F3F48
:1042B0002FEF72072FEF82072FEF920711F4C8013B
:1042C000B70124960FB6F894DEBF0FBECDBFDF91C5
:1042D000CF911F910F91FF90EF90DF90CF900895B5
:1042E00020E030E0F901EE0FFF1FE20FF31FEE0FA9
:1042F000FF1FEE0FFF1FE754F64F82859385892B32
:1043000059F410821182128213821482158216824D
:1043100017821086118605C0828593850197938741
:1043200082872F5F3F4F25303105E1F60895DC018C
:1043300020E030E0422FE22FF0E02F5F3F4FEE0F02
:10434000FF1FEE0FFF1FE356FE4F80819181892BE7
:1043500089F7453020F4B183A08373836283089585
:1043600040E050E0A42FE42FF0E0EE0FFF1FEE0F2F
:10437000FF1FE356FE4F208131812115310529F0C1
:104380004F5F5F4F2817390769F7A53010F4718325
:1043900060830895DC0120E030E0422FE22FF0E05E
:1043A0002F5F3F4FEE0FFF1FEE0FFF1FEF54FE4F2B
:1043B00080819181892B89F7453020F4B183A083D6
:1043C0007383628308951F920F920FB60F92112488
:1043D0008F938091F50981608093F5091092C70150
:1043E0001092C8011092C9011092CA01EA988F91E7
:1043F0000F900FBE0F901F901895CF93DF93C09131
:104400001405D091150560E070E086E0C830D8074B
:10441000C1F4FB01EE0FFF1FE60FF71FEE0FFF1FAA
:10442000EE0FFF1FE754F64F2681378140855185F7
:104430008091240590912505A0912605B09127052E
:104440001AC0C830D105E9F4FB01EE0FFF1FE60FDB
:10445000F71FEE0FFF1FEE0FFF1FE754F64F2681E9
:104460003781408551858091220590912305A09147
:104470002405B0912505281739074A075B0709F479
:104480005BC06F5F7F4F6530710509F0BECF20E0E4
:1044900030E0F901EE0FFF1FE20FF31FEE0FFF1FD9
:1044A000EE0FFF1FE754F64F86819781A085B185F7
:1044B0000097A105B10509F044C086E0C830D807CF
:1044C000D9F480910E05808380910F0581838091BE
:1044D0001005828380911105838380911205848366
:1044E0008091130585838091240590912505A091E5
:1044F0002605B09127051CC0289749F580910E0527
:10450000808380910F058183809110058283809143
:10451000110583838091120584838091130585831F
:104520008091220590912305A0912405B091250545
:1045300086839783A087B18784E690E093878287FC
:1045400006C02F5F3F4F2530310509F0A2CFDF9124
:10455000CF910895AB01BC0180E090E09C01FC018B
:10456000EE0FFF1FE80FF91FEE0FFF1FEE0FFF1FEB
:10457000E754F64F86819781A085B185841795070A
:10458000A607B70739F0C90101968530910531F7C3
:1045900025E030E0C9010895CF93DF93EC01CB0112
:1045A000BA010E94AA22853009F1DE0140E050E004
:1045B00090E09C01220F331F280F391F220F331F59
:1045C000220F331FF901E40FF51FE754F64F8081E6
:1045D0008C93FA01E654F54F8081FD0186834F5F8D
:1045E0005F4F11964630510569F0ECCFAAEBBAE067
:1045F000FE018FEF80838D91868331968AE0A03C07
:10460000B807B9F7DF91CF910895EF92FF920F931A
:104610001F93FC0179018A0110C0808121813296AB
:1046200090E0982F8827820F911DA0E0B0E0E80E5F
:10463000F91E0A1F1B1F625070406230710568F737
:10464000672B51F0808190E0982F8827A0E0B0E0A0
:10465000E80EF91E0A1F1B1F9801442755278FEFEC
:104660009FEFA0E0B0E0E822F9220A231B232E0DE1
:104670003F1D401F511FCA01AA27BB274070507021
:10468000820F931FA41FB51F809590951F910F91C6
:10469000FF90EF900895AF92BF92CF92DF92EF928A
:1046A000FF920F931F937C015A016B010E94CC2251
:1046B00088E090E0F701958784878701025F1F4FAC
:1046C00080E490E0F8019783868380E8808780917A
:1046D000C5019091C60101969093C6018093C501D2
:1046E000292F3327982F8827280F391F35832483B4
:1046F00085E4F7018687F8011182A08AB18AC28A0F
:10470000D38A8091F6099091F709A091F809B091A8
:10471000F90984879587A687B7871386128620E0D4
:1047200030E040E050E064E170E0C8010E94052301
:10473000292F3327982F8827280F391FF80133870F
:1047400022871F910F91FF90EF90DF90CF90BF9045
:10475000AF9008956F927F928F929F92AF92BF9287
:10476000CF92DF92EF92FF920F931F93CF93DF933D
:1047700012E2C12ED12CC80ED91EBC01625F7F4F40
:10478000EB01EC84FD840E851F8540E050E086E15E
:1047900090E0489FF001499FF00D589FF00D1124C3
:1047A000ED5FF54F80819181A281B3818E159F05C8
:1047B000A007B10709F0A0C024813581D6018D91F1
:1047C0009C912817390709F097C0E60188859985DB
:1047D000AA85BB8580879187A287B3878C819D81BD
:1047E000AE81BF8184879587A687B7878D85808BAB
:1047F00083898F3F11F083E0838BEB018A819B815A
:10480000F82EEE24892F9927E80EF91E8CEE9FEFE3
:10481000E80EF91EE6018C8590E0807F90709595FA
:10482000879595958795E81AF90A00E010E0A48429
:10483000B584C684D7842485358546855785848587
:104840009585A685B7856484758486849784207051
:1048500030705070232F342F452F5527AD2CBB249B
:10486000CC24DD242A0D3B1D4C1D5D1D8070A070E5
:10487000B070BA2FA92F982F8827280F391F4A1FE9
:104880005B1F962C882477246624260D371D481D2F
:10489000591D2E0D3F1D401F511FE12CF12C1FEF04
:1048A000012F112DE222F32204231523EF2CF02EE9
:1048B000012F1127852F9927AA27BB27E80EF91E5C
:1048C0000A1F1B1FDA01C9018070A070B070BA2FD7
:1048D000A92F982F8827E80EF91E0A1F1B1F522F99
:1048E000442733272227E20EF31E041F151FE486F8
:1048F000F586068717874EC04F5F5F4F45305105DD
:1049000009F045CF20E030E086E190E0289FA0014B
:10491000299F500D389F500D1124FA01ED5FF54F7E
:1049200080819181A281B3810097A105B10561F5D4
:10493000E082F18202831383D6018D919C9195834D
:104940008483E6018A819B81978386838885998504
:10495000AA85BB8580879187A287B3878C819D813B
:10496000AE81BF8184879587A687B7878D85808B29
:10497000128A118A83E0838B148AFA01E85EF54F6C
:1049800080818E7F808306C02F5F3F4F25303105A9
:1049900009F0BACFDF91CF911F910F91FF90EF9067
:1049A000DF90CF90BF90AF909F908F907F906F904F
:1049B0000895EF92FF920F931F937B018C0180E08B
:1049C00090E09C0186E190E0289FF001299FF00D86
:1049D000389FF00D1124ED5FF54F80819181A28108
:1049E000B3818E159F05A007B10729F484819581B5
:1049F0008417950739F0C90101968530910509F7AB
:104A000025E030E0C9011F910F91FF90EF900895CC
:104A100060E070E0E62FF0E0EE0FFF1FEE0FFF1FEB
:104A2000EF54FE4F4081518141155105A1F0209175
:104A30002C0530912D056F5F7F4F832F9927322FE3
:104A40002227820F931F4817590721F70280F3810D
:104A5000E02D80E0099508951F93CF93DF93182FE1
:104A600060E070E0282F30E086E190E0289FD001E0
:104A7000299FB00D389FB00D1124AD5FB54FE62FC3
:104A8000F0E0EE0FFF1FEE0FFF1FE356FE4F4081D9
:104A900051814115510581F0ED012E813F818E81BB
:104AA0009F816F5F7F4F892F9927322F2227820F97
:104AB000931F4817590719F70280F381E02D812FC2
:104AC0000995DF91CF911F910895863038F5282FF1
:104AD00030E086E190E0289FD001299FB00D389FFB
:104AE000B00D1124FD01ED5FF54F1082118212828D
:104AF00013821582148217821682108611861286FE
:104B000013861486158616861786108A128A118ACD
:104B1000138AA85EB54F8C918E7F8C9308954F9227
:104B20005F926F927F928F929F92AF92BF92CF923D
:104B3000DF92EF92FF920F931F93CF93DF932C019D
:104B400070E086E190E0689FE001699FD00D789F5A
:104B5000D00D1124CD5FD54F8E819F8190932B0571
:104B600080932A058C819D8190932D0580932C053F
:104B700010923D0510923C0584E09CE49093390529
:104B80008093380580E580933605EC84FD840E859E
:104B90001F858C859D85AE85BF852C853D854E8581
:104BA0005F85AC84BD84CE84DF8480709070B070EB
:104BB000692E7A2E8B2E9924E12EFF2400271127AF
:104BC0006E0C7F1C801E911E207040705070542F00
:104BD000432F322F2227620E731E841E951EDA2C5D
:104BE000CC24BB24AA246A0C7B1C8C1C9D1C8889A9
:104BF00080933705888981FF16C00894611C711C59
:104C0000811C911C82E080933E0584E080933F05E7
:104C1000809340058CE48093410580E680933605BF
:104C2000F4E04F2E512CA40193012070307050708D
:104C3000232F342F452F5527892D9927AA27BB27A6
:104C4000280F391F4A1F5B1FD401C3018070A07059
:104C5000B070BA2FA92F982F8827280F391F4A1F05
:104C60005B1FB62DAA2799278827280F391F4A1FAF
:104C70005B1F2093320530933305409334055093E6
:104C8000350588859985AA85BB8580932E059093E7
:104C90002F05A0933005B0933105C2018896292FC6
:104CA0003327982F8827280F391F30931905209311
:104CB000180586E080931F05488159816A817B81B0
:104CC00088E095E00E944B2310923B0510923A0534
:104CD0008091180590911905782F6627892F9927BB
:104CE000680F791F685F7F4F8091160590E08F7085
:104CF0009070880F991F880F991F681B790B62505D
:104D000070409B0140E050E06E5F7F4F82E295E093
:104D10000E940523292F3327982F8827280F391F12
:104D200030933B0520933A0568E075E0C201C696D2
:104D30000E942332188ADF91CF911F910F91FF902B
:104D4000EF90DF90CF90BF90AF909F908F907F902B
:104D50006F905F904F9008958F929F92AF92BF9205
:104D6000DF92EF92FF920F931F93CF93DF937B011C
:104D70008C015A014901EA9820E030E0D22E86E108
:104D800090E0289FE001299FD00D389FD00D11247D
:104D9000CD5FD54F88819981AA81BB810097A105FC
:104DA000B105F1F4822F0E946525E882F9820A8319
:104DB0001B83BD82AC829F828E8282ED94E0A0E054
:104DC000B0E088879987AA87BB8789E299E0A0E04D
:104DD000B0E08C879D87AE87BF878EE18B8B06C046
:104DE000D3942F5F3F4F2530310541F62D2D30E014
:104DF00086E190E0289FF001299FF00D389FF00D8B
:104E00001124ED5FF54F82E0808B6D2D80E090E006
:104E10000E948F25EA9ADF91CF911F910F91FF9009
:104E2000EF90DF90BF90AF909F908F900895482FA4
:104E300050E026E130E0429FF001439FF00D529F89
:104E4000F00D1124ED5FF54F2FEF3FEF328B218BEB
:104E500091E1908B682F80E090E00E948F2508956B
:104E60007F928F929F92AF92BF92CF92DF92EF92FA
:104E7000FF920F931F93CF93DF9340E050E0842E77
:104E80009924F401EE0FFF1FEE0FFF1FE356FE4FB4
:104E90000190F081E02D309709F450C220912C054B
:104EA00030912D054F5F5F4F832F9927322F222797
:104EB000820F931FE817F90711F72091370521FF9B
:104EC00097C024FF95C088E095E00E94AA234091F6
:104ED0002A0550912B056091220570912305809140
:104EE0002405909125050E94D924682F853008F06B
:104EF00025C2282F30E086E190E0289F4001299FBD
:104F0000900C389F900C112483E09AE0880E991E33
:104F10008EE1E4018B8BEC84FD840E851F858C85EE
:104F20009D85AE85BF852C853D854E855F85AC848E
:104F3000BD84CE84DF84E12EFF24002711278070FA
:104F40009070B070892F9A2FAB2FBB27E80EF91EF7
:104F50000A1F1B1F0894E11CF11C011D111D20706C
:104F600040705070542F432F322F2227E20EF31E31
:104F7000041F151FDA2CCC24BB24AA24EA0CFB1C2A
:104F80000C1D1D1DA8019701207030705070232F3B
:104F9000342F452F5527812F9927AA27BB27280F64
:104FA000391F4A1F5B1FD801C7018070A070B07005
:104FB000BA2FA92F982F8827280F391F4A1F5B1F48
:104FC0001E2D0027FF24EE242E0D3F1D401F511FD4
:104FD000F401248735874687578780E1808B80E0FE
:104FE00090E00E948F2581E090E09A8B898BA6C18A
:104FF000223051F588E095E00E94AA2340912A05CD
:1050000050912B0560912205709123058091240514
:10501000909125050E94D924682F853008F08EC113
:10502000282F30E086E190E0289FF001299FF00DC5
:10503000389FF00D1124ED5FF54F82E1808B80E009
:1050400090E00E948F257AC140912A0550912B054E
:10505000609122057091230580912405909125058A
:105060000E94D924782EE4E0E81708F07EC088E09A
:1050700095E00E94AA238091370580FD02C082FF3F
:105080005DC1272D30E086E190E0289FF001299F47
:10509000F00D389FF00D1124ED5FF54FE484F58499
:1050A0000685178584859585A685B78524853585EC
:1050B00046855785A484B584C684D784E12EFF2411
:1050C0000027112780709070B070892F9A2FAB2F16
:1050D000BB27E80EF91E0A1F1B1F0894E11CF11CD8
:1050E000011D111D207040705070542F432F322F1E
:1050F0002227E20EF31E041F151FDA2CCC24BB243A
:10510000AA24EA0CFB1C0C1D1D1DA8019701207090
:1051100030705070232F342F452F5527812F99271A
:10512000AA27BB27280F391F4A1F5B1FD801C701B9
:105130008070A070B070BA2FA92F982F8827280FE1
:10514000391F4A1F5B1F1E2D0027FF24EE242E0D42
:105150003F1D401F511F2487358746875787808909
:1051600080FF93C080E1808B8BC088E095E00E9437
:10517000AA23472D50E086E190E0489FE001499F37
:10518000D00D589FD00D1124CD5FD54F888980FD5B
:1051900003C0888982FF7DC0EC84FD840E851F8555
:1051A0008C859D85AE85BF852C853D854E855F852B
:1051B000AC84BD84CE84DF84E12EFF240027112738
:1051C00080709070B070892F9A2FAB2FBB27E80E9C
:1051D000F91E0A1F1B1F0894E11CF11C011D111D63
:1051E000207040705070542F432F322F2227E20E30
:1051F000F31E041F151FDA2CCC24BB24AA24EA0CAE
:10520000FB1C0C1D1D1DA8019701207030705070F3
:10521000232F342F452F5527812F9927AA27BB27C6
:10522000280F391F4A1F5B1FD801C7018070A0706B
:10523000B070BA2FA92F982F8827280F391F4A1F1F
:105240005B1F1E2D0027FF24EE242E0D3F1D401F47
:10525000511F2C873D874E875F87888980FF15C047
:10526000880C991C880C991C8DE991E0880E991E78
:10527000F40122813381872DF901099580E1888B22
:10528000672D80E090E00E948F25872D0E94652584
:1052900055C0888983FF0BC0888984FF08C089892D
:1052A0009A8901969A8B898B88E1888B3AC086E12E
:1052B00090E0489F9001499F300D589F300D112478
:1052C000F901ED5FF54F808984FF0AC0F901E85EBE
:1052D000F54F808180FD04C08081816080832EC075
:1052E00086E190E0489FF001499FF00D589FF00D36
:1052F0001124DF01AD5FB54FED01888984FF1EC029
:10530000E85EF54F808180FF19C089899A898F5F97
:105310009F4FA1F080E1888B89899A8901969A8BA9
:10532000898B880C991C880C991C8DE991E0880E5A
:10533000991EE401EA81FB81872D0995DF91CF91C8
:105340001F910F91FF90EF90DF90CF90BF90AF90A3
:105350009F908F907F900895CF93DF93C0E0D0E02F
:1053600086E190E0C89FF001C99FF00DD89FF00D35
:105370001124ED5FF54F8389882309F580819181A0
:10538000A281B3810097A105B105F9F083E0838B79
:1053900084898F5F848B8150863068F0EA9884E13D
:1053A000808B6C2F80E090E00E948F25EA9A8C2FF2
:1053B0000E9465250AC08C2F0E942C2506C0838977
:1053C0008F3F19F083898150838B2196C530D10599
:1053D00039F6DF91CF910895AF92BF92CF92DF92CD
:1053E000EF92FF920F931F937C01AAE2AA2EA5E0F1
:1053F000BA2E872F9927762F6627860F971F9093AF
:105400002B0580932A05852F9927542F4427840F35
:10541000951F90932D0580932C05C7010896492F61
:105420005527982F8827480F591F50932F054093D1
:105430002E05C7014C96492F5527982F8827480FCE
:10544000591F509319054093180581E180931F055A
:105450006EEDC62E6FEFD62ECA0CDB1CB901A8016B
:10546000C6010E944B2310923105109230058091A5
:10547000180590911905782F6627892F9927680FAD
:10548000791F685F7F4F8091160590E08F70907054
:10549000880F991F880F991F681B790B675F7F4FD3
:1054A0009B0140E050E069507040C50108970E94A0
:1054B0000523292F3327982F8827280F391F30934A
:1054C000310520933005B601C7018A960E94233228
:1054D0001F910F91FF90EF90DF90CF90BF90AF9012
:1054E0000895EF92FF920F931F9340932A05209304
:1054F0002B05F0922F05E0922E05109331050093B5
:10550000300510922D0510922C0520E034E53093E3
:1055100019052093180521E020931F0508E015E0E8
:10552000AB01BC01C8010E944B23809118059091EA
:105530001905692F7727982F8827680F791F809181
:10554000160590E08F709070880F991F880F991F33
:10555000681B790B20E030E040E050E08AE295E003
:105560000E940523292F3327982F8827280F391FBA
:1055700030932D0520932C05B80182E690E00E941F
:1055800023321F910F91FF90EF900895CF93DF93F7
:10559000C6E1D5E0809116059091170580509140A5
:1055A00009F099C08091180590911905089709F0A4
:1055B00092C080911A05863009F08DC080911B053C
:1055C000843009F088C020912E0530912F0540913C
:1055D0003005509131058091F6099091F709A0911D
:1055E000F809B091F909281739074A075B0709F04C
:1055F00072C080911C0590911D05E1E080309E07EE
:1056000009F064C00E94FD214091240550912505B8
:105610006091260570912705CE010E970E94CC223D
:1056200088E096E090931505809314056091240519
:105630007091250580912605909127050E94AA2248
:10564000853009F1DE0140E050E090E09C01220F3E
:10565000331F280F391F220F331F220F331FF90169
:10566000E40FF51FE754F64F8081FD01828BFA01AC
:10567000E654F54F8081FD0180874F5F5F4F1196A3
:105680004630510561F780E092E09F838E838091E0
:10569000240590912505A0912605B0912705888FB6
:1056A000998FAA8FBB8F8091F6099091F709A091ED
:1056B000F809B091F9098E879F87A88BB98B68E0AC
:1056C00075E08CE390E00E94233205C08050924048
:1056D00011F40E94FD21DF91CF910895EF92FF9286
:1056E0000F931F93809114059091150526E0883043
:1056F000920719F40E94C62AACC0089709F0A9C005
:1057000020912605309127054091280550912905C3
:105710008091F6099091F709A091F809B091F909E3
:10572000281739074A075B0709F093C00E94FD213B
:1057300080911F05813009F082C080912A0588235D
:10574000C1F0883009F085C0E0902E05F0902F055B
:10575000009130051091310560912205709123056B
:10576000809124059091250520E040E00E94712A57
:1057700070C08091220590912305A0912405B091DD
:1057800025059070A070B070BF93AF939F938F93D7
:1057900081E591E09F938F930E943E2080912205A6
:1057A00090912305A0912405B0912505892F90E0C3
:1057B000A0E0B0E0BF93AF939F938F938DE491E00F
:1057C0009F938F930E943E20809122059091230504
:1057D000A0912405B09125058A2F90E0A0E0B0E0CB
:1057E000BF93AF939F938F9389E491E09F938F939F
:1057F0000E943E208091220590912305A0912405CE
:10580000B09125058B2F9927AA27BB27BF93AF936C
:105810009F938F9385E491E09F938F930E943E2006
:105820008BE391E09F938F930E943E208DB79EB7AC
:105830004A960FB6F8949EBF0FBE8DBF0AC0863041
:1058400011F40E94302780911F05813111F40E94CC
:1058500008251F910F91FF90EF900895CF93DF934C
:105860008091F50981FF09C00E94AC290E94702136
:105870008091F5098D7F8093F5098091F50980FD70
:105880000DC016C0BE0180EB94E00E949431FC0173
:10589000EB5FFA4F10820E946E2B02C0C8E0D5E089
:1058A0001A9BF0CF8091F5098E7F8093F509EA9AD3
:1058B000DF91CF9108958F929F92AF92BF92CF9236
:1058C000DF92EF92FF920F931F93CF93DF93CDB7A9
:1058D000DEB7AA970FB6F894DEBF0FBECDBF4B015F
:1058E0005C011FE0C12ED12CCC0EDD1E8091FE0983
:1058F0009091FF09A091000AB091010A85017401FD
:10590000E822F9220A231B232091F6093091F70996
:105910004091F8095091F90982239323A423B523D8
:10592000E816F9060A071B0719F48501740108C077
:10593000E090FA09F090FB090091FC091091FD0933
:1059400088E096E09E878D87B801A701CE01019679
:105950000E94CC228091F6099091F709A091F80954
:10596000B091F909F60186879787A08BB18BE08EFD
:10597000F18E028F138FAAEBBAE08D918087128A85
:1059800031962AE0A03CB207C1F720E031E0F601F1
:105990003183208388E090E09383828386E0848350
:1059A00084E0858337832683BE016F5F7F4F8AE261
:1059B00090E00E942332CC24C501B4010E94AA22A7
:1059C000D82EC801B7010E94AA22853020F0F4E049
:1059D000FD15A8F025C024E02D1510F590E0FC0180
:1059E000EE0FFF1FE80FF91FEE0FFF1FEE0FFF1F57
:1059F000E754F64F86829782A086B18611C080E078
:105A000090E000000196E7E280319E07D1F70E9406
:105A10002E2CC394F4E1CF1679F680E090E002C01A
:105A200081E090E0AA960FB6F894DEBF0FBECDBF1E
:105A3000DF91CF911F910F91FF90EF90DF90CF906A
:105A4000BF90AF909F908F9008950F931F930E94E7
:105A5000442E40EC58EA60E073E68EE190E00E944C
:105A60002C216093F6097093F7098093F8099093BD
:105A7000F9094FEF5FEF6FEF70E082E290E00E9474
:105A80002C216093FE097093FF098093000A909384
:105A9000010A40EC58EA60E071E086E290E00E9482
:105AA0002C216093FA097093FB098093FC09909371
:105AB000FD091092BA0A80E28093BB0A88E18093C4
:105AC000BC0A81EB8093BD0A85E18093BE0A8FE614
:105AD0008093BF0A88E791E09F938F930E943E20B6
:105AE0000E946B328FE691E09F938F930E943E203D
:105AF00008E015E0B8018CE390E00E942332B80181
:105B00008CE390E00E9423328091F90990E09F930A
:105B10008F938091F80990E09F938F938091F7097C
:105B200090E09F938F938091F60990E09F938F93DD
:105B300084E591E09F938F930E943E208DB79EB79E
:105B40000E960FB6F8949EBF0FBE8DBF1F910F919A
:105B50000895823041F0E82FF0E0ED57FE4FE491D8
:105B60008E2F90E00895862F90E083709070892B9F
:105B700019F08CE190E008958DE190E00895809116
:105B8000DE0A90E08053984F0895CF93DF93809181
:105B9000DF0A2091670BC22FD0E06F972FE1829F21
:105BA000C0011124C80FD91F8091DF0A833050F043
:105BB0008091DE0A90E083709070892B11F023971A
:105BC00001C022978091DF0A853008F021978091EB
:105BD000DF0A873008F021978091DF0A8A3008F0C9
:105BE00021978091DF0A8C3008F021974091DE0ADE
:105BF0008091DE0A2091DE0A90E0019764E070E077
:105C00000E94A777FB01E40FF11D30E0C901019765
:105C100064E670E00E94A777E61BF70BEC0FFD1F10
:105C20008091DE0A81113196CF01049667E070E021
:105C30000E9493778093DD0ADF91CF910895CF93EF
:105C4000DF93EC0181E08093DF0A6091DE0A8091AE
:105C5000DF0A0E94A92D0DC0C81BD90B8091DF0A55
:105C60008F5F8093DF0A6091DE0A8091DF0A0E94D5
:105C7000A92D90E08C179D0778F3C093670B0E94C5
:105C8000C52DDF91CF910895809181008D60809323
:105C9000810010928500109284008FE398E3909326
:105CA00089008093880080916F00826080936F00EC
:105CB00020E030E0F901EE0FFF1FEE0FFF1FE05272
:105CC000F54F8FEF80832F5F3F4F2032310591F7E3
:105CD0001092E00A1092E10A8091E20A8E7F80938E
:105CE000E20A8091E20A8D7F8093E20A8091E20AC3
:105CF00084608093E20A1092E30A1092620B109281
:105D0000610B1092600B81E08093670B8093DF0A38
:105D100088E08093DE0A0E94C52D8CE390E090938A
:105D2000DC0A8093DB0A08956091DE0A8091DF0A25
:105D30000E94A92D9091670B9F5F9093670B209114
:105D4000670B30E090E001962817390799F491E04D
:105D50009093670B8091DF0A8F5F8093DF0A8091B9
:105D6000DF0A8D3039F49093DF0A8091DE0A8F5F6D
:105D70008093DE0A8091DD0A8F5F8093DD0A809137
:105D8000DD0A67E00E9487779093DD0A81E08093C7
:105D9000FB0408958091600B8F5F8093600B80916E
:105DA000600B8C3321F51092600B8091610B8F5F3B
:105DB0008093610B8091610B8C3379F41092610BAD
:105DC0008091620B8F5F8093620B8091620B8831B0
:105DD00021F41092620B0E94942E8091610B6AE074
:105DE0000E948777992319F481E08093FA0408953B
:105DF0000F931F93CF93DF93D90190E0E0EEFAE089
:105E0000880F991F880F991F8C010E0F1F1FE80123
:105E1000688349832C9121703296E80FF91F8081A5
:105E20008E7F822B80839C91927080818D7F892BC5
:105E300080839C91947080818B7F892B8083FD016E
:105E400081818B83DF91CF911F910F910895CF9224
:105E5000DF92EF92FF920F931F93CF93DF93EA01AC
:105E600070E0762F6627680F711DEE2400E010E0C9
:105E7000CC24DD24FC2CD601AA0FBB1FAA0FBB1F0C
:105E8000A052B54F8C918F3FF9F040E050E0FD01FA
:105E9000818190E0042E02C0959587950A94E2F7DF
:105EA00080FF0DC08C91342F2227280F311D6217DF
:105EB000730728F00217130710F4EF2C89014F5FC6
:105EC0005F4F4730510519F70894C11CD11CF0E20F
:105ED000CF16D10479F6EE2DF0E0EE0FFF1FEE0F96
:105EE000FF1FDF01AE51B54F9C91917088818E7F6D
:105EF000892B88839C91927088818D7F892B8883E0
:105F00009C91947088818B7F892B8883E052F54F18
:105F10008381898381E090E0DF91CF911F910F9180
:105F2000FF90EF90DF90CF900895AC012091620B2D
:105F30008091610B9AE0299F900111246AE00E94F0
:105F400087776091DD0A820F0E94272F90E00895E5
:105F50001F920F920FB60F9211242F933F934F93DE
:105F60005F936F937F938F939F93AF93BF93EF93C1
:105F7000FF938091630B9091640BA091650BB0919E
:105F8000660B0196A11DB11D8093630B9093640B6A
:105F9000A093650BB093660B8091F7048F5F80939D
:105FA000F7048091DB0A9091DC0A01979093DC0A58
:105FB0008093DB0A8091DB0A9091DC0A892B49F4FB
:105FC00081E08093F9048CE390E09093DC0A809365
:105FD000DB0A8091C7019091C801A091C901B091DD
:105FE000CA010196A11DB11D8093C7019093C801FC
:105FF000A093C901B093CA010197A109B109815BBE
:106000009440A040B04010F00E94252D8091F509E9
:1060100082608093F5098091390190913A0101974E
:1060200090933A0180933901FF91EF91BF91AF9125
:106030009F918F917F916F915F914F913F912F91A0
:106040000F900FBE0F901F901895EF92FF920F9335
:106050001F93CF93DF93CDB7DEB724970FB6F89495
:10606000DEBF0FBECDBF7C016091DF0A83E0689F79
:10607000B001112463577E4F43E050E08E010F5F63
:106080001F4FC8010E9434731C828091DE0A90E089
:106090008053984F2091670B30E09F938F931F930D
:1060A0000F933F932F9385EB91E09F938F93FF92F4
:1060B000EF920E94A6748DB79EB70A960FB6F89419
:1060C0009EBF0FBE8DBFC70124960FB6F894DEBFEA
:1060D0000FBECDBFDF91CF911F910F91FF90EF9039
:1060E0000895CF93DF93DC01EB01AB0131C090E069
:1060F0009695879596958795FE0181939F019C9132
:1061000093709295907F9983FD018181882321F47A
:10611000E901219622E020C082958F70890F898342
:10612000FD0191819F70990F990F9A838281882335
:1061300019F4239621E010C0829586958695837088
:10614000890F8A83FD0182818F738B832496139636
:106150008C91882361F620E01882DA0108C0EC9166
:10616000F0E0EF73F070E054FE4FE491ED93AC1764
:10617000BD07A9F7FD01922F02C08DE381939150D5
:10618000E0F7A20FB11D1C92DF91CF910895FC01A1
:106190002B988AE38EBD0DB407FC07C0FCCF1EBC54
:1061A0000DB407FEFDCF8EB58193615070408FEF27
:1061B0006F3F7807A1F72B9A0895FC012B988AE787
:1061C0008EBD0DB407FEFDCF81918EBD6150704034
:1061D0000DB407FEFDCF61157105B1F72B9A089537
:1061E0002B98962F9F71982B9EBD0DB407FEFDCF67
:1061F0001EBC0DB407FEFDCF67FF04C01EBC0DB46E
:1062000007FEFDCF8EB52B9A90E008952B988EBD9A
:106210000DB407FEFDCF6EBD0DB407FEFDCF2B9A6A
:106220000895FF920F931F93F62E082F0F710B31D5
:1062300098F4182F10768091690B181769F0109355
:10624000690B63E08FEB0E9406311295169517706B
:10625000612F8FE90E9406316F2D802F80640E948C
:1062600006311F910F91FF9008950F931F93082FF0
:1062700090E08F7190704B979CF4102F1076809166
:10628000690B181769F01093690B63E08FEB0E949C
:106290000631129516951770612F8FE90E9406310D
:1062A000602F80E00E94F03090E01F910F910895E0
:1062B0000F931F938B01682F84ED0E941131602F83
:1062C00086ED0E941131012F1127602F87ED0E946A
:1062D00011318AEE0E94353180FDFBCF1F910F9165
:1062E00008950F931F93682F84ED0E94113161E090
:1062F00082ED0E9411318AEE0E94353180FDFBCF84
:1063000060E082ED0E94113189ED0E943531082F45
:1063100010E0102F002788ED0E94353190E0802B8F
:10632000912B1F910F910895EF92FF920F931F935E
:10633000CF93DF93EC017B018CE10E94353186FD28
:1063400008C089E30E943531882319F400E010E089
:1063500072C060916A0B70916B0B80E00E941131EA
:1063600060916A0B70916B0B672F772781E00E9419
:10637000113160E08AE30E94F03090E090936B0B63
:1063800080936A0B00916A0B10916B0B60E08AE3BB
:106390000E94F03090E0982F8827802B912B9093CB
:1063A0006B0B80936A0B60E08AE30E94F030082F49
:1063B00010E060E08AE30E94F03090E0982F882798
:1063C000082B192B60E08AE30E94F03060E08AE33A
:1063D0000E94F030C017D10708F48E01B801C70140
:1063E0000E94C73080916A0B90916B0B80916A0B71
:1063F00090916B0B019780509A4130F06FEF8CE0D9
:106400000E94113169E110C060916A0B70916B0BB1
:1064100061508CE00E94113160916A0B70916B0B9E
:1064200061507040672F77278DE00E94113160E442
:106430008EE90E940631C801DF91CF911F910F9123
:10644000FF90EF900895EF92FF920F931F93CF93D9
:10645000DF93EC017B0100E010E08FE10E94353119
:1064600083FF09C086E69EE00197F1F70F5F1F4F9B
:106470000233110591F760E082E00E9411316AE178
:1064800083E00E9411316C2F86E00E941131C050D0
:10649000D64E6D2F7727C050DA4187E00E94113128
:1064A00060E08AE70E940631BE01C7010E94DD302C
:1064B00060E88FE90E94063160E88FEB0E940631A8
:1064C0006CE08FE90E940631DF91CF911F910F910F
:1064D000FF90EF900895CF93DF938FEF8093690B38
:1064E000239A2B9A2F9A84B1886B84B9269880E5D9
:1064F0008CBD81E08DBD80E090E0A0E0B0E00000C8
:106500000196A11DB11D80342DE0920723E0A20762
:1065100020E0B207A1F76FEF8FEF0E94063180E015
:1065200090E0A0E0B0E000000196A11DB11D803414
:10653000EDE09E07E3E0AE07E0E0BE07A1F7C0E0B4
:10654000D0E001C021968DE10E94353180FD04C06C
:10655000FDEFC83EDF07B1F710926B0B10926A0B8C
:10656000C3E0D2E0FE0164912197FE0184910E9474
:1065700011312396F2E0CF32DF07A1F760E071E03E
:1065800080E10E94583160EC8BE10E94113164E09F
:106590008FE90E9406316AE774E384E10E94583172
:1065A0008FE10E9435318093680B82E70E9435317C
:1065B0008093680BDF91CF910895CF93DF9390E0A4
:1065C00027E230E0829FA001839F500D929F500DE3
:1065D0001124A8E8BBE09A012A0F3B1FE90188813A
:1065E000817F816088831897FA01EA0FFB1F13826D
:1065F00012821182108288818F7E88838CE69BE0D4
:106600009583848381E191E09287818786E191E09F
:10661000948783878FE291E0978386831D96A40FEA
:10662000B51F8C918E7F8C93178E10A211A212A28F
:1066300013A214A215A216A2DF91CF9108952F9252
:106640003F924F925F926F927F928F929F92AF9202
:10665000BF92CF92DF92EF92FF920F931F93CF934F
:10666000DF93CDB7DEB7A7970FB6F894DEBF0FBEA6
:10667000CDBF8BA3682E772487E290E0689EA001AF
:10668000699E500D789E500D1124FA01E857F44F81
:10669000808180FD07C0FA01E058F44F8DE29EE250
:1066A0009383828386E190E0689EF001699EF00DFD
:1066B000789EF00D1124ED5FF54F80898823B9F4A1
:1066C0009A012058344FF90180819181938382830C
:1066D000FA01E357F44F808180FF09C0F90183A1DB
:1066E00094A1A5A1B6A1878F90A3A1A3B2A387E28D
:1066F00090E0689E9001699E300D789E300D1124C7
:1067000089010058144FF80182819381918380831D
:10671000878D90A1A1A1B2A183A394A3A5A3B6A3A1
:106720007DE8E72E7BE0F72EE20EF31EF701808175
:1067300080FD03C02224332417C064E071E0C90146
:106740008257944F0E9480521C01009749F0F80133
:1067500043A154A165A176A120E00E94575204C034
:10676000F70180818E7F8083AA24BB2487E290E09A
:106770009C01629EC001639E900D729E900D11243B
:10678000FC01E357F44FFDA3ECA360E8862E6BE019
:10679000962E880E991E58E0452E512C4C0E5D1EEB
:1067A00043E1C42ED12CCC0EDD1E9E012E5E3F4F48
:1067B0003FA32EA3ECA1FDA1808180FF16C0C101E3
:1067C0000E940652FFEF8F3F9F0709F406C2282F51
:1067D000F401878D90A1A1A1B2A10196A11DB11DC7
:1067E000878F90A3A1A3B2A309C0F40182819381F2
:1067F0000196938382830197FC012491F501E85F60
:10680000FA4F26AB253209F016C2ECA1FDA180811A
:1068100080FF0EC0820106C0C1010E940652F8012D
:1068200081938F012EA13FA102171307A9F708C07A
:10683000F401628173814AE050E0C2010E94FD725E
:106840001A8A44E050E06DE97EE2C2010E941C73A6
:10685000892B11F010E043C07E010894E11CF11C6B
:106860008E010E5F1F4F9E012D5F3F4FAE014C5FAB
:106870005F4FBE016B5F7F4FCE0106960E94604F57
:10688000498150E02A8130E08B8190E05F934F9303
:106890003F932F939F938F932BE83EE23F932F9349
:1068A000DF92CF920E94A67460E170E0C6010E9460
:1068B000E073082F10E0A801B601C501825C9A4F71
:1068C0000E944C7301501040A00EB11E14E08DB711
:1068D0009EB70A960FB6F8949EBF0FBE8DBF44E0D8
:1068E00050E066E87EE2C2010E941C73892B09F029
:1068F00045C035E0E32EF12CEC0EFD1E8E010C5F41
:106900001F4F9E012D5F3F4FAE014E5F5F4FBE0197
:106910006F5F7F4FCE0106960E94604F4E815F8170
:10692000298130E08A8190E05F934F933F932F93CA
:106930009F938F93E6E7FEE2FF93EF93DF92CF9270
:106940000E94A67460E170E0C6010E94E073082F07
:1069500010E0A801B601C501825C9A4F0E944C73F9
:1069600001501040A00EB11E14E02DB73EB7265FB7
:106970003F4F0FB6F8943EBF0FBE2DBF43E050E02F
:1069800062E77EE2C2010E941C73892B39F5EC8517
:10699000E0518B852AE0829FC0011124E80FF0E0CE
:1069A000EE0FFF1FE55EFE4F4AE050E0B60180812A
:1069B00091810E940E7460E170E0C6010E94E07354
:1069C000082F10E0A801B601C501825C9A4F0E9411
:1069D0004C7301501040A00EB11E15E043E050E092
:1069E0006EE67EE2C2010E941C73892B09F066C02C
:1069F000EC85E0518B852AE0829FC0011124E80FCD
:106A0000E431E8F1E451EE2EFF24EE0CFF1C86EB9E
:106A10009CE0E80EF91EF701808191816AE070E048
:106A20000E949377CB014AE050E0B601992787FD99
:106A300090950E940E7460E170E0C6010E94E073C0
:106A4000082FF601E80FF11D8CE280830F5F10E044
:106A5000A801B601C501825C9A4F0E944C73A00E3A
:106A6000B11EF701808191816AE070E00E94937706
:106A70004AE050E0B601992787FD90950AC0F0E002
:106A8000EE0FFF1FEA54F34F808191814AE050E0FE
:106A9000B6010E940E7460E170E0C6010E94E073CE
:106AA000082F10E0A801B601C501825C9A4F0E9430
:106AB0004C7301501040A00EB11E15E044E050E0B0
:106AC00069E67EE2C2010E941C73892BD1F53D85E7
:106AD00030538C85823461F0833418F48134C9F4E6
:106AE00005C0833439F08434A1F406C022B105C056
:106AF00025B103C028B101C02BB181E090E002C0F4
:106B0000880F991F3A95E2F7282319F061E67EE293
:106B100002C06FE57EE2C6010E94F67260E170E09D
:106B2000C6010E94E073082F10E0A801B601C5015C
:106B3000825C9A4F0E944C7301501040A00EB11E0F
:106B400016E043E050E06BE57EE2C2010E941C7358
:106B5000892BD1F53C8530538B85823461F08334A9
:106B600018F48134C9F405C0833439F08434A1F4B5
:106B700006C020B105C023B103C026B101C029B1B0
:106B800081E090E002C0880F991F3A95E2F7282330
:106B900019F060E57EE202C066E47EE2C6010E9472
:106BA000F67260E170E0C6010E94E073082F10E009
:106BB000A801B601C501825C9A4F0E944C73015036
:106BC0001040A00EB11E15E043E050E062E47EE20A
:106BD000C2010E941C73892B81F486E190E0689EBB
:106BE000F001699EF00D789EF00D1124ED5FF54FD8
:106BF0008DEF9FEF928B818B27C0ECA1FDA180814F
:106C000080FF12C0F401478D50A161A172A1410F14
:106C1000511D611D711D478F50A361A372A320E018
:106C2000C1010E94575207C0F40182819381810FF4
:106C3000911D938382830894A11CB11CF4EEAF16BE
:106C4000F3E0BF0608F4B6CD2114310419F0C101F8
:106C50000E94755286E190E0689EF001699EF00DF9
:106C6000789EF00D1124ED5FF54F88E1808B6BA1CC
:106C7000C5010E948F25A7960FB6F894DEBF0FBE00
:106C8000CDBFDF91CF911F910F91FF90EF90DF90DB
:106C9000CF90BF90AF909F908F907F906F905F90BC
:106CA0004F903F902F9008955F926F927F928F92B6
:106CB0009F92AF92BF92CF92DF92EF92FF920F938B
:106CC0001F93CF93DF93582E80913605082F10E045
:106CD000007F1070159507951595079563EC7EE27A
:106CE000C801865D9A4F0E947873892B81F0252D0B
:106CF00030E087E290E0289FF001299FF00D389F57
:106D0000F00D1124E857F44F808180618083A52C19
:106D1000BB2487E290E0A89EB001A99E700DB89EAA
:106D2000700D1124DB01A058B44FED01EE81FF81FD
:106D30008081882319F4882499245BC052E2852E2F
:106D4000912C800E911E80911905282F30E02E5D28
:106D50003F4F8091180590E0982F8827280F391F02
:106D6000201B310BA401485F5A4FEB01C857D44F89
:106D70008CE6E82E8BE0F82E6FE271E037C0888158
:106D800080FD19C0FA018081FD01C480D580F60123
:106D900091916F01FD01D582C482891711F0F582AE
:106DA000E482FD0184819581FC018081882319F4AE
:106DB000888181608883FA018081FD01C680D78047
:106DC000F60191916F01FD01D782C682891711F0FA
:106DD00077836683FD0186819781FC0180814F5F07
:106DE0005F4F882331F00894811C911C8216930612
:106DF00030F287E290E0A89EA001A99E500DB89EB7
:106E0000500D1124FA01E857F44FE081E0FF77C0FC
:106E1000E4FF75C0A2E28A2E912C800E911E809113
:106E20001905282F30E02E5D3F4F8091180590E026
:106E3000982F8827280F391F201B310BE401C85FCA
:106E4000DA4FDA01A058B44F61E171E0E6E1EE2ECD
:106E5000E1E0FE2E50C09881FD01C184D284F6018C
:106E600081916F01FD01D286C186981711F072875A
:106E70006187FD01C184D284F60180818823B9F441
:106E80008981823441F0833451F0813469F48091F6
:106E9000CB018F5F07C08091CB018E5F03C08091D3
:106EA000CB018C5F8093CB01FD0172876187FD016F
:106EB000C384D484F60181916F01FD01D486C38619
:106EC000981711F0F486E386FD0183859485FC0113
:106ED00080812196882361F4FA01E857F44F80817C
:106EE0008F7E80838091CB0182B91092CB0107C045
:106EF0000894811C911C8216930608F4ACCF87E29B
:106F000090E0A89E9001A99E300DB89E300D1124EE
:106F1000F901E058F44F82819381892B09F02AC14D
:106F2000F901E357F44F808180FD24C157E2852E9B
:106F3000912C800E911E80911905282F30E02E5D36
:106F40003F4F8091180590E0982F8827280F391F10
:106F5000201B310BF401E85FFA4F0BC081918D309B
:106F600029F4F401E85FFA4F108206C00894811CEE
:106F7000911C8216930690F380913605E82FF0E07D
:106F8000E07FF070F595E795F595E795E15DFA4FAF
:106F900087E290E0A89ED001A99EB00DB89EB00DEA
:106FA0001124A257B44F80E090E03CE005C02E329F
:106FB00009F4CD012D9331962081222321F0203236
:106FC00011F03150A0F71C92009711F48D0103C00D
:106FD0008C010F5F1F4F87E290E0A89EE001A99E01
:106FE000D00DB89ED00D1124FE01E058F44F8685D7
:106FF000882351F469EB7EE2CE018257944F0E94C0
:10700000F6728E010C56144F64E071E0CE01825787
:10701000944F0E9480527C01892B79F4809136052F
:10702000C82FD0E0C07FD070D595C795D595C795AE
:10703000C65DDA4F00E010E08EC0FE01E357F44F6A
:1070400080818160808343E050E065EB7EE2C8018F
:107050000E941C73892B31F4FE01E857F44F8081A4
:10706000897F16C043E050E061EB7EE2C8010E94D8
:107070001C73892B39F4FE01E857F44F8081897F16
:10708000846006C0FE01E857F44F8081897F8260EA
:10709000808387E290E0A89EF001A99EF00DB89E43
:1070A000F00D1124E058F44FE70189A59AA5ABA58E
:1070B000BCA5838F948FA58FB68F178E10A211A2B7
:1070C00012A213A214A215A216A2C7010E94755201
:1070D00051C0B701CE010E9478730F5F1F4F892BFB
:1070E000D1F187E290E0A89E3001A99E700CB89E75
:1070F000700C1124E301C857D44F1881197F126016
:1071000018836CEA7EE2C7010E947873892B19F01C
:10711000197F1260188367EA7EE2C7010E947873C4
:10712000892B21F08881897F8260888362EA7EE2F0
:10713000C7010E947873892B19F08881897F888321
:10714000F601ED5AF34D85919491F301E058F44F17
:10715000938382830FC0C02EDD24CC0CDD1CCC0CAD
:10716000DD1CF601EF5AF34DE590F490E114F104C3
:1071700009F0AFCF87E290E0A89E9001A99E300D64
:10718000B89E300D1124D901A058B44FED01EE8105
:10719000FF818081882331F4F901E857F44FE081C1
:1071A000E4FF17C086E190E0A89E8001A99E100D23
:1071B000B89E100D11240D5F154F80E1F801808BF2
:1071C000652D80E090E00E948F2581E090E0E8014D
:1071D0002FC0E0FD30C086E190E0A89EE001A99EAE
:1071E000D00DB89ED00D1124CD5FD54F888983FF77
:1071F00022C08DE29EE2FD01938382838091360559
:1072000090E0807F9070959587959595879541E85A
:1072100050E06DE17DE2865D9A4F0E94CF7288E179
:10722000888B652D81E890E00E948F2582E090E0B8
:107230009A8B898B98C087E290E0A89E9001A99EC6
:10724000300DB89E300D1124D901A058B44FED0176
:107250008A819B81892BC9F4F901E357F44F80811E
:1072600080FD13C080912D0190912E010196909385
:107270002E0180932D0188E392E09B838A83F9019C
:10728000E857F44F8081897F808386E190E0A89E53
:10729000F001A99EF00DB89EF00D1124ED5FF54FA1
:1072A00082E090E0928B818B87E290E0A89EF001D3
:1072B000A99EF00DB89EF00D1124E857F44F80817F
:1072C0008695837090E08130910599F08230910528
:1072D00029F1892BB9F58091360590E0807F907077
:1072E000959587959595879547E550E06DE67CE205
:1072F0000DC08091360590E0807F907095958795C0
:107300009595879547E550E065EC7CE2865D9A4F60
:107310000E94CF72A7E58A2E912C14C08091360569
:1073200090E0807F907095958795959587954DE82D
:1073300050E06FE97DE2865D9A4F0E94CF72EDE8E2
:107340008E2E912C86E190E0A89EF001A99EF00D72
:10735000B89EF00D1124ED5FF54F88E1808B652D0F
:10736000C4010E948F25DF91CF911F910F91FF9053
:10737000EF90DF90CF90BF90AF909F908F907F90D5
:107380006F905F900895EF92FF921F93CF93DF93DA
:10739000182FE82EFF2486E190E0E89EE001E99EA8
:1073A000D00DF89ED00D1124CD5FD54F888980FD7A
:1073B00033C089899A89019719F4812F0E94DD329F
:1073C00089899A89039720F4812F0E94543624C01A
:1073D00089899A89039748F089899A898E5F9F4F96
:1073E00020F4812F0E941F3317C086E190E0E89EB1
:1073F000F001E99EF00DF89EF00D1124ED5FF54FC0
:10740000818992898E5F9F4F38F08EEF9FEF928B2C
:10741000818B812F0E941727DF91CF911F91FF90C1
:10742000EF9008956CE67BE086E091E00E94713079
:1074300063EC79E380E590E00E9497210895FF9244
:107440000F931F93CF93DF9360910001709101011F
:107450008091430C9091440C6817790709F46EC031
:1074600000E010E0F02E86E190E0089FF001099F17
:10747000F00D189FF00D1124ED5FF54F8681978177
:107480008050974109F04BC08091870A80FD56C01B
:10749000EA988091870A81608093870A809102012F
:1074A000909103019093440C8093430C40E050E092
:1074B00015C0A85FBA4FF9018191ED018EABF09331
:1074C000440CE093430CE95BFA4031F42053304024
:1074D0003093440C2093430C4F5F5F4F2091430C3B
:1074E0003091440CA42FB0E06217730711F786E1C6
:1074F00090E0E801C89F8001C99F100DD89F100D32
:1075000011240D5F154F88E1F801808B6F2DCD019F
:107510000E948F2583E0E8018B8BEA9A0FC00F5FF2
:107520001F4F0530110509F09DCF8091020A82FF9F
:1075300005C08091020A8B7F8093020ADF91CF9170
:107540001F910F91FF9008951F93CF93DF93182FF2
:10755000E82FF0E086E190E0E89FE001E99FD00DA0
:10756000F89FD00D1124CD5FD54F888980FF06C0CC
:107570008091020A8B7F8093020AAEC089899A8922
:10758000892B21F089899A890197F1F481E090E0B3
:107590009A8B898B46E150E068EC7EE28EE395E0C1
:1075A0000E94CF72612F86E190E00E948F2580912A
:1075B000020A84608093020A8091870A8E7F8093FA
:1075C000870A8FEF8B8B88C089899A89029708F484
:1075D00046C0888983FF43C082E090E09A8B898B04
:1075E0002091360530E0207F307035952795359510
:1075F0002795B9016E5D7F4F80911905482F50E0A6
:107600004E5D5F4F8091180590E0982F8827480FB6
:10761000591F421B530BDB01A85FBA4F09C0809171
:10762000C00085FFFCCF8D918093C6006F5F7F4FB8
:1076300064177507A4F386E190E09F01289FF0018D
:10764000299FF00D389FF00D1124ED5FF54F80E17B
:10765000808B612F80E090E00E948F253DC086E105
:1076600090E0E89FD001E99FB00DF89FB00D112484
:10767000AD5FB54FED0189899A890297B8F0888985
:1076800084FF14C08091870A80FF10C08FEF8B8B1E
:107690008091430C9091440C9093030180930201DC
:1076A0008091870A8E7F8093870A16C086E190E0DA
:1076B0009F01289FF001299FF00D389FF00D1124A4
:1076C000ED5FF54F8089882339F48091870A8E7F9A
:1076D0008093870A0E941F3ADF91CF911F910895EE
:1076E00064EA7AE387E190E00E9497210895EF929F
:1076F000FF920F931F93E0905A05F0905B05009165
:107700005C0510915D05212F332744275527D801AB
:10771000C70180709070B070892F9A2FAB2FBB2754
:10772000280F391F4A1F5B1F205F314F4F4F5F4F9C
:10773000D801C7018070A070B070BA2FA92F982F00
:107740008827280F391F4A1F5B1F1E2D0027FF2483
:10775000EE242E0D3F1D401F511F20935A053093DC
:107760005B0540935C0550935D052093630B30935C
:10777000640B4093650B5093660B6091630B7091A3
:10778000640B8091650B9091660B20E831E541E038
:1077900050E00E94BA7725513A4948E00BC02D5677
:1077A0003140842F90E083709070892B11F021502C
:1077B00030404F5F81E02E36380788F74093DE0A6D
:1077C000C9010E941F2E6091630B7091640B809120
:1077D000650B9091660B20E13EE040E050E00E9496
:1077E000BA77CA01B90128E130E040E050E00E94D8
:1077F000BA776093620B6091630B7091640B809118
:10780000650B9091660B2CE330E040E050E00E9465
:10781000BA77CA01B9012CE330E040E050E00E94A1
:10782000BA776093610B6091630B7091640B8091E8
:10783000650B9091660B2CE330E040E050E00E9435
:10784000BA776093600B81E08093FB041F910F91E6
:10785000FF90EF900895AF92BF92CF92DF92EF9298
:10786000FF920F931F93CF93DF93E0900205F09068
:1078700003050091040510910505C801B7010E9498
:107880005B2C813041F5CC24DD24CFEDDEE2F4E346
:10789000AF2EF1E0BF2EFE0121968491D601A85FA4
:1078A000BA4FFD0182A744E050E0BE01C5010E942D
:1078B0001C73F6013196892B29F06F0184E0E638BC
:1078C000F80749F7980187014BE750E06CEF78E043
:1078D000CF010E94EC29DF91CF911F910F91FF9072
:1078E000EF90DF90CF90BF90AF90089567E77BE374
:1078F0008CEF98E00E94CA214DE455E266E07BE3FC
:1079000082E390E00E942C216093020570930305AE
:107910008093040590930505089508956DE87CE330
:1079200089E591E00E94CA210895DF92EF92FF92CB
:107930000F931F938091CC019091CD01029778F025
:107940008091CC019091CD01449748F48091CC0175
:107950009091CD0101969093CD018093CC018091BF
:10796000CC019091CD01892B09F087C088E190E38B
:107970009F938F930E943E206CE77DE382E399E022
:107980000E94972161ED72EA8AEB9CE30E945B2CD6
:107990000F900F90882309F46AC080E090E0A0E087
:1079A000B0E000000196A11DB11D803824E89207C7
:1079B0002EE1A20720E0B207A1F729E032E340E080
:1079C00050E561ED72EA8AEB9CE30E94AC26DD246F
:1079D00085E0E82EF12C012D112D1DC040E050E571
:1079E00061ED72EA8AEB9CE30E94D9249FE1D916EB
:1079F00039F48CEE9FE29F938F930E943E2074C0D7
:107A0000E82EFF2400E010E025E0E216F104010575
:107A1000110580F0D39486E190E0E89EF001E99EA4
:107A2000F00DF89EF00D1124ED5FF54F81899289DC
:107A30000197A1F686EC9FE29F938F930E943E20D0
:107A400086E190E0E89EF001E99EF00DF89EF00DD1
:107A50001124E85EF54F80818160808382E090E0B0
:107A60009093CD018093CC010F900F9006C081E0E0
:107A700090E09093CD018093CC018091CC019091C6
:107A8000CD010B9798F18091CC019091CD01449755
:107A900068F58EEA9FE29F938F930E943E2040E01C
:107AA00050E561ED72EA8AEB9CE30E94D924D82E5E
:107AB000E82EFF244AE950E063E17FE28EE395E09F
:107AC0000E94CF7286E190E0E89EF001E99EF00D01
:107AD000F89EF00D1124ED5FF54F88E1808B6D2D40
:107AE0008AE990E00E948F250F900F901F910F91CF
:107AF000FF90EF90DF900895DF92EF92FF920F9347
:107B00001F93CF93DF93D82E80913605C82FD0E0F6
:107B1000C07FD070D595C795D595C795A2968E0193
:107B2000085F1A4F66E2E62E60E3F62E0FC0F801FA
:107B300081918F0190E09F938F93FF92EF920E942B
:107B40003E2021960F900F900F900F9020911905D5
:107B500030E02E5D3F4F8091180590E0982F8827E8
:107B6000280F391F8091360590E0807F90709595A1
:107B7000879595958795281B390BC217D307BCF2BB
:107B80002D2D30E086E190E0289FF001299FF00D37
:107B9000389FF00D1124ED5FF54F8FEF838B80E15F
:107BA000808B6D2D80E090E00E948F25DF91CF913A
:107BB0001F910F91FF90EF90DF90089580E48093E4
:107BC0007C008FEE80937A0008951F920F920FB67B
:107BD0000F9211242F933F938F93EF93FF93109263
:107BE0007A008091CE012091780030917900E82FC1
:107BF000F0E0EE0FFF1FE55EFE4F318320838F5FC5
:107C00008093CE018091CE01853010F01092CE018C
:107C10008091CE01805C80937C00FF91EF918F91E9
:107C20003F912F910F900FBE0F901F9018958FEFDF
:107C30009FEF0895E0E0F0E0099480E090E008957F
:107C4000CF93DF93EC01892B19F4E0E0F0E02BC037
:107C50008091F90990E09F938F938091F80990E0CB
:107C60009F938F938091F70990E09F938F938091DA
:107C7000F60990E09F938F9382EE95E39F938F9305
:107C8000DF93CF930E94A674FE0101900020E9F7D4
:107C90003197EC1BFD0B8DB79EB70C960FB6F89481
:107CA0009EBF0FBE8DBFCF01DF91CF910895CF93BF
:107CB000DF93EC01892B19F4E0E0F0E01BC089E4CC
:107CC00091E09F938F9382E597E39F938F93DF9348
:107CD000CF930E94A674FE0101900020E9F731972E
:107CE000EC1BFD0B8DB79EB706960FB6F8949EBFA2
:107CF0000FBE8DBFCF01DF91CF910895AF92BF929C
:107D0000CF92DF92EF92FF920F931F93CF93DF9367
:107D1000EC016091630B7091640B8091650B909105
:107D2000660B20E13EE040E050E00E94BA77CA01D5
:107D3000B90128E130E040E050E00E94BA775B01F1
:107D40006C016091630B7091640B8091650B909155
:107D5000660B2CE330E040E050E00E94BA77CA01A5
:107D6000B9012CE330E040E050E00E94BA777B019B
:107D70008C016091630B7091640B8091650B909105
:107D8000660B2CE330E040E050E00E94BA7770E0F0
:107D90008E2D90E02A2D30E02097C9F07F936F93CD
:107DA0009F938F933F932F9382EF97E39F938F93AC
:107DB000DF93CF930E94A674FE0101900020E9F7A3
:107DC0003197EC1BFD0B8DB79EB70A9611C07F93C0
:107DD0006F939F938F933F932F938CED97E39F9394
:107DE0008F930E943E20E0E0F0E08DB79EB70896AA
:107DF0000FB6F8949EBF0FBE8DBFCF01DF91CF911C
:107E00001F910F91FF90EF90DF90CF90BF90AF90B8
:107E10000895CF93DF93EC018091680B2097D9F000
:107E200090E09F938F9387EE98E39F938F93DF93D8
:107E3000CF930E94A674FE0101900020E9F73197CC
:107E4000EC1BFD0B8DB79EB706960FB6F8949EBF40
:107E50000FBE8DBF0FC090E09F938F938FEC98E380
:107E60009F938F930E943E20E0E0F0E00F900F90F0
:107E70000F900F90CF01DF91CF910895CF93DF93B3
:107E8000EC018091BF0A2091BE0A3091BD0A409159
:107E9000BC0A5091BB0A6091BA0A209751F190E058
:107EA0009F938F93822F90E09F938F93832F90E0E7
:107EB0009F938F93842F90E09F938F93852F90E0D3
:107EC0009F938F93862F90E09F938F9389E299E3FE
:107ED0009F938F93DF93CF930E94A674FE0101902E
:107EE0000020E9F73197EC1BFD0B8DB79EB740964C
:107EF00022C090E09F938F93822F90E09F938F9367
:107F0000832F90E09F938F93842F90E09F938F9384
:107F1000852F90E09F938F93862F90E09F938F9370
:107F200087E099E39F938F930E943E20E0E0F0E08A
:107F30008DB79EB70E960FB6F8949EBF0FBE8DBF3D
:107F4000CF01DF91CF910895CF93DF93EC0100979C
:107F500019F4E0E0F0E00BC061E176E30E94F67214
:107F6000FE0101900020E9F73197EC1BFD0BCF01DA
:107F7000DF91CF910895CF93DF93EC01009719F42F
:107F8000E0E0F0E00BC063E376E30E94F672FE01EE
:107F900001900020E9F73197EC1BFD0BCF01DF9139
:107FA000CF9108950F931F93CF93DF93CDB7DEB793
:107FB00069970FB6F894DEBF0FBECDBF8C010E944B
:107FC0001753882319F480E090E0A0C00115110533
:107FD00021F0C8010E94BB3F99C0CE0101960E94CA
:107FE0009764882359F480E794E39F938F930E94CA
:107FF0003E2080E090E00F900F9088C0898190E053
:108000009F938F9382E694E39F938F930E943E20E9
:10801000CE0102969F938F9384E594E39F938F9371
:108020000E943E20CE0105969F938F9386E494E3B1
:108030009F938F930E943E208B8590E09F938F9318
:1080400088E394E39F938F930E943E208C859D85C7
:10805000AE85BF85BF93AF939F938F938AE294E3DE
:108060009F938F930E943E20888990E09F938F93E7
:10807000898990E09F938F9389E194E39F938F93F5
:108080000E943E208A899B89AC89BD89BF93AF93AA
:108090009F938F938BE094E39F938F930E943E2056
:1080A0002DB73EB72E5D3F4F0FB6F8943EBF0FBEC3
:1080B0002DBF8E8990E09F938F938DEF93E39F93D5
:1080C0008F930E943E208F8990E09F938F93888D9D
:1080D00090E09F938F938CEE93E39F938F930E94F6
:1080E0003E20898D90E09F938F938EED93E39F9335
:1080F0008F930E943E2080E090E02DB73EB7225F34
:108100003F4F0FB6F8943EBF0FBE2DBF69960FB616
:10811000F894DEBF0FBECDBFDF91CF911F910F91BD
:108120000895EF92FF921F93CF93DF93009719F07A
:108130000E94BB3F19C0C0E7D1E382E9E82E84E387
:10814000F82EFE0121961491812F90E09F938F933A
:10815000FF92EF920E943E200F900F900F900F9091
:10816000112379F780E090E0DF91CF911F91FF908C
:10817000EF9008952F923F925F926F927F928F922D
:108180009F92AF92BF92CF92DF92EF92FF920F93A6
:108190001F93CF93DF93CDB7DEB7AC970FB6F894AC
:1081A000DEBF0FBECDBF009719F00E94BB3FF3C0EA
:1081B0008BE895E39F938F930E943E208FEF8983F6
:1081C00055E0C52ED12CCC0EDD1E760100E010E06E
:1081D0000F900F905E010894A11CB11C1BC0B70149
:1081E000C5010E94007089818F3F19F489E795E3EA
:1081F0000AC00F5F1F4F28E030E0E20EF31E8E3FF3
:1082000049F48DE695E39F938F930E943E200F9053
:108210000F9007C0502E8981882319F00530110571
:10822000F1F6852D90E09F938F938CE495E39F93D7
:108230008F930E943E20FF2401E010E00F900F90EA
:108240000F900F9043E0242E312C2C0E3D1E32E077
:10825000632E712C6C0E7D1E25EC822E24E3922E53
:1082600093EEA92E94E3B92E91C01F930F938DE343
:1082700095E39F938F930E943E200F900F900F9055
:108280000F90F6018081803129F42EE235E33F938F
:108290002F9304C086E295E39F938F930E943E2024
:1082A0000F900F90E0E2F5E3FF93EF930E943E20E2
:1082B000C6010E94E86F0F900F90882329F423E1F4
:1082C00035E33F932F9304C08AE095E39F938F9308
:1082D0000E943E200F900F90E3EFF4E3FF93EF93A3
:1082E0000E943E20B60180E00E94C46E0F900F9065
:1082F000882309F03CC02CE43DE180E791E0019740
:10830000F1F721503040C9F79E012C5F3F4FA1018A
:10831000B301C6010E948A6F882331F568E070E0DE
:10832000C6010E941A704C816B818A810E94686E1E
:108330009F938F938C8190E09F938F938B8190E09C
:108340009F938F938A8190E09F938F93BF92AF9278
:108350000E943E202DB73EB7265F3F4F0FB6F894E0
:108360003EBF0FBE2DBF0BC09F928F9204C085E908
:1083700094E39F938F930E943E200F900F90F3946D
:10838000E8E0F0E0CE0EDF1E0F5F1F4FF51409F09E
:108390006CCF80E090E0AC960FB6F894DEBF0FBED5
:1083A000CDBFDF91CF911F910F91FF90EF90DF90A4
:1083B000CF90BF90AF909F908F907F906F905F9085
:1083C0003F902F9008950F931F93CF93DF930097C3
:1083D00019F00E94BB3F33C00E94976C82EB95E37B
:1083E0009F938F930E943E20C0E0D0E00F900F90AB
:1083F00009EA15E3FE01EE0FFF1FEA54F34F8081F7
:10840000918121969F938F93DF93CF931F930F9327
:108410000E943E208DB79EB706960FB6F8949EBF79
:108420000FBE8DBFC830D10529F786EA95E39F932B
:108430008F930E943E2080E090E00F900F90DF919C
:10844000CF911F910F910895EF92FF920F931F9379
:10845000CF93DF93009719F00E94BB3F2AC00BE136
:1084600011E0C0E0D0E07DECE72E75E3F72EF801D7
:10847000819191918F019F938F93DF93CF93FF927F
:10848000EF920E943E2021968DB79EB706960FB6BA
:10849000F8949EBF0FBE8DBFCA30D10541F78AEC5C
:1084A00095E39F938F930E943E2080E090E00F9091
:1084B0000F90DF91CF911F910F91FF90EF90089552
:1084C000009719F480E090E008950E94BB3F089562
:1084D0002F923F924F925F926F927F928F929F92D4
:1084E000AF92BF92CF92DF92EF92FF920F931F93C2
:1084F000CF93DF93009719F00E94BB3FA0C0C0E06C
:10850000D0E0F0E82F2EF8E33F2EE7E74E2EE8E329
:108510005E2E72E7672E78E3772E6DE6862E68E38F
:10852000962E58E6A52E58E3B52E4DE5C42E48E309
:10853000D42E30E5E32E38E3F32EDF93CF933F9232
:108540002F920E943E2086E190E0C89F8001C99F43
:10855000100DD89F100D11240D5F154FF80180816B
:108560009181A281B3819070A070B070BF93AF93DE
:108570009F938F935F924F920E943E20F8018081DB
:108580009181A281B381892F90E0A0E0B0E0BF93F8
:10859000AF939F938F937F926F920E943E20F8013A
:1085A00080819181A281B3818A2F90E0A0E0B0E028
:1085B000BF93AF939F938F939F928F920E943E2081
:1085C000F80180819181A281B3818B2F9927AA27FD
:1085D000BB27BF93AF939F938F93BF92AF920E949D
:1085E0003E20F8012481358184819581892F992746
:1085F000322F2227820F931F9F938F93DF92CF9268
:108600000E943E20F80183892DB73EB7205E3F4F80
:108610000FB6F8943EBF0FBE2DBF90E09F938F938F
:10862000FF92EF920E943E2021960F900F900F90A4
:108630000F90C530D10509F080CF80E090E0DF9148
:10864000CF911F910F91FF90EF90DF90CF90BF904F
:10865000AF909F908F907F906F905F904F903F90E2
:108660002F9008952F923F924F925F926F927F9238
:108670008F929F92AF92BF92CF92DF92EF92FF9232
:108680000F931F93CF93DF93009719F00E94BB3F86
:10869000CEC0C0E0D0E0BEEA2B2EB8E33B2EA9EA64
:1086A0004A2EA8E35A2EF0EA6F2EF8E37F2EEBE96C
:1086B0008E2EE8E39E2E76E9A72E78E3B72E61E9A9
:1086C000C62E68E3D62E54E8E52E58E3F52E8E012B
:1086D000000F111F0C0F1D1F000F111F000F111F86
:1086E0000754164FF801808190E09F938F93DF939A
:1086F000CF9322EC38E33F932F930E943E20F80162
:10870000818190E09F938F932DEB38E33F932F93DC
:108710000E943E20F801828190E09F938F9328EB86
:1087200038E33F932F930E943E20F801838190E02D
:108730009F938F9323EB38E33F932F930E943E2028
:10874000F801848190E09F938F933F922F920E9433
:108750003E20F801858190E09F938F935F924F9226
:108760000E943E20F80186819781A085B185907096
:10877000A070B070BF93AF939F938F937F926F92CF
:108780000E943E20F80186819781A085B1852DB792
:108790003EB7205E3F4F0FB6F8943EBF0FBE2DBFD1
:1087A000892F90E0A0E0B0E0BF93AF939F938F93A9
:1087B0009F928F920E943E20F80186819781A0852A
:1087C000B1858A2F90E0A0E0B0E0BF93AF939F9374
:1087D0008F93BF92AF920E943E20F80186819781CD
:1087E000A085B1858B2F9927AA27BB27BF93AF936D
:1087F0009F938F93DF92CF920E943E20F801828553
:1088000093859F938F93FF92EF920E943E20219633
:108810002DB73EB72A5E3F4F0FB6F8943EBF0FBE4E
:108820002DBFC530D10509F052CF80E090E0DF9137
:10883000CF911F910F91FF90EF90DF90CF90BF905D
:10884000AF909F908F907F906F905F904F903F90F0
:108850002F900895CF93DF93EC01009719F4E0E097
:10886000F0E00BC06AE476E30E94F672FE0101902C
:108870000020E9F73197EC1BFD0BCF01DF91CF9181
:108880000895CF93DF93EC01009719F4E0E0F0E056
:108890000BC064E576E30E94F672FE0101900020B1
:1088A000E9F73197EC1BFD0BCF01DF91CF910895D4
:1088B000CF93DF93EC01892B19F4E0E0F0E013C0D3
:1088C0008091470C86FF03C060E976E302C066E64C
:1088D00076E3CE010E94F672FE0101900020E9F7D6
:1088E0003197EC1BFD0BCF01DF91CF9108959C01D7
:1088F000892B19F480E090E008958091470C8F7CDB
:1089000080618093470C1092A00C10929F0C1092E3
:10891000A20C1092A10CC9010E9458440895CF9353
:10892000DF93EC01892B19F4E0E0F0E021C0E09145
:10893000450CF091460C8081893449F464EE76E36D
:10894000CE010E94F6728091470C806408C06BEBE8
:1089500076E3CE010E94F6728091470C8F7B809364
:10896000470CFE0101900020E9F73197EC1BFD0B4D
:10897000CF01DF91CF9108950F931F93CF93DF9392
:108980008C01E9E4F1E001900020E9F73197E95426
:10899000F140E150AE2FBB27A7FDB095EF5FA75B7D
:1089A000BE4F20E030E00BC0ED018C912F5F3F4FB8
:1089B00011978F3221F41882191664F005C09E2F8A
:1089C000921B915097FFF0CF6CE277E389E491E03E
:1089D0000E94F6720115110519F4E0E0F0E01BC0E9
:1089E00089E491E09F938F938EE097E39F938F9319
:1089F0001F930F930E94A674F80101900020E9F7DD
:108A00003197E01BF10B8DB79EB706960FB6F89421
:108A10009EBF0FBE8DBFCF01DF91CF911F910F91F0
:108A20000895CF93DF93EC01009719F4E0E0F0E0B4
:108A30000BC062ED77E30E94F672FE010190002008
:108A4000E9F73197EC1BFD0BCF01DF91CF91089532
:108A5000CF92DF92EF92FF920F931F93CF93DF930A
:108A6000CDB7DEB7CF56D0400FB6F894DEBF0FBEFD
:108A7000CDBF7C01E091450CF091460C80818F3296
:108A800009F4C6C069E471E0CE01C0960E94BC73CF
:108A9000A091450CB091460CFD0101900020E9F732
:108AA0003397EA17FB0709F044C08C918E3209F026
:108AB00040C0FD0181818E32E1F560E577E3CD01B3
:108AC0000E94EB7236C0F80101900020E9F731975F
:108AD0003E2F301B3150832F992787FD90953F5FA4
:108AE000F801E80FF91F40E050E0BC010FC0DB01C6
:108AF000A41BB50B80814F5F5F4F31978F3231F4EC
:108B0000A00FB11F1C92121654F005C0232F241B76
:108B1000215027FFECCFB601C8010E94F672809168
:108B2000450C9091460C03969093460C8093450C0F
:108B300007C08E01005D1F4F8EE4C82E87E3D82E3C
:108B4000A091450CB091460CFD0101900020E9F781
:108B50003197EA1BFB0B339758F08C918E3241F41E
:108B6000FD0181818E3221F482818F3209F4ABCFF5
:108B70008C918E3249F4FD0181818F3229F4129655
:108B8000B093460CA093450CDE01D096FD010190F8
:108B90000020E9F731971E2F1A1B123028F06CE4E1
:108BA00077E3CD010E94EB72A091450CB091460C89
:108BB000FD0101900020E9F73197EA1BFB0BE10F63
:108BC000F11DFF9760F58D918823E9F7FD0132973C
:108BD00080818F3209F410826091450C7091460CAF
:108BE0008E01005D1F4FC8010E949D73AE014F5F53
:108BF0005F4FB8018091A30C9091A40C0E94F96280
:108C0000882369F0B80189E491E00E94BC7307C031
:108C10004FE350E0BF0189E491E00E94D173E11479
:108C2000F10419F4E0E0F0E01BC089E491E09F93C7
:108C30008F938EE297E39F938F93FF92EF920E9420
:108C4000A674F70101900020E9F73197EE19FF09AA
:108C50008DB79EB706960FB6F8949EBF0FBE8DBF18
:108C6000CF01C159DF4F0FB6F894DEBF0FBECDBFA5
:108C7000DF91CF911F910F91FF90EF90DF90CF90F8
:108C80000895CF93DF93EC018091450C9091460CB1
:108C90000E94864F882331F0209751F0CE010E9428
:108CA000414408C0209721F0CE010E94A43F02C099
:108CB00080E090E0DF91CF910895CF93DF93EC01B6
:108CC000892BE9F08091450C9091460C0E94F14F60
:108CD000882391F06091450C7091460C83E79CE0ED
:108CE0000E94BC738091470C8F7C80628093470CFC
:108CF000CE010E94584405C0CE010E94BB3F80E0D7
:108D000090E0DF91CF910895CF93DF93EC018091B4
:108D1000450C9091460C0E94F14F882371F0809190
:108D2000450C9091460C0E943B50882331F02097CF
:108D300051F0CE010E94414408C0209721F0CE019D
:108D40000E94A43F02C080E090E0DF91CF9108959F
:108D5000CF93DF93EC01892B19F480E090E01EC0E3
:108D60008091450C9091460C0E94F14F882331F080
:108D70008091450C9091460C0E943B506091450CAF
:108D80007091460C83E79CE00E94BC738091470C75
:108D900080638093470CCE010E945844DF91CF91AD
:108DA0000895CF93DF93009719F00E94BB3F19C03D
:108DB0006BE371E08091450C9091460C0E948052CB
:108DC000EC01892B61F002C00E94A11FCE010E941C
:108DD000065218161906C4F3CE010E94755280E09F
:108DE00090E0DF91CF9108952F923F924F925F9242
:108DF0006F927F928F929F92AF92BF92CF92DF92AB
:108E0000EF92FF920F931F93CF93DF93CDB7DEB70F
:108E1000CF56D0400FB6F894DEBF0FBECDBF7C0159
:108E20000E941753882309F431C18E010E5E1F4F33
:108E3000A80169E471E08091A30C9091A40C0E94B8
:108E4000F962B8018091A30C9091A40C0E942B624E
:108E50006C01892B09F41AC1E114F10461F08091CD
:108E60009F0C9091A00CF60192AB81AB1092A00CDC
:108E700010929F0C08C084EC97E39F938F930E94FD
:108E80003E200F900F90870151E4A52EB12CAC0E1F
:108E9000BD1E41E6242E312C2C0E3D1E38E0832EC3
:108EA000912C8C0E9D1E28E6422E512C4C0E5D1EE0
:108EB0009CE0692E94E0792E6E0C7F1CD2C09E013E
:108EC0002E5F3F4FAE014F5F5F4FBE016A5F7F4F26
:108ED000C5010E9471589E012B5F3F4FAE014C5F50
:108EE0005F4FBE016D5F7F4FC5010E949158E11435
:108EF000F10409F463C0F101808184FF06C06EEBC8
:108F000077E3C4010E94F67219C0F2018081918159
:108F1000A281B381BF93AF939F938F932AEB37E3E3
:108F20003F932F939F928F920E94A6748DB79EB706
:108F300008960FB6F8949EBF0FBE8DBFBF92AF923A
:108F40009F928F928D8190E09F938F938C8190E080
:108F50009F938F938B8190E09F938F938E819F81BE
:108F60009F938F938A8190E09F938F93898190E064
:108F70009F938F93EFE9F7E3FF93EF931F930F9383
:108F80000E94A6742DB73EB72C5E3F4F0FB6F894E3
:108F90003EBF0FBE2DBFF80181918F018823D9F705
:108FA000015010406016710608F05BC0F60181A9FF
:108FB00092A99093A00C80939F0C5AC08C8190E052
:108FC0009F938F938B8190E09F938F938E819F814E
:108FD0009F938F93898190E09F938F938A8190E0F4
:108FE0009F938F9329E837E33F932F930E943E206E
:108FF000F10180812DB73EB7245F3F4F0FB6F89443
:109000003EBF0FBE2DBF84FF09C08EE797E39F933D
:109010008F930E943E200F900F9017C0F201808125
:109020009181A281B381BF93AF939F938F9329E7DF
:1090300037E33F932F930E943E208DB79EB706964D
:109040000FB6F8949EBF0FBE8DBFBF92AF92E6E7FA
:10905000F7E3FF93EF930E943E200F900F900F9045
:109060000F90B501C6010E948859882309F027CFC7
:10907000C6010E94E057E114F10441F0F7010190AC
:109080000020E9F73197EE19FF0902C0E0E0F0E0B7
:10909000CF01C159DF4F0FB6F894DEBF0FBECDBF71
:1090A000DF91CF911F910F91FF90EF90DF90CF90C4
:1090B000BF90AF909F908F907F906F905F904F90F8
:1090C0003F902F9008950F931F938C010E942B3C8B
:1090D000C8010E942A441F910F910895CF93DF93F6
:1090E000EC016DE371E085E49CE00E94F67300976B
:1090F00019F480E090E00CC040E050E060E070E0E7
:109100000E94A871688379838A839B8381E090E0C1
:10911000DF91CF910895AF92BF92CF92DF92EF92FD
:10912000FF920F931F93CF93DF93CDB7DEB72497B2
:109130000FB6F894DEBF0FBECDBF19821A821B8214
:109140001C827E010894E11CF11CC7010E946E483C
:10915000882371F1AA24BB24650100E010E0898115
:109160009A81AB81BC81002E04C0880F991FAA1F71
:10917000BB1F0A94D2F7A80EB91ECA1EDB1EC70178
:109180000E946E48882329F0085F1F4F00321105A6
:1091900031F7C601B5010E945B2C61E0E62EF12C8F
:1091A00001E010E020E048E0C601B5010E94712A0C
:1091B00080E090E024960FB6F894DEBF0FBECDBFDE
:1091C000DF91CF911F910F91FF90EF90DF90CF90A3
:1091D000BF90AF900895CF92DF92FF920F931F93AD
:1091E000CF93DF93CDB7DEB724970FB6F894DEBFE9
:1091F0000FBECDBF6C0119821A821B821C828E01A8
:109200000F5F1F4FC8010E946E48F980C8010E947D
:109210006E482F2D30E089819A81F901EE0FFF1FF2
:10922000E55EFE4F91838083C114D104B9F09F9312
:109230008F933F932F938FE298E39F938F93DF92C7
:10924000CF920E94A674F60101900020E9F73197B1
:10925000EC19FD098DB79EB708960FC09F938F93A9
:109260003F932F938EE098E39F938F930E943E202D
:10927000E0E0F0E08DB79EB706960FB6F8949EBF7B
:109280000FBE8DBFCF0124960FB6F894DEBF0FBE80
:10929000CDBFDF91CF911F910F91FF90DF90CF90C5
:1092A0000895CF92DF92FF920F931F93CF93DF9396
:1092B000CDB7DEB724970FB6F894DEBF0FBECDBF93
:1092C0006C018E010F5F1F4FC8010E946E488823FA
:1092D00099F0FF24F999FECFD601AF0DB11D898118
:1092E000082E0E94F777C8010E946E48882321F05B
:1092F000F39483E08F1570F724960FB6F894DEBFD1
:109300000FBECDBFDF91CF911F910F91FF90DF90E6
:10931000CF900895CF93DF93EC0186E290E00E9416
:10932000514940EC58EA60E071E086E290E00E942A
:109330002C216093FA097093FB098093FC099093A8
:10934000FD098091FD092091FC093091FB094091B4
:10935000FA09209711F190E09F938F93822F90E06C
:109360009F938F93832F90E09F938F93842F90E010
:109370009F938F9380E799E39F938F93DF93CF938E
:109380000E94A674FE0101900020E9F73197EC1BC2
:10939000FD0B8DB79EB70C961AC090E09F938F93EC
:1093A000822F90E09F938F93832F90E09F938F93D2
:1093B000842F90E09F938F9383E599E39F938F93FE
:1093C0000E943E20E0E0F0E08DB79EB70A960FB60F
:1093D000F8949EBF0FBE8DBFCF01DF91CF9108954E
:1093E000CF93DF93EC0182E290E00E9451494FEF6E
:1093F0005FEF6FEF70E082E290E00E942C216093BB
:10940000FE097093FF098093000A9093010A8091EE
:10941000010A2091000A3091FF094091FE0920972E
:1094200011F190E09F938F93822F90E09F938F9301
:10943000832F90E09F938F93842F90E09F938F933F
:109440008CEA99E39F938F93DF93CF930E94A67446
:10945000FE0101900020E9F73197EC1BFD0B8DB761
:109460009EB70C961AC090E09F938F93822F90E046
:109470009F938F93832F90E09F938F93842F90E0FF
:109480009F938F9381E999E39F938F930E943E204E
:10949000E0E0F0E08DB79EB70A960FB6F8949EBF55
:1094A0000FBE8DBFCF01DF91CF910895CF93DF9392
:1094B000EC0182E390E00E9451494DE455E266E000
:1094C0007BE382E390E00E942C216093020570937D
:1094D000030580930405909305058091050520916F
:1094E00004053091030540910205209711F190E0A9
:1094F0009F938F93822F90E09F938F93832F90E081
:109500009F938F93842F90E09F938F9381EE99E3A5
:109510009F938F93DF93CF930E94A674FE010190D7
:109520000020E9F73197EC1BFD0B8DB79EB70C9629
:109530001AC090E09F938F93822F90E09F938F9318
:10954000832F90E09F938F93842F90E09F938F932E
:1095500083EC99E39F938F930E943E20E0E0F0E03C
:109560008DB79EB70A960FB6F8949EBF0FBE8DBFFB
:10957000CF01DF91CF910895CF93DF93EC018EE17E
:1095800090E00E94514940EC58EA60E073E68EE1B9
:1095900090E00E942C216093F6097093F709809364
:1095A000F8099093F9098091F9092091F80930910F
:1095B000F7094091F609209711F190E09F938F935E
:1095C000822F90E09F938F93832F90E09F938F93B0
:1095D000842F90E09F938F9384E19AE39F938F93DE
:1095E000DF93CF930E94A674FE0101900020E9F75B
:1095F0003197EC1BFD0B8DB79EB70C961AC090E00F
:109600009F938F93822F90E09F938F93832F90E06F
:109610009F938F93842F90E09F938F938BEF99E389
:109620009F938F930E943E20E0E0F0E08DB79EB7BD
:109630000A960FB6F8949EBF0FBE8DBFCF01DF9183
:10964000CF910895CF92DF92FF920F931F93CF9304
:10965000DF93CDB7DEB722970FB6F894DEBF0FBE0B
:10966000CDBF9A83898361E471E0CE0101960E94A7
:10967000F6736C0189819A819093460C8093450C16
:10968000FF2410C0F394EF2DF0E0EE0FFF1FEE0F5C
:10969000FF1FEC52FF4C85919491892B19F480E0C7
:1096A00090E023C00F2D10E0000F111F000F111FBD
:1096B000F801EC52FF4C65917491C6010E94D8727A
:1096C000892B01F789E29AE39F938F930E943E20B2
:1096D000F801EA52FF4C2591349180E090E0F901C5
:1096E000099581E090E00F900F9022960FB6F894C4
:1096F000DEBF0FBECDBFDF91CF911F910F91FF90C5
:10970000DF90CF9008950F931F93CF93DF9363E47F
:1097100071E083E79CE00E9480528C01009719F46D
:1097200080E090E03EC04091970C5091980C609181
:10973000990C70919A0C40939B0C50939C0C6093E5
:109740009D0C70939E0C20E00E945752892B51F083
:1097500040E754E06EE375E0C8010E94A356EC01B7
:1097600097FF02C0C0E0D0E0CE01AA2797FDA095E8
:10977000BA2F2091970C3091980C4091990C5091F0
:109780009A0C820F931FA41FB51F8093970C909380
:10979000980CA093990CB0939A0CC8010E94755232
:1097A000CE01DF91CF911F910F910895FF920F93FA
:1097B0001F93CF93DF93F82E8B01242F30E086E1A7
:1097C00090E0289FE001299FD00D389FD00D1124F3
:1097D000CD5FD54F88E1888B642FC8010E948F250B
:1097E000085F1A4FF80116AAFF2099F48091470CE0
:1097F00081608093470C8FEF8B8B1092490C1092F5
:109800004B0C10924A0C1092530C8091470C877F9E
:1098100003C08091470C82608093470CDF91CF9109
:109820001F910F91FF900895EF92FF920F931F9356
:10983000E82EF42EDB010D900020E9F78D01015098
:109840001040061B170BA8018EE395E00E9443739E
:109850004F2DB8018E2D0E94D64B1F910F91FF9076
:10986000EF900895CF92DF92EF92FF920F931F93A4
:10987000C82E8B01D42ECB010E9413737C01AC0146
:10988000B8018EE395E00E94CF724D2DB7018C2D6B
:109890000E94D64B1F910F91FF90EF90DF90CF90D9
:1098A0000895482F853078F48091470C80FF06C0DA
:1098B0008091470C84608093470C089560E47AE3BC
:1098C00080E00E94324C0895BF92CF92DF92EF92D7
:1098D000FF920F931F93CF93DF93B82E6B01EE246B
:1098E000FF240E2D10E0000F111F000F111FF801B3
:1098F000EC52FF4CC591D491209749F0BE01C601AE
:109900000E94D8720894E11CF11C892B51F7CD2BD1
:1099100071F40EE315E060E87AE3C8010E94F67284
:10992000F80101900020E9F7EF53F54028C083E5E6
:109930009CE09093460C8093450CF801EA52FF4C52
:10994000259134918091360590E0807F90709595B7
:10995000879595958795865D9A4FF901099597FFAB
:109960000DC04EE050E061E77AE38EE395E00E949F
:10997000CF728B2D0E9417278EE090E0FC01CF0163
:10998000DF91CF911F910F91FF90EF90DF90CF90DB
:10999000BF900895FF920F931F93F82E082F10E0A9
:1099A00086E190E0089FF001099FF00D189FF00DEF
:1099B0001124ED5FF54F808980FF04C08FEF809305
:1099C000480CD4C081899289029790F481E090E09C
:1099D000928B818B4F2D6CE27AE380E00E94324CB7
:1099E0008091470C8F7B8093470CF092480CBEC04F
:1099F000808983FFA5C082E090E0928B818B2091CB
:109A0000360530E0207F30703595279535952795C0
:109A1000B9016E5D7F4F80911905482F50E04E5D72
:109A20005F4F8091180590E0982F8827480F591FA5
:109A3000421B530BDB01A85FBA4F61C09C919D3064
:109A400069F4F092480C6BE47CE08F2D0E94644C2A
:109A50004F2DBC0180E00E94D64B88C08091470CFE
:109A600083FD08C0903231F48091470C8860809368
:109A7000470C42C0903208F43FC08091470C83FFEE
:109A80001EC080914A0CE82FF0E0E95BF34F948709
:109A90008F5F80934A0CE0914A0CF0E0E95BF34F52
:109AA000148680914A0C803238F110924A0C109240
:109AB000530C8091470C877F8093470C24C0809182
:109AC000490CE82FF0E0E95BF34F94838F5F8093BC
:109AD000490CE091490CF0E0E95BF34F148280916E
:109AE000490C883048F01092490C8091470C877FD0
:109AF0008093470C10924B0C6F5F7F4F1196641749
:109B000075070CF49BCF86E190E09801289F8001B7
:109B1000299F100D389F100D11240D5F154F80E106
:109B2000F801808B6F2D80E090E00E948F2580915E
:109B3000470C8E7F8093470C8FEFF801838B16C004
:109B4000808984FF13C08091470C8E7F8093470CDF
:109B50008FEF838B8091470C82FF08C08091470C68
:109B60008B7F8093470C8F2D0E94514C1F910F913A
:109B7000FF9008950F931F930AEC1CE4B80185E150
:109B800090E00E94972161ED7DE484E398E00E94DB
:109B90009721B80182E39FEE0E9497211F910F91B8
:109BA0000895FF920F931F93CF93DF93F82E809128
:109BB000470C82958370282F30E02230310509F45C
:109BC00081C02330310509F413C1CF2DD0E02130FD
:109BD000310509F053C186E190E0C89FF001C99FAB
:109BE000F00DD89FF00D1124ED5FF54F818992891A
:109BF000892B49F4328B218B8091470C8D7F809388
:109C0000470C86E0838B8091470C81FF1BC08089C5
:109C100084FF08C080919F0C9091A00C9093A20C9F
:109C20008093A10C8089882341F48091A10C9091AC
:109C3000A20C9093A00C80939F0C8091470C8D7F79
:109C40008093470C8EE395E00E94F4469C0180913E
:109C50009F0C9091A00C892BB9F48091470C8F7CBC
:109C60008093470C86E190E0C89FF001C99FF00DFA
:109C7000D89FF00D1124ED5FF54F81E1808B8FEFC0
:109C80009FEF928B818B12C086E190E0C89FF0011C
:109C9000C99FF00DD89FF00D1124ED5FF54F80E1C5
:109CA000808B8091470C82608093470C6F2DC90197
:109CB0000E948F2580919F0C9091A00C892B09F018
:109CC000F9C091C00F2D10E086E190E0089FF001EF
:109CD000099FF00D189FF00D1124ED5FF54F81895C
:109CE0009289892BC9F481E090E0928B818B10924C
:109CF0009B0C10929C0C10929D0C10929E0C10923A
:109D0000970C1092980C1092990C10929A0C8091CA
:109D1000470C8D7F8093470C8091470C81FF2BC0AF
:109D2000808984FF10C08091970C9091980CA0912D
:109D3000990CB0919A0C80939B0C90939C0CA093DF
:109D40009D0CB0939E0C8089882381F480919B0C9C
:109D500090919C0CA0919D0CB0919E0C8093970CBF
:109D60009093980CA093990CB0939A0C8091470C07
:109D70008D7F8093470C0E94834BEC0184E0C037B9
:109D8000D807B8F48091470C8F7C8093470C86E10C
:109D900090E0089FF001099FF00D189FF00D11242D
:109DA000ED5FF54F81E1808B8FEF9FEF928B818B81
:109DB00012C086E190E0089FF001099FF00D189F06
:109DC000F00D1124ED5FF54F80E1808B8091470C01
:109DD00082608093470C6F2DCE010E948F25C05763
:109DE000D44008F067C08091480C0E94514C62C07A
:109DF00065E471E083E79CE00E948052EC01892BCE
:109E0000F1F06091360570E0607F70707595679530
:109E1000759567954091180550E0542F442780911F
:109E20001905480F511D461B570B461B570B665D06
:109E30007A4FCE010E94B360CE010E9475522F2D41
:109E400030E086E190E0289FF001299FF00D389FD7
:109E5000F00D1124ED5FF54F108980E1808B6F2D9F
:109E600080E090E00E948F2510FF24C08091480C74
:109E70000E94514C8091470C8F7C1AC086E190E083
:109E8000C89FF001C99FF00DD89FF00D1124ED5F20
:109E9000F54F808980FF0EC0808984FF02C08EE16B
:109EA000838B8FEF9FEF928B818B8091470C8D7FFF
:109EB0008093470CDF91CF911F910F91FF900895F0
:109EC000EF92FF920F931F93FC01DB01B801809189
:109ED000DE0A90E08053984F918380838091DF0A5F
:109EE0008C938091670BFA0180838091620BF9015A
:109EF00080838091610BFB0180838091600BF7016F
:109F000080831F910F91FF90EF900895EF92FF9241
:109F10000F931F93CF93DF93CDB7DEB7CE55D040CD
:109F20000FB6F894DEBF0FBECDBF7C018091A30CAD
:109F30009091A40C009719F480E090E01FC08E016E
:109F40000F5F1F4FA80169E471E00E94F962B80138
:109F50008091A30C9091A40C0E942B628C01AE0105
:109F6000405D5F4FB7010E948763F82EC8010E94D1
:109F7000E05780E0FF2009F481E090E0C25ADF4F13
:109F80000FB6F894DEBF0FBECDBFDF91CF911F910A
:109F90000F91FF90EF900895EF92FF920F931F9310
:109FA000CF93DF938B017A01E9010CC0B701CE0199
:109FB0000E946573892B31F4C8010E94E65781E045
:109FC00090E008C0BE01C8010E948859882371F73B
:109FD00080E090E0DF91CF911F910F91FF90EF9083
:109FE0000895EF92FF920F931F93CF93DF93CDB716
:109FF000DEB7CE55D0400FB6F894DEBF0FBECDBF52
:10A000007C018091A30C9091A40C009719F480E03E
:10A0100090E023C08E010F5F1F4FA80169E471E03B
:10A020000E94F962B8018091A30C9091A40C0E9447
:10A030002B628C019E01205D3F4FA701BC018091E6
:10A04000A30C9091A40C0E94CC4FF82EC8010E9442
:10A05000E05780E0F11081E090E0C25ADF4F0FB688
:10A06000F894DEBF0FBECDBFDF91CF911F910F914E
:10A07000FF90EF900895CF92DF92EF92FF920F93AF
:10A080001F93CF93DF93CDB7DEB7CE55D0400FB639
:10A09000F894DEBF0FBECDBF6C018091A30C9091F0
:10A0A000A40C009719F480E090E032C08E010F5F9D
:10A0B0001F4FA80169E471E00E94F962B801809124
:10A0C000A30C9091A40C0E942B628C0180E3E82EDB
:10A0D000F12CEC0EFD1E9701A601B8018091A30C96
:10A0E0009091A40C0E94CC4F882361F0B70180911D
:10A0F000A30C9091A40C0E94F157882319F0FF241F
:10A10000F39401C0FF24C8010E94E0578F2D90E016
:10A11000C25ADF4F0FB6F894DEBF0FBECDBFDF913E
:10A12000CF911F910F91FF90EF90DF90CF90089506
:10A13000FC019B0140E050E08191882319F04F5FC2
:10A140005F4FFACFBF01C9010E94B3600895CF935A
:10A15000DF93CDB7DEB721970FB6F894DEBF0FBE01
:10A16000CDBF8983CB0141E050E0BE016F5F7F4FDF
:10A170000E94B36021960FB6F894DEBF0FBECDBF2C
:10A18000DF91CF9108954F925F926F927F928F925D
:10A190009F92AF92BF92CF92DF92EF92FF920F9376
:10A1A0001F93CF93DF93CDB7DEB7C655D0400FB620
:10A1B000F894DEBF0FBECDBFAB964EAC5FACAB9795
:10A1C000AD96EEACFFACAD97CE0183599F4F9A830D
:10A1D00089838824992437E1A32EB12CAC0EBD1EAF
:10A1E00023E0C22ED12CCC0EDD1E9DE0692E712CF9
:10A1F0006C0E7D1EF7018491882309F4E5C0089454
:10A20000E11CF11C853209F0CEC0F7010894E11C75
:10A21000F11C2491822F90E0C0970A9710F0822FB2
:10A220000BC02D871E86C3010E94B172882EF701D4
:10A230000894E11CF11C84918C3609F44BC08D36D6
:10A2400048F48336D9F1893609F460C0823609F0C2
:10A25000AFC032C0833789F0843720F48F3609F0DD
:10A26000A7C007C0853709F444C0883709F0A0C0EB
:10A2700002C048E04CC040E14AC0E981FA81329610
:10A28000FA83E9831291029112C0FFE3F91538F4C1
:10A29000492D50E0B501C2010E94B3609924F50137
:10A2A000E90DF11DD8018D918D0180839394F80102
:10A2B0008081882351F77CC042E029C0E981FA817E
:10A2C0003296FA83E9833297D501A90DB11D8081B9
:10A2D0008C936DC0E981FA813496FA83E983929177
:10A2E0008291729162912AE030E0A6010E942F745F
:10A2F00019C0E981FA813296FA83E9834AE050E095
:10A30000B601929182910E9490740CC04AE0E9815A
:10A31000FA813296FA83E98350E0B60192918291F4
:10A320000E940E7420E030E0F601E20FF31F8081FE
:10A330002F5F3F4F8823C1F721503040882D90E098
:10A3400028173907D4F4821AA0E0B0E0282D30E0B5
:10A3500005C0EA0FFB1F80E380831196F301A2176B
:10A36000B307B9F7A60DB71D1C92B601C3010E9431
:10A370009D73B301C6010E94BC73F5E3F91538F46F
:10A38000492D50E0B501C2010E94B3609924D60165
:10A3900005C0F501E90DF11D808393948D9188230B
:10A3A000C1F7882405C0F501E90DF11D8083939460
:10A3B0008FE3891508F01ECF40E450E0B501C201DB
:10A3C0000E94B360992416CF492D50E0BE01695E0A
:10A3D0007F4FC2010E94B36080E090E0CA5ADF4F15
:10A3E0000FB6F894DEBF0FBECDBFDF91CF911F91A6
:10A3F0000F91FF90EF90DF90CF90BF90AF909F9024
:10A400008F907F906F905F904F900895CF93DF93E0
:10A41000CDB7DEB721970FB6F894DEBF0FBECDBF24
:10A4200041E050E0BE016F5F7F4F0E94A3561816B7
:10A4300019061CF08FEF9FEF02C0898190E02196F2
:10A440000FB6F894DEBF0FBECDBFDF91CF91089558
:10A45000CF92DF92EF92FF920F931F93CF93DF93F0
:10A460007C016B01C0E0D0E0FE01EE0DFF1DE49128
:10A47000EE2311F02196F8CFCE010E94AA708C0134
:10A48000AE01B7010E94CF72AE01B801C6010E94B1
:10A49000B3607C01C8010E945271C701DF91CF9166
:10A4A0001F910F91FF90EF90DF90CF900895CF9381
:10A4B000DF93CDB7DEB724970FB6F894DEBF0FBE9B
:10A4C000CDBF49835A836B837C83422FBE016F5F6C
:10A4D0007F4F0E94556090E024960FB6F894DEBF3F
:10A4E0000FBECDBFDF91CF9108950F931F938C01C5
:10A4F0000E944767C8010E949D561F910F910895C1
:10A500008F929F92AF92BF92CF92DF92EF92FF9283
:10A510000F931F93CF93DF93CDB7DEB7C256D040D2
:10A520000FB6F894DEBF0FBECDBF5C016B0180910A
:10A53000A30C9091A40C009709F462C08E010B5FEC
:10A540001F4FA80169E471E00E94F962B80180918F
:10A55000A30C9091A40C0E942B627C0144E3842EF6
:10A56000912C8C0E9D1E25C0B501C8010E946573FB
:10A57000892BF9F4C7010E94E657B8018091A30C1A
:10A580009091A40C0E9464628C01F6018081F80114
:10A5900087ABF6018081813661F519821A821B82B0
:10A5A0001C8242E0BE016F5F7F4FC8010E94556070
:10A5B00020C08401B401C7010E9488598823A1F6F4
:10A5C000F6018081813611F08737B9F4A801B50111
:10A5D000C7010E949D62882381F0B8018091A30C7D
:10A5E0009091A40C0E9464628C01F6018081F801B4
:10A5F00087ABC7010E94E05705C0C7010E94E05722
:10A6000000E010E0C801CE59DF4F0FB6F894DEBF6E
:10A610000FBECDBFDF91CF911F910F91FF90EF90B3
:10A62000DF90CF90BF90AF909F908F9008950F9341
:10A630001F93CF93DF93CDB7DEB7AF970FB6F894E4
:10A64000DEBF0FBECDBF0E943568882309F049C028
:10A6500085EA9CE00E94A56800E025E637E649E629
:10A6600056E66FEB77E688E995E60E94AF688C01C5
:10A67000892B71F40FEF25E637E649E656E66FEBD6
:10A6800077E688E995E60E94AF688C01892B49F14D
:10A690008091A30C9091A40C0E947E53C8010E944B
:10A6A000BA5A9093A40C8093A30C009721F4C8018C
:10A6B0000E94A56816C08E010F5F1F4FA80167E4B6
:10A6C00071E00E94F962B8018091A30C9091A40CF2
:10A6D0000E942B62009729F00E94E05781E090E0F1
:10A6E00002C080E090E0AF960FB6F894DEBF0FBED8
:10A6F000CDBFDF91CF911F910F910895FC01892B60
:10A7000011F0118210820895CF93DF93FC01D901DB
:10A710008081853E29F1882319F12D913C91119773
:10A72000ED018A819B812817390799F44C835D8359
:10A730006E837F8383858F3011F080E205C0808136
:10A740008295880F807E805EFD01808780E090E0AA
:10A7500009C083858F3021F02F5F3F4F2D933C93AD
:10A7600081E090E0DF91CF910895EF92FF920F93F7
:10A770001F93CF93DF93EC017A018B01B90188819C
:10A78000853E09F4DEC0882309F4DBC0F90183A506
:10A7900094A5A5A5B6A50097A105B10521F4E3A64A
:10A7A000F4A605A716A76115710509F4CAC020977C
:10A7B00009F4C7C09881992309F4C3C0AE01455F6D
:10A7C0005F4F8B858F3099F5892F90E08F73907054
:10A7D0002DE030E0AC01429FC001439F900D529F9D
:10A7E000900D11249C012D5030400197809708F066
:10A7F000A5C0FB01E20FF31F898180838B818183D8
:10A800008D8182838F818383898584838E858583EF
:10A81000888986838A8987838C8980878E898187C6
:10A82000888D82878C8D83878E8D848787C0FB017E
:10A8300080818823A9F580E090E0282FFE01E80FB1
:10A84000F91F3081303249F0FB01E80FF91F3083E6
:10A850002F5F01968830910581F7FB01808185305B
:10A8600011F485EE808388858032B1F0FB01E20F20
:10A87000F11D8EE28083822F8F5FDE012C5FFD0150
:10A880009085903241F0FB01E80FF11D90838F5FBE
:10A8900011968217A1F7282FFB01E20FF11D1082FC
:10A8A000FA018081FB0180A38B8D90E0982F88278F
:10A8B0002A8D30E0822B932B96A385A32D8D30E03B
:10A8C00040E050E0542F432F322F22278E8D90E00E
:10A8D000A0E0B0E0DC0199278827282B392B4A2BF0
:10A8E0005B2B8C8D90E0A0E0B0E0282B392B4A2B1D
:10A8F0005B2B8F8D90E0A0E0B0E0B82FAA279927BE
:10A900008827282B392B4A2B5B2B27A330A741A75D
:10A9100052A78F8990E0982F88272E8930E0822BCC
:10A92000932B92A381A3898D90E0982F8827288D5F
:10A9300030E0822B932B94A383A303C081E090E0AB
:10A9400002C080E090E0DF91CF911F910F91FF90C6
:10A95000EF9008950F931F93CF93DF93CDB7DEB79A
:10A9600022970FB6F894DEBF0FBECDBFDC01892B56
:10A97000A9F16230710590F10D911C911197660F4C
:10A98000771F80E090E0FD01268137814085518569
:10A99000620F731F841F951FD801ED91FC9122E077
:10A9A00030E0AE014F5F5F4F09958823B9F08A818F
:10A9B00090E0382F2227898190E0282B392B211510
:10A9C000310571F0BFEF273F3B0741F0C9014096C9
:10A9D000079720F0EFEF283F3E0710F020E030E02F
:10A9E000C90122960FB6F894DEBF0FBECDBFDF912E
:10A9F000CF911F910F9108954F925F926F927F9226
:10AA00008F929F92AF92BF92CF92DF92EF92FF927E
:10AA10000F931F93CF93DF93CDB7DEB722970FB677
:10AA2000F894DEBF0FBECDBF5C01009709F44BC0A8
:10AA30006230710508F447C0FC016680778080842D
:10AA400091842E010894411C511C660F771F6B01E5
:10AA5000EE24FF24C60CD71CE81CF91CD501ED918F
:10AA6000FC910190F081E02D22E030E0A201C701CD
:10AA7000B6010995882339F18A8190E0182F0027C3
:10AA8000898190E0082B192B01151105F9F0C801F7
:10AA900040960897C0F0BFEF083F1B0710F000E09A
:10AAA00010E019821A82D501ED91FC910480F581A4
:10AAB000E02D22E030E0A201C701B6010995B801FE
:10AAC000012B21F0C2CF80E090E002C081E090E055
:10AAD00022960FB6F894DEBF0FBECDBFDF91CF91A7
:10AAE0001F910F91FF90EF90DF90CF90BF90AF90AC
:10AAF0009F908F907F906F905F904F9008952F92CE
:10AB00003F924F925F926F927F928F929F92AF92FD
:10AB1000BF92CF92DF92EF92FF920F931F93CF934A
:10AB2000DF93CDB7DEB72C970FB6F894DEBF0FBE1C
:10AB3000CDBF3C012B011A01009709F495C0DC013F
:10AB4000ED91FC91208131813C872B870480F58138
:10AB5000E02DFA87E987FC0186819781A085B18580
:10AB60008D839E83AF83B88782859385A485B585C1
:10AB7000B695A795979587959C838B836A01AA24A0
:10AB8000BB248824992444C0C401880F991F7C01E8
:10AB900000E010E02D813E814F815885E20EF31ECA
:10ABA000041F151F22E030E0AE014F5F5F4FC80168
:10ABB000B701AB85BC85FD010995882309F454C014
:10ABC0008981882311F58A818823F9F4C214D3047A
:10ABD00019F48FEF898303C0A9828B2D99278A836B
:10ABE00022E030E0AE014F5F5F4FC801B701E98559
:10ABF000FA850995882391F00894C108D108C114F9
:10AC0000D10411F454010CC054010894811C911C0E
:10AC10002B813C818216930609F0B6CFCD2801F531
:10AC200032E04316510410F1A9828B2D99278A83B3
:10AC3000440C551CB20180E090E02D813E814F8193
:10AC40005885620F731F841F951F22E030E0AE010C
:10AC50004F5F5F4FA985BA85FD010995882331F4BF
:10AC6000B501C3010E94FC54AA24BB24C5012C9643
:10AC70000FB6F894DEBF0FBECDBFDF91CF911F910D
:10AC80000F91FF90EF90DF90CF90BF90AF909F908B
:10AC90008F907F906F905F904F903F902F9008958E
:10ACA000CF92DF92EF92FF920F931F93CF93DF9398
:10ACB000CDB7DEB760970FB6F894DEBF0FBECDBF3D
:10ACC0007C016230710518F480E090E027C0FC013F
:10ACD000C088D188008111816250704080E090E08E
:10ACE000960140E050E00E9468779B01AC01F701BB
:10ACF00066897789808D918D620F731F841F951FE0
:10AD0000F801A681B781EE24FF2400E819E5960139
:10AD1000AE014F5F5F4FFD01099590E060960FB661
:10AD2000F894DEBF0FBECDBFDF91CF911F910F9181
:10AD3000FF90EF90DF90CF900895FC01892B11F0E8
:10AD40001182108208952F923F924F925F926F92DC
:10AD50007F928F929F92AF92BF92CF92DF92EF92AB
:10AD6000FF920F931F93CF93DF93CDB7DEB72C974E
:10AD70000FB6F894DEBF0FBECDBF3C0178876F835E
:10AD80005A874987009709F4FCC0672B09F4F9C07A
:10AD9000452B09F4F6C0FC01A1A8B2A8C3A8D4A809
:10ADA00021A532A543A554A569857A85CB01A0E0EC
:10ADB000B0E08A0D9B1DAC1DBD1D281739074A0741
:10ADC0005B0738F42A193B093A872987232B09F4B2
:10ADD000DBC0D3018D919C91FC01808991899A837C
:10ADE0008983F30105A8F6A9E02DFC87EB87BC0158
:10ADF00080E090E06B837C838D839E83EF2BE1F575
:10AE0000F30107A0F0A5E02DFC87EB87EF2B39F4C9
:10AE1000A114B104C104D10409F4B6C0B2C0A11494
:10AE2000B104C104D10441F1860175012B803C803D
:10AE30004D805E805094409430942094211C311CAD
:10AE4000411C511C10C06B857C85D3018D919C9158
:10AE50000E94AA549C878B87892B09F492C0E20C2C
:10AE6000F31C041D151D6B817C818D819E81E6166E
:10AE7000F7060807190738F7C601B5012B813C8191
:10AE80004D815E810E94BA772B0189849A84D30117
:10AE90008D919C91A980BA80A418B5088A149B044E
:10AEA00008F45401FC01C080D180720100E010E080
:10AEB00086899789A08DB18DE80EF91E0A1F1B1F88
:10AEC0002B853C8522503040B90180E090E02E5F18
:10AED0003F4F3C872B872B813C814D815E810E94B7
:10AEE0006877E60EF71E081F191FD601CD90DC907B
:10AEF00095014F815885C801B701F601099588234E
:10AF000039F18A189B08C501A0E0B0E0F30121A93E
:10AF100032A943A954A9280F391F4A1F5B1F21AB2F
:10AF200032AB43AB54ABC501840D951D29813A81E9
:10AF300082179307A0F06B857C85808191810E94A8
:10AF4000AA549C878B87892B41F4F30116AA15AA72
:10AF500049855A854819590919C0442455242B8517
:10AF60003C85F30136AB25AB8114910439F06F8138
:10AF700078856A0D7B1D78876F8389CF49855A85CF
:10AF800005C04FEF5FEF02C040E050E0CA012C96D1
:10AF90000FB6F894DEBF0FBECDBFDF91CF911F91EA
:10AFA0000F91FF90EF90DF90CF90BF90AF909F9068
:10AFB0008F907F906F905F904F903F902F9008956B
:10AFC000FC01892B11F0118210820895FC01892B5C
:10AFD00019F480E090E0089512AA11AA81E090E0AF
:10AFE00008958F929F92AF92BF92CF92DF92EF928D
:10AFF000FF920F931F93CF93DF93CDB7DEB72C97BC
:10B000000FB6F894DEBF0FBECDBF6C015B01892B7C
:10B0100009F452C06115710509F44EC0FB01E3A4A7
:10B02000F4A405A516A5E114F1040105110509F420
:10B0300043C04E010894811C911CD601ED91FC91F6
:10B040000190F081E02D2CE030E0A401C801B701AF
:10B050000995882389F185EE8983D601ED91FC91CC
:10B060000480F581E02D2CE030E0A401C801B70197
:10B070000995882309F18C858F3049F480E290E0AE
:10B08000A0E0B0E0E80EF91E0A1F1B1FD6CFF501A5
:10B0900065A176A16115710519F481E090E00AC0FF
:10B0A000C6010E94FC5420E030E0882311F021E02A
:10B0B00030E0C90190E002C080E090E02C960FB62D
:10B0C000F894DEBF0FBECDBFDF91CF911F910F91DE
:10B0D000FF90EF90DF90CF90BF90AF909F908F90B8
:10B0E0000895CF93DF93FC01DB01EA01892BB1F0D6
:10B0F00083A194A1892F992786958454984F8D9385
:10B100009C9383A194A1A5E096958795AA95E1F7D4
:10B110008F70888383A18F71F9018083DF91CF9134
:10B120000895CF93DF93FC01DB01EA01892BD1F075
:10B1300081A192A1892F99278695869586958F71F1
:10B140008C9381A192A165E0969587956A95E1F728
:10B150008F73888381A192A18F719070880F991F3E
:10B16000F9018083DF91CF910895FC01892B29F4A7
:10B1700060E070E080E090E00895628573858485EA
:10B180009585969587957795679562507040804034
:10B1900090402089318940E050E00E94687708950E
:10B1A0002F923F924F925F926F927F928F929F92D7
:10B1B000AF92BF92CF92DF92EF92FF920F931F93C5
:10B1C000CF93DF93CDB7DEB7A5970FB6F894DEBF68
:10B1D0000FBECDBF1C01892B09F456C01A821982FB
:10B1E00080E28B83F1014680578060847184828481
:10B1F0009384A484B58437C0FEEF8F16FFEF9F06BB
:10B20000F0E0AF06F0E0BF0628F02EEF3FEF3DA3E1
:10B210002CA302C09DA28CA2D101ED91FC910280D1
:10B22000F381E02D6E010894C11CD11CB1E6EB2E18
:10B23000B9E5FB2E0CA11DA120E230E0AE014C5F70
:10B240005F4FC301B20109958823F1F00CA11DA144
:10B25000C801A0E0B0E0480E591E6A1E7B1E881A85
:10B26000990AAA0ABB0A81149104A104B10421F627
:10B27000F1016089718980E090E029813A8140E0A4
:10B2800050E00E94687704C060E070E080E090E0E9
:10B29000A5960FB6F894DEBF0FBECDBFDF91CF915C
:10B2A0001F910F91FF90EF90DF90CF90BF90AF90E4
:10B2B0009F908F907F906F905F904F903F902F90D6
:10B2C0000895AC01D901F9016281FC0112C08181AC
:10B2D00090E0982F8827208130E0822B932B892BB8
:10B2E00039F48D919C911197019611969C938E93B0
:10B2F00032968E2F841B861750F381E090E00895DC
:10B3000020E1FC0111922A95E9F780E190E008958F
:10B310002F923F924F925F926F927F928F929F9265
:10B32000AF92BF92CF92DF92EF92FF920F931F9353
:10B33000CF93DF93CDB7DEB7E5970FB6F894DEBFB6
:10B340000FBECDBF1C017DA76CA7009709F4F7C005
:10B35000672B09F4F4C0FC0167A070A421A932A9ED
:10B360003FA72EA7408051806114710409F050C09E
:10B370004114510409F4E0C0D201ED91FC91A28086
:10B38000B3809E012F5F3F4F89E0F90111928A95AA
:10B39000E9F78EA59FA59C838B83F201628973894F
:10B3A0008489958906891789061B170BFAE08F2E69
:10B3B000912C8C0E9D1E6901E4E8EE2EE3E5FE2E35
:10B3C00020E230E0A401F5010995882309F4B4C016
:10B3D0004D805E806F807884411451046104710453
:10B3E00009F4AAC08FE2ACA5BDA51D928A95E9F724
:10B3F000098510E0CCA4DDA475EBE72E73E5F72EEC
:10B4000020E230E0A401C301B201F501099584C036
:10B410004114510409F490C0FC0182A184FF8CC046
:10B42000F2010088F189E02DFBA7EAA7CF01A0E097
:10B43000B0E088AB99ABAAABBBABFE013196FDABDC
:10B44000ECAB2EEF3FEF620E731EB30180E090E095
:10B45000A2E0B0E06A0E7B1E28A939A94AA95BA91F
:10B460000E946877F20186889788A08CB18C860E3E
:10B47000971EA81EB91E89E0ACA9BDA91D928A9588
:10B48000E9F7EEA5FFA5FC83EB83D201ED91FC91DA
:10B49000AE01465F5F4F0280F381E02D6E0108949C
:10B4A000C11CD11C64E8E62E63E5F62E0AA51BA597
:10B4B00020E230E0C501B40109958823E9F18D80CF
:10B4C0009E80AF80B88481149104A104B10441F43A
:10B4D000B301C2010E94AA543C01892B69F1B1CF8A
:10B4E0008FE2ECA5FDA511928A95E9F7D201ED91C5
:10B4F000FC91098510E00280F381E02DCCA4DDA44D
:10B5000035EBE32E33E5F32E20E230E0AE01465F6B
:10B510005F4FC501B4010995882371F0ECA5FDA525
:10B520008081882349F0F10181A992A9019692AB0B
:10B5300081AB81E090E005C0F10112AA11AA80E080
:10B5400090E0E5960FB6F894DEBF0FBECDBFDF9159
:10B55000CF911F910F91FF90EF90DF90CF90BF9010
:10B56000AF909F908F907F906F905F904F903F90A3
:10B570002F9008952F923F924F925F926F927F92F9
:10B580008F929F92AF92BF92CF92DF92EF92FF92F3
:10B590000F931F93CF93DF93CDB7DEB7AC970FB662
:10B5A000F894DEBF0FBECDBF6C01009709F4A2C1B5
:10B5B000FC0184819581892B09F49CC18681978146
:10B5C000892B09F497C10FEC11E01CA70BA7809100
:10B5D000CF019091D001892B09F08CC18AE1D8016B
:10B5E0001D928A95E9F7D092D001C092CF010185D2
:10B5F00012852385348589E0000F111F221F331F18
:10B600008A95D1F70AA31BA32CA33DA3C901B801B6
:10B61000655F7F4F8F4F9F4F0190F081E02D29E1B3
:10B6200030E0AE014F5F5F4F0995882309F45EC19A
:10B6300029813A80FB81F8A74C813D815E812F8072
:10B6400048845984AA848D8590E0F82FEE278C8554
:10B6500090E0E82BF92BEE888F89688D798D3097F3
:10B6600009F444C190E0A0E0B0E06624782E892E71
:10B670009A2E862F90E0A0E0B0E0DC019927882781
:10B68000682A792A8A2A9B2A8E2D90E0A0E0B0E0D1
:10B69000682A792A8A2A9B2A872F90E0A0E0B0E0C6
:10B6A000B82FAA2799278827682A792A8A2A9B2AC5
:10B6B000611471048104910479F48A2D90E0782F4B
:10B6C0006627852D90E0682B792B6115710509F4AB
:10B6D0000DC13B0188249924832D90E0982F882761
:10B6E0009FA38EA3822F90E00EA11FA1082B192BE0
:10B6F0001FA30EA3842D90E0982F88279AA789A7CF
:10B70000822D90E069A57AA5682B792B7AA769A785
:10B71000832F90E0982F8827242F30E0822B932BC3
:10B720008C0120E030E00A8F1B8F2C8F3D8FBF01F2
:10B7300080E090E0252F30E040E050E00E94687704
:10B740006E8F7F8F88A399A3840173012A8D3B8D0F
:10B750004C8D5D8DE21AF30A040B150BE61AF70AFD
:10B76000080B190B8EA19FA1019729A53AA545E0C9
:10B77000220F331F4A95E1F7820F931F6EA17FA11D
:10B780000E94937780E090E0E61AF70A080B190B05
:10B7900068A5262F30E040E050E0C801B7010E94C4
:10B7A000BA7719012A01DA01C901855F9F40A040DB
:10B7B000B0408050904FA040B04008F097C086E065
:10B7C000F60180870BA51CA50E5F1F4F88E1D801ED
:10B7D0001D928A95E9F7025010401CA70BA7EEA115
:10B7E000FFA15F01CC24DD24C401B301A6019501B2
:10B7F0000E9468776093D1017093D2018093D30146
:10B800009093D401C601B5012A8D3B8D4C8D5D8D81
:10B810000E9468777B018C012AA13BA14CA15DA10C
:10B82000E20EF31E041F151FE092D501F092D6011F
:10B830000093D7011093D801220C331C441C551CD3
:10B8400044E050E060E070E0240E351E461E571EB6
:10B850002092D9013092DA014092DB015092DC0152
:10B860006EA17FA17093DE016093DD0178A5872F23
:10B8700090E0AEA1BFA1FC01AE9FC001AF9F900DB3
:10B88000BE9F900D11249093E0018093DF016E8D97
:10B890007F8D88A199A1A60195010E9468776E0D00
:10B8A0007F1D801F911F6093E1017093E2018093DF
:10B8B000E3019093E40109A51AA5980140E050E046
:10B8C000A5E0220F331F441F551FAA95D1F7620F21
:10B8D000731F841F951F6093E5017093E6018093A9
:10B8E000E7019093E8018BA59CA506C01092D001BA
:10B8F0001092CF0180E090E0AC960FB6F894DEBFD6
:10B900000FBECDBFDF91CF911F910F91FF90EF90B0
:10B91000DF90CF90BF90AF909F908F907F906F906F
:10B920005F904F903F902F9008952F923F924F92AB
:10B930005F926F927F928F929F92AF92BF92CF92BF
:10B94000DF92EF92FF920F931F93CF93DF93CDB7C8
:10B95000DEB723970FB6F894DEBF0FBECDBF1C0134
:10B960009B01892B09F4C2C04115510509F4BEC0E1
:10B97000FA0101900020E9F7E41BF50BCF010B96CB
:10B980006DE070E00E9493776F5F6B83F90147A0D1
:10B9900050A44114510451F0662477244301AA2491
:10B9A000BB246501EE24FF2487010BC0F101A288AE
:10B9B000B388C488D588E688F788008D118D350155
:10B9C00046011A82AE14BF04C006D10609F05EC05B
:10B9D0004114510409F48AC0A114B104C104D10472
:10B9E00079F1B201C1010E94AA54009741F541E0EA
:10B9F00050E0B201C1010E947F558C01892B09F4EE
:10BA000075C002501040B80180E090E00E5F1F4FFB
:10BA1000F1012089318940E050E00E9468773B01C4
:10BA20004C01F10186899789A08DB18D680E791E30
:10BA30008A1E9B1EB801C1010E9450565AC02C019B
:10BA4000F101E088F18800E010E02EEF3FEF420EB8
:10BA5000531EB20180E090E0A2E0B0E04A0E5B1E0F
:10BA6000A80197010E9468775B016C01F10186894A
:10BA70009789A08DB18DA80EB91ECA1EDB1EEA0CD7
:10BA8000FB1C0C1D1D1D350146011A82D101ED91D3
:10BA9000FC910190F081E02D21E030E0AE014F5F9C
:10BAA0005F4FC601B5010995882301F18981853E63
:10BAB00011F0882379F4BA81BF5FBA83EB81BE1796
:10BAC000C0F480E290E0A0E0B0E0A80EB91ECA1E6B
:10BAD000DB1E78CF90E2692E712C812C912C6A0CA0
:10BAE0007B1C8C1C9D1C640153016BCF6624772446
:10BAF0004301C401B30123960FB6F894DEBF0FBE15
:10BB0000CDBFDF91CF911F910F91FF90EF90DF900C
:10BB1000CF90BF90AF909F908F907F906F905F90ED
:10BB20004F903F902F9008954F925F927F928F9207
:10BB30009F92AF92BF92CF92DF92EF92FF920F93BC
:10BB40001F93CF93DF93CDB7DEB7A7970FB6F894C7
:10BB5000DEBF0FBECDBF5C016B01892B09F46EC146
:10BB6000672B09F46BC1E5E0EE2EF12CEC0EFD1E07
:10BB70008E010C5F1F4F9E012D5F3F4FAE014E5F48
:10BB80005F4FBE016F5F7F4FCE0106960E94604FF0
:10BB90002E813F812C5B3740322F2227330F898142
:10BBA00090E065E0880F991F6A95E1F7282B392B03
:10BBB0008A8190E0282B392BF60134A323A32C8112
:10BBC00030E055E0220F331F5A95E1F78B8190E06A
:10BBD000982F8827990F990F990F282B392B8D8132
:10BBE000869590E0282B392B32A321A3D501ED9126
:10BBF000FC9144805580F60183A494A4A5A4B6A426
:10BC000001900020E9F731971E2F1C19812F90E039
:10BC10000C966DE070E00E94A777762E08E0E02E8B
:10BC2000F12CEC0EFD1E4BE050E060E270E0C7012D
:10BC30000E945E736EE270E0C6010E94EB73FC012D
:10BC40000097C1F0DC0111968181882399F0FD01F4
:10BC500001900020E9F73197EA1BFB0B1E1B1150E6
:10BC6000C70108964E2FE43008F043E050E0BD01D4
:10BC70000E944373CE010896193088F4412F50E09A
:10BC8000B6010E944373D6018C918E3219F5F601EC
:10BC900081818E3209F482818823D9F01BC0DC01B6
:10BCA000F60188E001900D928150E1F7F60185A13F
:10BCB000982F92959F70803A10F4905D01C09F5923
:10BCC0008F708A3010F4805D01C08F599E878F87F6
:10BCD00001C077248885853E11F485E0888713E1CB
:10BCE000E12EF12CEC0EFD1E85E1D7011D928A9507
:10BCF000E9F7F60180A18B8B81A192A18E8F892F0C
:10BD000099278F8F83A194A188A3892F992789A32D
:10BD100085A196A18AA3892F99278BA387A190A596
:10BD2000A1A5B2A58CA3292F3A2F4B2F55272DA3C0
:10BD30009D01442755272EA38B2F9927AA27BB2780
:10BD40008FA3672D70E080E090E035E0660F771FED
:10BD5000881F991F3A95D1F7680D791D8A1D9B1D83
:10BD600020E230E0AE01485F5F4FF2010995882381
:10BD700009F464C00885FE0139969701802F8695E5
:10BD8000079500270795082B8191080FE217F30705
:10BD9000A9F7172D28E0E22EF12CEC0EFD1E83EF03
:10BDA0009FEFC80ED91E44C040E250E06FEF70E034
:10BDB000C7010E945E738DE0189FD0011124AC0D65
:10BDC000BD1D91E0F701E90FF11D8C918083892F52
:10BDD0008F5FF701E80FF11D10829E5F9B3021F00D
:10BDE0009A3119F49CE101C09EE08C91882321F0E6
:10BDF0009F3110F41196E6CF1887171519F4812F8B
:10BE0000806488878FE08B8B0D8B1C8A1AA21BA203
:10BE100020E230E0A701C501B401F201099580E2FA
:10BE200090E0A0E0B0E0880E991EAA1EBB1E115043
:10BE3000112309F0B9CF81E090E002C080E090E0EA
:10BE4000A7960FB6F894DEBF0FBECDBFDF91CF919E
:10BE50001F910F91FF90EF90DF90CF90BF90AF9028
:10BE60009F908F907F905F904F9008954F925F9238
:10BE70006F927F928F929F92AF92BF92CF92DF92FA
:10BE8000EF92FF920F931F93CF93DF93CDB7DEB75F
:10BE90002E970FB6F894DEBF0FBECDBF7C012A01EE
:10BEA0003B01009709F4E2C0FC01C7A0D0A40190B7
:10BEB000F081E02D80899189C114D10431F44115BC
:10BEC00051056105710509F4BDC0530142019C0192
:10BED00040E050E02F83388749875A875095409536
:10BEE000309521953F4F4F4F5F4F2B873C874D87B4
:10BEF0005E8711C0B601D7018D919C910E94AA5412
:10BF00000097B9F02B853C854D855E85820E931E8A
:10BF1000A41EB51E6C018F819885A985BA858B8377
:10BF20009C83AD83BE8388159905AA05BB0510F3D4
:10BF3000A0C0C501B4012B813C814D815E810E946E
:10BF4000BA778901B90180E090E02B813C814D8175
:10BF50005E810E946877681579058A059B0510F453
:10BF60000F5F1F4FA801B601D7018D919C910E94D0
:10BF70007F55009709F47AC0C114D10421F4F70168
:10BF800090A787A36C01F70141A652A663A674A6E9
:10BF9000411451046104710411F410A617A2B701F1
:10BFA0006E5F7F4FD7018D919C910E94945D882395
:10BFB00009F45CC0411451046104710429F4B60110
:10BFC000F701808191813CC02B813C814D815E8154
:10BFD000281539054A055B05A8F1D7010D911C917B
:10BFE0000115110579F1B2E0CB16D10458F1B60173
:10BFF000C8010E94AA545C018FEF89838A83F801EB
:10C0000080809180CC0CDD1CB60180E090E0268120
:10C01000378140855185620F731F841F951FF4017E
:10C02000A481B58122E030E0AE014F5F5F4FFD019A
:10C030000995882339F0A114B10421F0B501C80194
:10C040000E94FC54F70181A992A9A3A9B4A948169A
:10C0500059066A067B0638F4F70141AA52AA63AA78
:10C0600074AA16AA15AA81E090E008C080E090E0CA
:10C0700005C0C114D10409F45CCF85CF2E960FB64C
:10C08000F894DEBF0FBECDBFDF91CF911F910F910E
:10C09000FF90EF90DF90CF90BF90AF909F908F90E8
:10C0A0007F906F905F904F900895CF92DF92EF92C4
:10C0B000FF920F931F93CF93DF93EC016B01892BBA
:10C0C00009F446C06115710509F442C089A99AA90D
:10C0D000ABA9BCA9413059F0413018F04230C1F54C
:10C0E0000CC0FB01E080F1800281138113C0FB01D1
:10C0F000E080F1800281138109C0FB01E080F180C2
:10C100000281138189A59AA5ABA5BCA5E80EF91EED
:10C110000A1F1B1F89A59AA5ABA5BCA58E159F0557
:10C12000A007B10738F4B801A701CE010E94365F1D
:10C13000882371F0E9AAFAAA0BAB1CAB1EAA1DAAB0
:10C14000F601E082F1820283138381E090E002C075
:10C1500080E090E0DF91CF911F910F91FF90EF90E1
:10C16000DF90CF9008952F923F924F925F926F92FF
:10C170007F928F929F92AF92BF92CF92DF92EF9277
:10C18000FF920F931F93CF93DF93CDB7DEB72A971C
:10C190000FB6F894DEBF0FBECDBF5C011B01588700
:10C1A0004F83009709F43CC1672B09F439C1452B33
:10C1B00009F436C1FC0161A872A883A894A881A5DE
:10C1C00092A5A3A5B4A586159705A805B90508F4F9
:10C1D00027C120813181F9010088F189E02DFA839E
:10C1E000E983F50105A8F6A9E02DFA87E987A98179
:10C1F000BA81CD01A0E0B0E08B839C83AD83BE8388
:10C20000EF2B09F059C0F50107A0F0A5E02DFA8742
:10C21000E987EF2BA9F4611471048104910409F0FA
:10C22000FFC041E050E060E070E0C9010E947F552E
:10C230009A878987F50190A787A3892B09F4F0C015
:10C24000F501E1A8F2A803A914A9E114F10401057C
:10C25000110549F531C08B819C81AD81BE81E81A01
:10C26000F90A0A0B1B0B69857A85D5018D919C9182
:10C270000E94AA54009719F09A87898714C0E11484
:10C28000F1040105110509F0CBC041E050E06985DA
:10C290007A85F501808191810E947F55009709F48C
:10C2A000BFC09A8789878B819C81AD81BE81E8164A
:10C2B000F9060A071B0778F6C401B3012B813C81FC
:10C2C0004D815E810E94BA772B016F807884D50101
:10C2D0008D919C9189809A808418950868147904BE
:10C2E00008F44301FC01C080D180720100E010E03D
:10C2F00086899789A08DB18DE80EF91E0A1F1B1F34
:10C3000029853A8522503040B90180E090E02E5FC7
:10C310003F4F3A8729872B813C814D815E810E9466
:10C320006877E60EF71E081F191FF601A481B58174
:10C330009401A101C801B701FD010995882309F401
:10C3400046C068187908C401A0E0B0E0F50121A951
:10C3500032A943A954A9280F391F4A1F5B1F21ABDB
:10C3600032AB43AB54ABC401840D951D29813A8196
:10C370008217930708F169857A85808191810E94EF
:10C38000AA54009719F09A87898714C06114710420
:10C3900059F041E050E069857A85D5018D919C91F5
:10C3A0000E947F55009721F4F50116AA15AA0FC027
:10C3B0009A8789874424552429853A85F50136AB27
:10C3C00025AB6114710419F0280C391C80CFF501DC
:10C3D00081A992A9A3A9B4A9E1A4F2A403A514A5D3
:10C3E000E816F9060A071B07B0F481A792A7A3A7CE
:10C3F000B4A7B5016E5F7F4F808191810E94945DEB
:10C40000882349F4F50161A872A86E187F08E1AA93
:10C41000F2AA03AB14AB8F8198858619970902C0E5
:10C420008FEF9FEF2A960FB6F894DEBF0FBECDBFF9
:10C43000DF91CF911F910F91FF90EF90DF90CF9000
:10C44000BF90AF909F908F907F906F905F904F9034
:10C450003F902F900895CF93DF939C01DB01892BB0
:10C4600069F16115710551F1FB0180A184FF26C0BE
:10C470008091590290915A02892B19F4E9E5F2E072
:10C4800011C080918C0290918D02892B19F4ECE8F7
:10C49000F2E008C08091BF029091C002892B71F434
:10C4A000EFEBF2E0EF0122968FE20D9009928150BE
:10C4B000E1F73183208312AA11AA02C0E0E0F0E084
:10C4C000CF01DF91CF910895CF93DF93AC01EB01C2
:10C4D000892B69F1672B59F188A184FD28C08091CF
:10C4E000E9019091EA01892B19F4E9EEF1E008C025
:10C4F0008091210290912202892BC9F4E1E2F2E0BD
:10C50000CF010296BE012FE2DB010D90BD01DC01DF
:10C510000D92CD012150C1F75183408311AA12AA77
:10C5200013AA14AA8DA19EA196AB85AB02C0E0E030
:10C53000F0E0CF01DF91CF910895CF92DF92EF929B
:10C54000FF920F931F93CF93DF937C018B01EA013E
:10C55000892B09F443C06115710509F43FC0FB0143
:10C5600080818823D9F1452BC9F1BE01C7010E9402
:10C570008859882351F0BE01C8010E94B373892BEA
:10C58000A1F7F70112AA11AA29C0F701C080D18032
:10C590008FE2FE0111928A95E9F74FE150E0B80170
:10C5A000CE010E94D173AE01B701C6010E94955C15
:10C5B0006BA77CA78DA79EA76115710581059105C5
:10C5C00069F0BE01C6010E94945D90E0882309F4E1
:10C5D00091E081E09827892F90E002C080E090E010
:10C5E000DF91CF911F910F91FF90EF90DF90CF904F
:10C5F00008956F927F928F929F92AF92BF92CF9247
:10C60000DF92EF92FF920F931F93CF93DF933C0142
:10C610008B017A01892B09F461C06115710509F458
:10C620005DC0FB018081882309F458C0452B09F4C3
:10C6300055C08F3211F40F5F1F4F8FE2F701119237
:10C640008A95E9F780E1F70180A3F80180818823CA
:10C6500009F447C0B701C3010E942B625C01892B1A
:10C66000E9F16FE270E0C8010E94A8736C01892BA8
:10C6700041F4F80101900020E9F76F010894C10826
:10C68000D1088C2D801B882E992421C0E7010990A8
:10C690000020E9F72197CE19DF09C815D905B9F4AB
:10C6A000AE01B701C8010E94C373892B81F4F50163
:10C6B00011821082C00FD11F8881882391F0F70169
:10C6C00080A184FF0BC086010F5F1F4FC3CFB7014E
:10C6D000C5010E9488598823C9F606C080E090E011
:10C6E00007C081E090E004C0F50111821082B2CF52
:10C6F000DF91CF911F910F91FF90EF90DF90CF903E
:10C70000BF90AF909F908F907F906F9008959F9271
:10C71000AF92BF92CF92DF92EF92FF920F931F934F
:10C72000CF93DF936C015B01EA01892B09F495C07B
:10C730006115710509F491C0FB018081882309F41A
:10C740008CC0452B09F489C0BE01C6010E948859DE
:10C75000882351F0BE01C5010E94B373892BA1F754
:10C76000F60112AA11AA79C0F601E080F18041E039
:10C7700050E060E070E0C7010E947F558C01009797
:10C7800009F46BC0BC01C7010E9450568FE2FE0144
:10C7900011928A95E9F780E188A302501040B80110
:10C7A00080E090E00E5F1F4FF7012089318940E063
:10C7B00050E00E946877F70126893789408D518DB6
:10C7C000260F371F481F591F2BA73CA74DA75EA751
:10C7D000BEE29B2E98821EA30DA3BE01C7010E943C
:10C7E000945D8823B1F18BA59CA5ADA5BEA58096CF
:10C7F000A11DB11D8BA79CA7ADA7BEA79982F6016D
:10C8000087A190A59EA38DA3BE01C7010E94945D40
:10C810008823F9F04FE150E0B501CE010E94D173B9
:10C820001EA30DA3AE01B601C7010E94955C6BA7C4
:10C830007CA78DA79EA7611571058105910549F01B
:10C84000BE01C7010E94945D882319F081E090E049
:10C8500006C0B801C7010E94FC5480E090E0DF915F
:10C86000CF911F910F91FF90EF90DF90CF90BF90ED
:10C87000AF909F90089580B190E026E096958795BF
:10C880002A95E1F78095909581709070089580E0E9
:10C8900090E008958EBD0DB407FEFDCF8DB58F7766
:10C8A0008DBD08958FEF8EBD0DB407FEFDCF8DB504
:10C8B0008F778DBD8EB590E00895DF92EF92FF9255
:10C8C0000F931F93D82E7A018B01299A0E945264EC
:10C8D00029988D2D80640E944A64812F9927AA2768
:10C8E000BB270E944A64C801AA27BB270E944A644A
:10C8F000BB27A12F902F8F2D0E944A648E2D0E945E
:10C900004A64DD2011F485E901C08FEF0E944A647A
:10C9100010E00E9452648F3F19F41F5F1A3FC9F75D
:10C9200090E01F910F91FF90EF90DF900895CF92CC
:10C93000DF92EF92FF920F931F93CF93DF93EC015F
:10C94000892B81F089E1FE0111928A95E9F72998F6
:10C9500040E050E060E070E08AE00E945D6488237F
:10C9600021F0299A80E090E0DAC00E9452648E3F64
:10C97000E1F78E01B0E6EB2EF12C0E945264282FD5
:10C98000802F8C1B883028F4833090F4882359F052
:10C990000CC08D3018F4893080F40DC08D3029F131
:10C9A0008E3079F526C028832CC0F801208329C059
:10C9B000F801218326C02A8724C030E040E050E0FF
:10C9C0000E2C04C0220F331F441F551F0A94D2F7A8
:10C9D0008B859C85AD85BE85822B932BA42BB52B97
:10C9E0008B879C87AD87BE870CC02295207F2F87C1
:10C9F00008C0922F92959F708F85892B8F872F70FB
:10CA0000288B0F5F1F4F88EF9FEFE80EF91E90ED08
:10CA1000E9169FEFF90609F0B0CF40E050E060E082
:10CA200070E089E00E945D64882309F09ACF0E943B
:10CA300052648E3FE1F7CC24DD24EE24FF2400E095
:10CA400010E00E945264083021F1093040F40630B1
:10CA500091F00730B0F4053009F058C008C00A3032
:10CA600041F10A3008F10E3009F050C03AC0AFE091
:10CA7000CA2EC8224BC090E083709070F82EEE242E
:10CA800045C090E0E82AF92AEE0CFF1CEE0CFF1CD2
:10CA90003DC0829586958695837090E0E82AF92AB4
:10CAA0000894E11CF11C32C073E0D72ED822DD0CB3
:10CAB0002DC0881F8827881FD82A970140E050E0A2
:10CAC0008C2D90E002968D0D911D04C0220F331F16
:10CAD000441F551F8A95D2F7298B3A8B4B8B5C8B61
:10CAE00015C0282F30E086FF02C081E08D8B25FF26
:10CAF00002C081E08E8B24FF02C081E08F8B2C70FE
:10CB000030703595279535952795288F0F5F1F4FE6
:10CB10000231110509F095CF299A81E090E0DF916B
:10CB2000CF911F910F91FF90EF90DF90CF900895DC
:10CB30002F923F924F925F926F927F928F929F922D
:10CB4000AF92BF92CF92DF92EF92FF920F931F931B
:10CB5000CF93DF93CDB7DEB724970FB6F894DEBF3F
:10CB60000FBECDBF2B013C015A8349833C832B83ED
:10CB700090C0812C8EEF982E8FEFA82E8FEFB82EBD
:10CB800084209520A620B7200FEFC02E01E0D02EE4
:10CB9000C420D520212C12E0312E2C183D088B8189
:10CBA0009C818215930508F41C01E090F204F0903A
:10CBB000F3040091F4041091F5048E149F04A00670
:10CBC000B10609F449C08091F604882351F420E0AD
:10CBD00032E042EF52E0C801B7010E946966882343
:10CBE00049F02998B501A40181E10E945D64882380
:10CBF00021F0299A80E090E053C00E9452648E3F59
:10CC0000E1F702EF12E00E945264F80181938F0174
:10CC1000F4E0023F1F07B9F78092F2049092F30408
:10CC2000A092F404B092F50482EF92E0C80ED91EEF
:10CC3000A101B60189819A810E944373E981FA8139
:10CC4000E20DF31DFA83E9830E9452640E9452644C
:10CC5000299A0E94526410C082EF92E0C80ED91E39
:10CC6000A101B60189819A810E944373E981FA8109
:10CC7000E20DF31DFA83E9838B819C81821993096C
:10CC80009C838B83C101A0E0B0E0480E591E6A1E50
:10CC90007B1EEB81FC81EF2B09F06BCF81E090E0F4
:10CCA00024960FB6F894DEBF0FBECDBFDF91CF91B3
:10CCB0001F910F91FF90EF90DF90CF90BF90AF90BA
:10CCC0009F908F907F906F905F904F903F902F90AC
:10CCD00008952F923F924F925F926F927F928F9220
:10CCE0009F92AF92BF92CF92DF92EF92FF920F93FB
:10CCF0001F93CF93DF93CDB7DEB724970FB6F89489
:10CD0000DEBF0FBECDBF3B014C015A8349831901E1
:10CD10009BC0A12C3EEFB32E3FEFC32E3FEFD32E8F
:10CD2000A620B720C820D920C30191709C838B8393
:10CD3000412C22E0522E481A590A2414350408F4D2
:10CD40002101E090F204F090F3040091F4041091BA
:10CD5000F504AE14BF04C006D10659F18091F60463
:10CD6000882359F420E032E042EF52E0C801B701D5
:10CD70000E946966882309F46CC0EB81FC81EF2B6B
:10CD800029F4F0E04F16F2E05F0658F420E032E0BC
:10CD900042EF52E0C601B5010E949865882309F46C
:10CDA00058C0A092F204B092F304C092F404D0925E
:10CDB000F50489819A81E2E0823F9E0771F0A20129
:10CDC000BC018B819C818E509D4F0E9443731092B9
:10CDD000F6042414350409F43FC02998B601A501CE
:10CDE00088E10E945D64882311F0299A32C08EEF99
:10CDF0000E944A6402EF12E0F80181918F010E94C3
:10CE00004A64F4E0023F1F07B9F78FEF0E944A64BB
:10CE10008FEF0E944A640E9452648F3FE1F789813C
:10CE20009A81840D951D9A8389830E945264299A60
:10CE300024183508C201A0E0B0E0680E791E8A1EF1
:10CE40009B1E81E08093F6042114310409F061CF28
:10CE500003C080E090E002C081E090E024960FB62D
:10CE6000F894DEBF0FBECDBFDF91CF911F910F9120
:10CE7000FF90EF90DF90CF90BF90AF909F908F90FA
:10CE80007F906F905F904F903F902F90089580918A
:10CE9000F604882319F081E090E008956091F2048F
:10CEA0007091F3048091F4049091F50420E032E055
:10CEB00042EF52E00E94696690E0882309F491E015
:10CEC00081E09827892F90E008954F925F926F92AA
:10CED0007F928F929F92AF92BF92CF92DF92EF920A
:10CEE000FF920F931F93CF93DF935B016C014A0175
:10CEF000E90138012701452B61F1012B51F1FF2494
:10CF0000232B11F5FF24F3941FC09201B601A50154
:10CF1000C401F30109958C010097F1F0FF2019F489
:10CF2000C817D907B0F09801A401C601B5010E9445
:10CF30006966882371F0C801A0E0B0E0A80EB91EB0
:10CF4000CA1EDB1EC01BD10BFF20F9F62097E9F6A5
:10CF500003C080E090E002C081E090E0DF91CF91DB
:10CF60001F910F91FF90EF90DF90CF90BF90AF9007
:10CF70009F908F907F906F905F904F9008952F9229
:10CF80003F924F925F926F927F928F929F92AF9259
:10CF9000BF92CF92DF92EF92FF920F931F93CF93A6
:10CFA000DF93CDB7DEB724970FB6F894DEBF0FBE80
:10CFB000CDBF4B015C013A013C832B832701DA8210
:10CFC000C982452BA1F12115310589F102171307FB
:10CFD00070F1EF2861F119013094219431083394F4
:10CFE000021B130B6901EE24FF242B813C81A3015A
:10CFF000C501B4010E9498658823C9F029813A814E
:10D00000B501A401C301F2010995882399F0020D2D
:10D01000131D8B819C81800F911F2B813C81821776
:10D02000930740F08C0C9D1CAE1CBF1CDECF80E033
:10D0300090E002C081E090E024960FB6F894DEBF45
:10D040000FBECDBFDF91CF911F910F91FF90EF9059
:10D05000DF90CF90BF90AF909F908F907F906F9018
:10D060005F904F903F902F9008951F93CF93DF9341
:10D070000E98169A069B03C083E090E062C0269843
:10D08000279A259A219A249A299A80E000008F5F96
:10D09000883CE1F783E58CBD1DBC10E00E94526422
:10D0A0001F5F1F3051F0FACFC93CD10511F0219616
:10D0B00006C0299A81E090E044C0C0E0D0E040E0A2
:10D0C00050E060E070E080E00E945D64813061F7D4
:10D0D0000AC08CE9C134D80711F0219606C0299AFC
:10D0E00082E090E02EC0C0E0D0E040E050E060E0A0
:10D0F00070E081E00E945D64882359F78CB58C7FD5
:10D100008CBD8DB581608DBD8FEF9FEFAFEFBFEF11
:10D110008093F2049093F304A093F404B093F50485
:10D1200081E08093F60420E032E042EF52E060E0DC
:10D1300070E080E090E00E9498658111299A80E07B
:10D1400090E0DF91CF911F910895FC01892B19F494
:10D1500080E090E00895108681E090E008958F923D
:10D160009F92AF92BF92CF92DF92EF92FF920F9376
:10D17000CF93DF93CDB7DEB760970FB6F894DEBFDD
:10D180000FBECDBF7C016B015A014901892B09F407
:10D19000AAC0672B09F4A7C004300CF0A4C007FD97
:10D1A0001DC0602F772767FD7095E4E0660F771F3D
:10D1B000EA95E1F762547E4F882777FD8095982F96
:10D1C00020E130E0AE014F5F5F4FF7010995882302
:10D1D00009F489C08D81882309F485C08091AD0C44
:10D1E000882309F080C0E5EAFCE081E1DF011D92BF
:10D1F0008A95E9F7F092A60CE092A50CD092A80CC3
:10D20000C092A70CB092AA0CA092A90C9092AC0C60
:10D210008092AB0C07FD62C08D818093AD0C2A8596
:10D2200030E040E050E0542F432F322F22278B85EF
:10D2300090E0A0E0B0E0DC0199278827282B392B6B
:10D240004A2B5B2B898590E0A0E0B0E0282B392B9E
:10D250004A2B5B2B8C8590E0A0E0B0E0B82FAA278A
:10D2600099278827282B392B4A2B5B2B2093AE0C30
:10D270003093AF0C4093B00C5093B10C2E8530E03E
:10D2800040E050E0542F432F322F22278F8590E02B
:10D29000A0E0B0E0DC0199278827282B392B4A2B06
:10D2A0005B2B8D8590E0A0E0B0E0282B392B4A2B3A
:10D2B0005B2B888990E0A0E0B0E0B82FAA279927DF
:10D2C0008827282B392B4A2B5B2B2093B20C3093C9
:10D2D000B30C4093B40C5093B50C03C08FEF809304
:10D2E000AD0CCF0102C080E090E060960FB6F894DC
:10D2F000DEBF0FBECDBFDF91CF910F91FF90EF90BA
:10D30000DF90CF90BF90AF909F908F9008951F9225
:10D310000F920FB60F9211248F939F9380E098E4A1
:10D320000197F1F796B18091000589278093FE045B
:10D3300086B1809300059F918F910F900FBE0F9043
:10D340001F9018951F920F920FB60F9211248F9372
:10D3500089B1809301058F910F900FBE0F901F90A0
:10D3600018956F927F928F929F92AF92BF92CF92B9
:10D37000DF92EF92FF920F931F93CF93DF938091F1
:10D38000C00A882309F49EC069E871E081EC9AE044
:10D390000E9480523C01892B09F494C0C090D90AA4
:10D3A000D090DA0AA090D70AB090D80A8090D50A17
:10D3B0009090D60AE090D40AFF24E091D30AE05D71
:10D3C000F0E04091D20A405D50E08091D10A805D4A
:10D3D00090E00091600B10E0A091610BB0E06091D3
:10D3E000620B70E02091670B30E0DF92CF92BF922A
:10D3F000AF929F928F92FF92EF92FF93EF935F9382
:10D400004F939F938F931F930F93BF93AF937F93EC
:10D410006F933F932F9388EF9AE39F938F937F921D
:10D420006F920E94C350809121019091220120911E
:10D430001F013091200140911D0150911E0160910A
:10D440001B0170911C019F938F933F932F935F93C8
:10D450004F937F936F9387EE9AE39F938F937F927F
:10D460006F920E94C350C0E0D0E08DB79EB7869601
:10D470000FB6F8949EBF0FBE8DBF02EE1AE3FE01F9
:10D48000EE0FFF1FEA54F34F808191819F938F939A
:10D490001F930F937F926F920E94C35021968DB776
:10D4A0009EB706960FB6F8949EBF0FBE8DBFC830CC
:10D4B000D10529F7B3018FED9AE30E942852C301E9
:10D4C0000E947552DF91CF911F910F91FF90EF90C5
:10D4D000DF90CF90BF90AF909F908F907F906F9094
:10D4E0000895CF92DF92EF92FF920F931F93CF9305
:10D4F000DF93EC01888180FF02C05C9A01C05C98D8
:10D50000888181FF02C05D9A01C05D98888182FF99
:10D5100002C05D9A01C05E988091C00A882309F418
:10D520006FC069E871E081EC9AE00E9480526C0162
:10D53000892B09F465C0E0900705FF24409106059A
:10D54000469546954170405D50E020910605269530
:10D550002170205D30E0809106058170805D90E053
:10D560000091600B10E0A091610BB0E0E091620BC4
:10D57000F0E06091670B70E0FF92EF925F934F9342
:10D580003F932F939F938F931F930F93BF93AF93CB
:10D59000FF93EF937F936F9381E69BE39F938F932A
:10D5A000DF92CF920E94C350698170E04881469516
:10D5B00046954170405D50E0288126952170205DA0
:10D5C00030E088818170805D90E07F936F935F93FE
:10D5D0004F933F932F939F938F938FE49BE39F935E
:10D5E0008F93DF92CF920E94C3508DB79EB78096E3
:10D5F0000FB6F8949EBF0FBE8DBFC6010E94755234
:10D6000098819170809106058E7F892B8093060505
:10D6100098819270809106058D7F892B80930605F5
:10D6200098819470809106058B7F892B80930605E5
:10D63000898180930705DF91CF911F910F91FF9012
:10D64000EF90DF90CF9008950F931F93CF93DF93C8
:10D650008091670B8093CE0A8091DF0A8093CF0A76
:10D660008091DE0A8093D00A4091CE0A50E020914A
:10D67000CF0A30E08091D00A90E05F934F933F93C0
:10D680002F939F938F9389E39BE39F938F93C1EC99
:10D69000DAE0DF93CF930E94A6740E941753809321
:10D6A000C00A8091C00A2DB73EB7265F3F4F0FB624
:10D6B000F8943EBF0FBE2DBF882371F069E871E07A
:10D6C000CE010E9480528C01BC0180E29BE30E944B
:10D6D0002852C8010E947552DF91CF911F910F917E
:10D6E00008956F927F928F929F92AF92BF92CF9246
:10D6F000DF92EF92FF920F931F93CF93DF93CDB7FB
:10D70000DEB724970FB6F894DEBF0FBECDBF809171
:10D71000C00A882309F490C06BE871E08DE891E0BD
:10D720000E9480526C01009709F486C020E040E01E
:10D7300050E060E070E00E945752C6010E9406521D
:10D740007C0100E010E066246FE7762EAA24BB245B
:10D750004E010894811C911C5FC0970120533040FA
:10D760002A30310560F4C80153E0880F991F5A959B
:10D77000E1F7000F111F080F191F020F131FC70138
:10D780000E94E477892B81F182E0B816A9F08B150D
:10D7900034F0BB2069F081E0B81619F50BC084E0C5
:10D7A000B816B9F0B8166CF086E0B816D1F418C007
:10D7B000602E17C0702E15C0902F917089818E7FBA
:10D7C00005C0902F9170990F89818D7F892B898356
:10D7D00008C0902F9170990F990F89818B7FF6CF98
:10D7E0000A83B39400E010E08DE0E816F10481F4C0
:10D7F0009401472D662D8A2D0E94F82EC6010E94A5
:10D800000652A3948FE18A155CF000E010E0BB247F
:10D81000C6010E9406527C011E141F040CF49DCF09
:10D82000C6010E9475528E010D5F1F4FC8010E94F4
:10D83000952FC8010E94716A80E090E024960FB68F
:10D84000F894DEBF0FBECDBFDF91CF911F910F9136
:10D85000FF90EF90DF90CF90BF90AF909F908F9010
:10D860007F906F900895FF920F931F93CF93DF9354
:10D87000CDB7DEB728970FB6F894DEBF0FBECDBF89
:10D8800048E050E067E97AE38E010F5F1F4FC8015F
:10D890000E94CF72FF2415C020E245E560E0C80178
:10D8A0000E94066FF3946F2D70E0E3E0660F771F20
:10D8B000EA95E1F76956754C48E050E0C8010E94CE
:10D8C000CF728981883241F328960FB6F894DEBF73
:10D8D0000FBECDBFDF91CF911F910F91FF900895A3
:10D8E00017B88FEF88B980936D00E8E6F0E080818B
:10D8F000846080838AB180678AB95C985D985E98FD
:10D9000081E08093F9048093FC0480B18093FF044C
:10D9100086B18093000589B1809301050E94336C24
:10D920000E94246B80E090E00E94716B08958F92BA
:10D930009F92AF92BF92CF92DF92FF920F931F936D
:10D94000CF93DF93CDB7DEB72B970FB6F894DEBF3A
:10D950000FBECDBF8E010C5F1F4F48E050E067E95E
:10D960007AE3C8010E94CF72FF2483E0882E912CB5
:10D970008C0E9D1EB2E0AB2EB12CAC0EBD1E6E0106
:10D980000894C11CD11C33C0B80180E00E94C46E51
:10D990008823F1F42EE437E080E791E00197F1F776
:10D9A00021503040C9F79401A501B601C8010E9479
:10D9B0008A6F882369F44B816A8189810E94686E2D
:10D9C000EF2DF0E0EE0FFF1FEA54F34F91838083B9
:10D9D000F3946F2D70E0F3E0660F771FFA95E1F78F
:10D9E0006956754C48E050E0C8010E94CF728C81A6
:10D9F000883251F22B960FB6F894DEBF0FBECDBF22
:10DA0000DF91CF911F910F91FF90DF90CF90BF904A
:10DA1000AF909F908F9008951F920F920FB60F9224
:10DA200011248F939F9380E090E90197F1F790B1D3
:10DA30009295969596959370909591708091C00A65
:10DA4000891729F09093C00A81E08093FB0480B18C
:10DA50008093FF049F918F910F900FBE0F901F90A6
:10DA60001895DC0120E040E050E017C0FD01E40F14
:10DA7000F51FE081F8E08E2F8227382F317080FF6C
:10DA800002C088E128272695313009F42068F1503A
:10DA900011F0E695F0CF4F5F5F4F4617570731F70C
:10DAA000822F90E0089589B190E080789070089579
:10DAB0005F9A579A08955F98579808955F98579A74
:10DAC00089EE96E00197F1F72FB7F894579883EF16
:10DAD00090E00197F1F739B12FBF86EF95E00197FC
:10DAE000F1F74F9902C081E002C0832F807890E067
:10DAF0000895982F2FB7F894579A89E08A95F1F7EF
:10DB0000911157988FE38A95F1F789B1880F880BA7
:10DB100089239DED9A95F1F757982FBF91E39A9538
:10DB2000F1F790E008950F931F93182F08E0812FCD
:10DB300081700E94796D1695811110680150B9F7B6
:10DB4000812F90E01F910F9108958FEF0E94936DA8
:10DB500090E00895DF92EF92FF920F931F93CF937F
:10DB6000DF93E82EEB010E945E6D882319F08FEFA2
:10DB700090E033C080EF0E94936D00E4DD2488E0E4
:10DB8000F82E81E00E94796D182F81E00E94796D56
:10DB9000882329F0112371F08EEF90E01EC011232D
:10DBA00049F40E1528F0888180FF04C0E01611F0BA
:10DBB000D02E11E0812F0E94796D8881869588830F
:10DBC000112311F0806888830150FA94D1F6002364
:10DBD00011F02196D4CF8D2D90E0DF91CF911F9140
:10DBE0000F91FF90EF90DF9008950F931F93CF93C5
:10DBF000DF93082FEB010E945E6D209751F085E5C1
:10DC00000E94936D18E089910E94936D115021F04C
:10DC1000FACF8CEC0E94936D802F0E94936DDF9160
:10DC2000CF911F910F910895FF920F931F93CF9360
:10DC3000DF93F82EFB01DA01E901B801208130E021
:10DC4000818190E0582F4427422B532B80E1F81616
:10DC500071F4CA018E7F33E0880F991F3A95E1F77E
:10DC600026814CE050E0421B5109480F591F57FFD5
:10DC700006C081E08C93509541955F4F01C01C9286
:10DC800088E2F81691F48481282F30E0C90180766B
:10DC900090708036910549F026FF02C04E7F05C086
:10DCA00025FF02C04C7F01C0487FCA0124E0969541
:10DCB00087952A95E1F78883842F8F70FB018083F5
:10DCC00080E090E0DF91CF911F910F91FF90089538
:10DCD0001F93182FE62F242F30E081E792E0BC013C
:10DCE000269FC001279F900D369F900D112468EE4E
:10DCF00073E00E94A7778AE0E89FF00111246E0F7D
:10DD00007F1F112369F4E1E8FBE38491481719F4BC
:10DD10006F5F7F4F05C031968BE3E938F807A9F7AD
:10DD2000CB011F910895882319F0709561957F4F5D
:10DD3000442319F0309521953F4F621773071CF467
:10DD40008FEF9FEF089580E090E02617370714F4D7
:10DD500081E090E00895CF93DF93EC010E945E6D27
:10DD60000E94536D882319F481E090E00AC0BE013F
:10DD700088EB0E94F56D80E090E90197F1F780E073
:10DD800090E0DF91CF9108951F93CF93DF93182FE9
:10DD9000EB010E945E6D0E94536D882319F482E0AE
:10DDA00090E00AC0BE0184E40E94F56D113011F0CC
:10DDB0000E94586D80E090E0DF91CF911F9108950F
:10DDC0000F931F93CF93DF93EC018B010E945E6D45
:10DDD0000E94536D882319F481E090E012C0BE01C7
:10DDE0008EEB0E94F56DC0E0D0E00E94A56DF801B9
:10DDF000EC0FFD1F80832196C930D105B1F780E07B
:10DE000090E0DF91CF911F910F910895FF920F93B2
:10DE10001F93CF93DF93EC01162F042FF22E0E9455
:10DE20005E6D0E94536D882319F481E090E012C06A
:10DE3000BE018EE40E94F56D812F0E94936D802FAC
:10DE40000E94936D8881883219F48F2D0E94936D02
:10DE500080E090E0DF91CF911F910F91FF900895A6
:10DE60005F926F927F928F929F92AF92BF92CF926A
:10DE7000DF92EF92FF920F931F93CF93DF93CDB773
:10DE8000DEB729970FB6F894DEBF0FBECDBF582E70
:10DE90003B015A01690160E070E08EEB0E94F56D74
:10DEA0008E010F5F1F4F48015AE0E52EF12CEC0E5A
:10DEB000FD1E0E94A56DF80181938F01C401EE152E
:10DEC000FF05B9F769E070E00E94316D882319F011
:10DED00083E090E009C086019501A301B401852D7E
:10DEE0000E94146E80E090E029960FB6F894DEBF91
:10DEF0000FBECDBFDF91CF911F910F91FF90EF909B
:10DF0000DF90CF90BF90AF909F908F907F906F9059
:10DF10005F9008954F925F926F927F928F929F923F
:10DF2000AF92BF92CF92DF92EF92FF920F931F9327
:10DF3000CF93DF93CDB7DEB729970FB6F894DEBF46
:10DF40000FBECDBF6C012B014A0159010E945E6DCD
:10DF5000B6018EEB0E94F56D8E010F5F1F4F3801E9
:10DF60006AE0E62EF12CEC0EFD1E0E94A56DF80174
:10DF700081938F01C301EE15FF05B9F769E070E0E9
:10DF80000E94316D882319F083E090E00AC085017A
:10DF90009401A201B301F60180810E94146E80E019
:10DFA00090E029960FB6F894DEBF0FBECDBFDF918B
:10DFB000CF911F910F91FF90EF90DF90CF90BF9086
:10DFC000AF909F908F907F906F905F904F9008954B
:10DFD0000F931F938C010E945E6DB80184EB0E9429
:10DFE000F56D81E00E94796D182F0E945E6D80E0D2
:10DFF00090E0112311F081E090E01F910F910895BE
:10E000000F931F93CF93DF938C01EB01BE01F801B7
:10E0100080810E94AA6DF801808381508D3F28F491
:10E020008881883211F0803189F7DF91CF911F917B
:10E030000F9108956F927F928F929F92AF92BF92AD
:10E04000CF92DF92EF92FF920F931F93CF93DF93C4
:10E05000EC017B0100E010E0A1EB6A2EABE37A2E2D
:10E06000FFE98F2EFBE39F2EE5EAAE2EEBE3BE2EFB
:10E070007BEAC72E7BE3D72E25C0FE01E00FF11F00
:10E08000808190E09F938F937F926F920E943E20B9
:10E090000F900F900F900F900115110589F4888152
:10E0A000803119F4DF92CF9207C0883219F4BF9201
:10E0B000AF9202C09F928F920E943E200F900F90CD
:10E0C0000F5F1F4F0E151F05C1F668E070E0CE010F
:10E0D0000E94316D882319F084E99BE302C089E82E
:10E0E0009BE39F938F930E943E200F900F90DF91B0
:10E0F000CF911F910F91FF90EF90DF90CF90BF9045
:10E10000AF909F908F907F906F9008951F93CF93C3
:10E11000DF93182FEB010E945E6D0E94536D8823E0
:10E1200019F482E090E012C0BE0188E40E94F56D0F
:10E13000113011F00E94586D80E090E90197F1F7DD
:10E14000113011F00E945B6D80E090E0DF91CF9183
:10E150001F910895CF93DF93AC01029710F442E032
:10E1600050E0A091C80CB091C90CFD01C0E0D0E016
:10E1700020E030E020C0808191818417950769F408
:10E1800082819381209719F09B838A8304C09093A6
:10E19000C90C8093C80C9F0132C04817590738F446
:10E1A0002115310519F08217930708F49C01EF013E
:10E1B0000280F381E02D3097F1F62115310599F1B8
:10E1C000C901841B950B049708F4A901E0E0F0E075
:10E1D00028C08D919C91119782179307F9F44817E5
:10E1E000590781F4ED018A819B81309719F093835F
:10E1F000828304C09093C90C8093C80C9D012E5F4C
:10E200003F4F4CC0841B950BFD01E80FF91F419354
:10E21000519302978D939C939F0140C0FD01A28171
:10E22000B3811097B1F68091C60C9091C70C892BE1
:10E2300041F480919701909198019093C70C80933D
:10E24000C60C2091990130919A012115310549F4AC
:10E250008DB7282F30E08091950190919601281B71
:10E26000390BA091C60CB091C70C2A1B3B0B24178D
:10E27000350790F0CA0102962817390768F09D010A
:10E280002E5F3F4FC901840F951F9093C70C809359
:10E29000C60C4D935C9302C020E030E0C901DF91D1
:10E2A000CF910895CF93DF93009709F44EC0EC010E
:10E2B00022971B821A82A091C80CB091C90C1097AA
:10E2C00011F140E050E001C0DC01AC17BD0700F1E6
:10E2D000BB83AA83FE0121913191E20FF31FEA175C
:10E2E000FB0771F48D919C911197280F391F2E5FB8
:10E2F0003F4F39832883FD01828193819B838A83E9
:10E300004115510559F4D093C90CC093C80C1DC0D8
:10E31000FD0182819381AD010097B1F6FA01D383AB
:10E32000C28321913191E20FF31FEC17FD0769F4CD
:10E3300088819981280F391F2E5F3F4FFA01318361
:10E3400020838A819B8193838283DF91CF9108957B
:10E35000A3E0B0E0EEEAF1E70C9417789B838A83A0
:10E360001B016A016115710519F0FB01918380831E
:10E37000C114D10449F0C6010297839728F040E008
:10E3800050E060E070E0E7C0EA81FB811191FB831F
:10E39000EA83812F90E00E94DC77892BA9F71D3258
:10E3A00041F4EA81FB811191FB83EA83F1E0F98377
:10E3B00008C01B3229F4EA81FB811191FB83EA83B7
:10E3C0001982C114D10421F0F0E1CF16D10411F566
:10E3D0001033A1F4EA81FB818081883711F0883500
:10E3E00069F4EA81FB8111813296FB83EA83F9812A
:10E3F000F260F98350E1C52ED12C0CC0C114D104B8
:10E4000049F4103321F448E0C42ED12C03C03AE083
:10E41000C32ED12C8AE0C816D10449F090E1C91668
:10E42000D104B9F0E8E0CE16D104E1F409C029E93D
:10E43000822E29E9922E29E9A22E29E1B22E1FC0AF
:10E440009FEF892E9FEF992E9FEFA92E9FE1B92E66
:10E4500016C08FEF882E8FEF982E8FEFA82E8FE0AB
:10E46000B82E0DC09601442737FD4095542F6FEF0D
:10E470007FEF8FEF9FEF0E94BA7749015A0140E08A
:10E4800050E060E070E030E02601662457FC6094C4
:10E49000762C212F20532A3060F0812F81548A312D
:10E4A00010F4275006C0812F81568A3160F5212F44
:10E4B0002755822F90E08C159D052CF537FD1DC04A
:10E4C00084169506A606B706A8F0E22EFF2400E003
:10E4D00010E0CB01BA01A30192010E946877AB0161
:10E4E000BC014E0D5F1D601F711F4E155F0560075B
:10E4F000710710F43FEF01C031E0EA81FB81119117
:10E50000FB83EA83C6CF2114310479F0332321F051
:10E510008A819B81019706C0F981F1FF06C08A813B
:10E520009B810297F10191838083F981F0FF07C0FD
:10E5300070956095509541955F4F6F4F7F4F37FFB6
:10E540000AC082E290E09093CB0C8093CA0C4FEF0C
:10E550005FEF6FEF7FEFCB01BA01E2E123960C94FE
:10E560003378FC0188279927E89421912032E9F338
:10E57000293010F02E30C8F32B3241F02D3239F40F
:10E58000689404C00E946374820F911D21912053EE
:10E590002A30C0F31EF4909581959F4F0895FB019A
:10E5A000DC0102C005900D9241505040D8F708950B
:10E5B000FB01DC018D9181341CF08B350CF4805E05
:10E5C000659161341CF06B350CF4605E861B611143
:10E5D00089F3990B0895FB01DC010D900020E9F708
:10E5E000119705900D920020E1F70895FB01DC01E1
:10E5F00005900D920020E1F70895DC01FB01411523
:10E60000510549F04150504029F005900D920020ED
:10E6100029F0F8CF1C9205900020E9F7E61BF70BD4
:10E620003197CF010895FC0105900020E9F780950E
:10E6300090958E0F9F1F0895FB01DC0141505040C3
:10E6400088F08D9181341CF08B350CF4805E6591DF
:10E6500061341CF06B350CF4605E861B611171F344
:10E66000990B0895881BFCCFFB01DC014150504001
:10E6700048F005900D920020C9F701C01D9241504D
:10E680005040E0F70895FB01DC0102C001900D92BB
:10E6900041505040D8F708956817790768F4FB0196
:10E6A000DC01E40FF51FA40FB51F02C002900E920B
:10E6B00041505040D8F708950C944373DC0101C0D9
:10E6C0006D9341505040E0F70895FB01DC018D91BE
:10E6D00081341CF08B350CF4805E619161341CF048
:10E6E0006B350CF4605E861B611189F3990B0895FC
:10E6F000FB0155915523B1F0BF01DC01052E4D9171
:10E70000442369F010D0D9F7CD010590002049F0DD
:10E710004D91411108D0C9F3FB014111EECF81E0C9
:10E7200090E001970895402539F0403229F44029BE
:10E730004B57465E08F018940895FB01DC010D90DC
:10E740000020E9F7119701900D920020E1F708955C
:10E75000FC018191861721F08823D9F79927089524
:10E760003197CF010895FB01DC018D910190801953
:10E770000110D9F3990B0895FB01DC0101900D9272
:10E780000020E1F70895FB01DC014150504030F0DA
:10E790008D910190801919F40020B9F7881B990B0D
:10E7A0000895FB01DC014150504048F001900D926A
:10E7B0000020C9F701C01D9241505040E0F7089574
:10E7C000FC016150704001900110D8F78095909540
:10E7D0008E0F9F1F0895FC0181E090E001900616C6
:10E7E00009F4CF010020D1F701970895FC01A08121
:10E7F000B181AD01109681F03D91FB0101900316AE
:10E800000110E1F7C9F7002011F4D00102C01E92F7
:10E810001196FC01A083B183CA010895FB019F01F9
:10E82000E8944230C4F04532B4F44A3029F497FBFE
:10E830001EF4909581959F4F642F77270E949377C0
:10E84000805D8A330CF0895D8193CB010097A1F73D
:10E8500016F45DE251931082C9010C94CE76FA0150
:10E86000CF93FF93EF93223044F1253234F5C22F3A
:10E87000E894CA3049F497FB3EF4909580957095E2
:10E8800061957F4F8F4F9F4F2C2F3327442755275C
:10E89000FF93EF930E94BA77EF91FF91605D6A3327
:10E8A0000CF0695D6193B901CA016050704080400D
:10E8B000904051F716F4CDE2C19310828F919F9151
:10E8C000CF910C94CE767AE0979F902D879F802DE4
:10E8D000910D11240895FA01CF93FF93EF93223005
:10E8E000CCF02532BCF4C22F2C2F332744275527D8
:10E8F000FF93EF930E94BA77EF91FF91605D6A33C7
:10E900000CF0695D6193B901CA01605070408040AC
:10E91000904051F710828F919F91CF910C94CE76B9
:10E92000FB019F01423074F0453264F4642F772775
:10E930000E949377805D8A330CF0895D8193CB01CF
:10E940000097A1F71082C9010C94CE76A0E1B0E047
:10E95000ECEAF4E70C9425780F89188D8EE08E830D
:10E960001C830B838FEF9FE798878F83AE01455EF3
:10E970005F4F5A834983698D7A8DCE0103960E9439
:10E98000CB7429853A85020F131FF8011082E4E049
:10E9900060960C9441782F923F925F926F927F9293
:10E9A0008F929F92AF92BF92CF92DF92EF92FF929F
:10E9B0000F931F93CF93DF93CDB7DEB72B970FB68F
:10E9C000F894DEBF0FBECDBF3C014B016A01FC01D4
:10E9D00017821682838181FD03C08FEF9FEFBBC139
:10E9E0001E010894211C311CF3013381F40133FD15
:10E9F000859133FF81914F01882309F4A9C18532A4
:10EA000039F433FD859133FF81914F01853229F42B
:10EA1000B30190E00E94DE76E7CF982FAA2410E0A1
:10EA200055241032B0F49B3269F09C3228F49032B5
:10EA300051F0933271F40BC09D3239F0903349F4A8
:10EA400011602AC01260146027C0186025C01061D0
:10EA500023C017FD2AC0292F20532A3088F416FF1F
:10EA600007C08AE0A89EC0011124A22EA80E14C0DF
:10EA70008AE0589EC0011124522E580E10620CC01C
:10EA80009E3221F416FD64C1106406C09C3611F458
:10EA9000106802C0983649F4F40133FD959133FFB4
:10EAA00091914F01992309F0BCCF892F8554833070
:10EAB00018F08052833038F424E030E0C20ED31EC8
:10EAC0008FE389830FC0933631F0933781F093350C
:10EAD00009F056C020C0F6018081898322E030E031
:10EAE000C20ED31E710181E0A82EB12C12C0F60116
:10EAF000E080F18016FD03C06FEF7FEF02C06A2D4A
:10EB000070E022E030E0C20ED31EC7010E94E07325
:10EB10005C011F7713C0F601E080F18016FD03C091
:10EB20006FEF7FEF02C06A2D70E022E030E0C20E8E
:10EB3000D31EC7010E94C3765C01106813FF07C093
:10EB40001BC0B30180E290E00E94DE765A94852DCE
:10EB500090E0A816B906A8F30FC0F70117FD85913C
:10EB600017FF81917F01B30190E00E94DE76511082
:10EB70005A940894A108B108A114B10471F7E5C032
:10EB8000943611F0993669F517FF0AC0F6016081D5
:10EB900071818281938124E030E0C20ED31E0DC0CA
:10EBA000F601808191819C01B901882777FD8095CC
:10EBB000982F42E050E0C40ED51E012F0F7697FF2C
:10EBC00008C090958095709561957F4F8F4F9F4FAE
:10EBD00000682AE030E0A1010E940A77B82EB2183E
:10EBE0003DC0953721F41F7E2AE030E01CC0197F1C
:10EBF0009F3661F0903720F4983509F0A9C00FC016
:10EC0000903739F0983709F0A3C004C028E030E00D
:10EC10000AC0106114FD146020E130E004C014FD4E
:10EC2000166020E132E017FF08C0F60160817181B3
:10EC30008281938144E050E008C0F6018081918197
:10EC4000BC0180E090E042E050E0C40ED51EA1017E
:10EC50000E940A77B82EB218012F0F7706FF09C05D
:10EC60000E7FBA1430F404FF06C002FD04C00F7E0C
:10EC700002C01B2D01C01A2D04FF0CC0FE01EB0DBC
:10EC8000F11D8081803311F4097E08C01F5F02FFEF
:10EC900005C003C0802F867809F01F5FE02E03FDBA
:10ECA00014C000FF0FC0151510F0AB2C0BC0AB2C1F
:10ECB000A50CA11A152D06C0B30180E290E00E94B8
:10ECC000DE761F5F1515C0F304C0151510F4511A38
:10ECD00001C05524E4FE10C0B30180E390E00E941F
:10ECE000DE76E2FE1EC0E1FE03C088E590E002C0D1
:10ECF00088E790E0B3010CC08E2D867891F0E1FE9C
:10ED000002C08BE201C080E207FD8DE2B30190E01A
:10ED10000E94DE7606C0B30180E390E00E94DE76BA
:10ED2000AA94BA14C0F3BA94F101EB0DF11D8081DD
:10ED3000B30190E00E94DE76BB2039F0F4CFB3013E
:10ED400080E290E00E94DE765A945520C1F74CCEC6
:10ED5000F301868197812B960FB6F894DEBF0FBE24
:10ED6000CDBFDF91CF911F910F91FF90EF90DF907A
:10ED7000CF90BF90AF909F908F907F906F905F905B
:10ED80003F902F900895FC01059061507040011054
:10ED9000D8F7809590958E0F9F1F0895DC01FC0198
:10EDA000672F71917723E1F7329704C07C916D93BF
:10EDB00070836291AE17BF07C8F308950F931F9336
:10EDC000CF93DF938C01EB018B8181FF1BC082FF0E
:10EDD0000DC02E813F818C819D812817390764F4F5
:10EDE000E881F9810193F983E88306C0E885F98514
:10EDF000802F0995892B31F48E819F8101969F8305
:10EE00008E8302C00FEF1FEFC801DF91CF911F91DA
:10EE10000F910895FA01AA27283051F1203181F18C
:10EE2000E8946F936E7F6E5F7F4F8F4F9F4FAF4F12
:10EE3000B1E03ED0B4E03CD0670F781F891F9A1F25
:10EE4000A11D680F791F8A1F911DA11D6A0F711DD9
:10EE5000811D911DA11D20D009F468943F912AE0E5
:10EE6000269F11243019305D3193DEF6CF010895CD
:10EE7000462F4770405D4193B3E00FD0C9F7F6CFFE
:10EE8000462F4F70405D4A3318F0495D31FD4052C6
:10EE9000419302D0A9F7EACFB4E0A695979587955C
:10EEA00077956795BA95C9F700976105710508953B
:10EEB0009B01AC010A2E06945795479537952795E7
:10EEC000BA95C9F7620F731F841F951FA01D08957F
:10EED000629FD001739FF001829FE00DF11D649F3E
:10EEE000E00DF11D929FF00D839FF00D749FF00DCA
:10EEF000659FF00D9927729FB00DE11DF91F639F6B
:10EF0000B00DE11DF91FBD01CF0111240895991B1A
:10EF100079E004C0991F961708F0961B881F7A9510
:10EF2000C9F780950895AA1BBB1B51E107C0AA1F12
:10EF3000BB1FA617B70710F0A61BB70B881F991F9A
:10EF40005A95A9F780959095BC01CD01089597FB3E
:10EF5000092E07260AD077FD04D0E5DF06D0002071
:10EF60001AF4709561957F4F0895F6F79095819505
:10EF70009F4F0895A1E21A2EAA1BBB1BFD010DC0D5
:10EF8000AA1FBB1FEE1FFF1FA217B307E407F50759
:10EF900020F0A21BB30BE40BF50B661F771F881F35
:10EFA000991F1A9469F760957095809590959B01CB
:10EFB000AC01BD01CF01089591112DC0803219F02F
:10EFC00089508550D0F70895911125C081528E55F2
:10EFD000E0F7815818D08823C1F781E00895F999A6
:10EFE000FECFB2BDA1BDF89A119600B40895F9996B
:10EFF000FECFB2BDA1BD00BC11960FB6F894FA9A2F
:10F00000F99A0FBE0895911106C080538A5010F0EE
:10F01000865C06C0089599278827089585FDFBCF53
:10F0200080629111F8CF81568A51E0F708952F92AE
:10F030003F924F925F926F927F928F929F92AF9288
:10F04000BF92CF92DF92EF92FF920F931F93CF93D5
:10F05000DF93CDB7DEB7CA1BDB0B0FB6F894DEBF6C
:10F060000FBECDBF09942A88398848885F846E8492
:10F070007D848C849B84AA84B984C884DF80EE80DC
:10F08000FD800C811B81AA81B981CE0FD11D0FB6E5
:0EF09000F894DEBF0FBECDBFED010895FFCF97
:10F09E00880A880A720061646D696E3A756C69310E
:10F0AE00004F55543D005355423D000A0032001E9C
:10F0BE000000000000000000000000000000000D35
:10F0CE000A0D0A0025454E4400740472002E2C20B1
:10F0DE00002000720061002F002F000000000000D1
:10F0EE000000000000000000000000000000000012
:10F0FE000000000000000000000000000000000002
:10F10E0000000000000000000000000000000000F1
:10F11E0000000000000000000061007200617672C5
:0CF12E002E696E69002000CC0C0000006F
:00000001FF
