:100000000C9434000C946D020C9451000C9451002B
:100010000C9451000C9451000C9451000C9451001C
:100020000C9451000C9451000C9451000C945C02FF
:100030000C9451000C9451000C9451000C945100FC
:100040000C9451000C9451000C9451000C945100EC
:100050000C9451000C9451000C9451000C945100DC
:100060000C9451000C94510011241FBECFEFD8E026
:10007000DEBFCDBF11E0A0E0B1E0E2E6F8E002C0F3
:1000800005900D92AC30B107D9F711E0ACE0B1E0CA
:1000900001C01D92AE30B107E1F70E947E020C94C0
:1000A0002F040C94000080FF02C05F9A01C05F988B
:1000B00081FF02C05E9A01C05E9882FF02C05D9A15
:1000C00001C05D9883FF02C02F9A08952F9808956C
:1000D00089B1881F8827881F4E9982604D99846056
:1000E0001F99886008951F93579856985598279898
:1000F000299A289A0E946800182F1295107F289834
:10010000289A0E9468002898812B1F9108952A98A8
:100110000E94730008951F93182F579A569A559A64
:10012000279A2998289A82958F700E9453002898C0
:10013000289A812F0E94530028980E94870087FDEB
:10014000FCCF1F9108952A980E948B0008952A9A47
:100150000E948B0008952A9A0E9473000895CF93FD
:10016000DF93EC0103C021960E94A70088818823B9
:10017000D1F7DF91CF9108956295660F660F607C8D
:10018000680F862F80680E94A300089581E00E9476
:10019000A30080EA9FE00197F1F7089582E00E94B2
:1001A000A30080EA9FE00197F1F708951F93CF9392
:1001B000DF93579A569A559A279A209A229A219A0B
:1001C00080E395E70197F1F72A982898299810E09D
:1001D000C0E1D7E2289A83E00E9453002898CE011C
:1001E0000197F1F71F5F1330A9F7289A82E00E9468
:1001F0005300289880ED97E00197F1F788E20E947C
:10020000A30088E00E94A30081E00E94A30086E092
:100210000E94A3008FE00E94A300DF91CF911F9165
:100220000895282F22952F709AE0299F900111247C
:100230008F70820F08958F929F92AF92BF92CF924C
:10024000DF92EF92FF920F931F93DF93CF93CDB77F
:10025000DEB72B970FB6F894DEBF0FBECDBF7B0184
:100260008C01B42EA52EDE011196E0E0F1E08BE0CA
:1002700001900D928150E1F78AE0E816F104010542
:10028000110520F08B2D9A2D6C0107C08B2D9A2D16
:100290006C0180E3F60181936F01C7010894C11CD2
:1002A000D11C6AE070E00E94FA03CB016115710570
:1002B000A9F7F60110824E010894811C911CC80117
:1002C000B7012AE030E040E050E00E940D04F40164
:1002D000E60FF71F8081F60182936F01C801B70115
:1002E0002AE030E040E050E00E940D04C901DA014C
:1002F0007C018D01E114F1040105110501F78B2D3D
:100300009A2D2B960FB6F894DEBF0FBECDBFCF91BE
:10031000DF911F910F91FF90EF90DF90CF90BF90F2
:10032000AF909F908F90089584EA8093BC00809155
:10033000BC0087FFFCCF089584E98093BC008091C6
:10034000BC0084FDFCCF08958093BB0084E88093BB
:10035000BC008091BC0087FFFCCF0895882311F476
:1003600084E801C084EC8093BC008091BC0087FFCE
:10037000FCCF8091BB000895982FF90184EA809307
:10038000BC008091BC0087FFFCCF9093BB0084E849
:100390008093BC008091BC0087FFFCCF6093BB00C2
:1003A00084E88093BC008091BC0087FFFCCF0CC028
:1003B00080818093BB009093BC008091BC0087FF3C
:1003C000FCCF3196415001C094E8442389F784E979
:1003D0008093BC008091BC0084FDFCCF0895982FD1
:1003E000F90184EA8093BC008091BC0087FFFCCFB8
:1003F0009093BB0084E88093BC008091BC0087FF91
:10040000FCCF6093BB0084E88093BC008091BC006B
:1004100087FFFCCF84EA8093BC008091BC0087FFFB
:10042000FCCF9F5F9093BB0084E88093BC008091D9
:10043000BC0087FFFCCF0EC0415011F484E801C01E
:1004400084EC8093BC008091BC0087FFFCCF80913E
:10045000BB008193442381F784E98093BC008091A1
:10046000BC0084FDFCCF08959C0140E050E060E8B2
:1004700078E381E090E00E940D042051304040403C
:100480005040569547953795279590E005C09F5F5A
:1004900036952795369527952F3F310509F0B8F702
:1004A0008091B9008370982B9093B9002093B80085
:1004B00084E48093BC0008951F920F920FB60F92B0
:1004C00011248F9380910C01886080930C018F918F
:1004D0000F900FBE0F901F9018951F920F920FB69E
:1004E0000F9211248F9380910C01816080930C01F5
:1004F0008F910F900FBE0F901F9018952F923F92E3
:100500004F925F926F927F929F92AF92BF92CF92E3
:10051000DF92EF92FF920F931F93DF93CF93CDB7AC
:10052000DEB760970FB6F894DEBF0FBECDBF8AB1BD
:100530008A608AB95A9A80916900816080936900C3
:10054000E89A80916F00826080936F0080918100B3
:100550008C608093810082E19AE790938900809378
:1005600088008FB780688FBF789482E089830E946B
:10057000D60020E038E048EC50E00BC08BB1832778
:100580008BB988EB9BE0FA013197F1F70197D9F726
:100590002F5F263098F382E0898384E690E00E9402
:1005A000340283E8898382EA6DE041E08E010F5FC7
:1005B0001F4F98010E94BC0180E197E20197F1F77B
:1005C000DD24EE24FF24C02E012F52E0A52EB12CF5
:1005D000AC0EBD1E48E0942E30E6632E3AEE732E2C
:1005E00028EC222E312C94EC492E9FEF592E80912D
:1005F0000C0180FF16C080910C018E7F80930C014E
:1006000080910C0185FF04C080910C018F7D03C097
:1006100080910C01806880930C0188E7E82E89E6C0
:10062000F82E80910C0183FFE2CF80910C01877F2F
:1006300080930C010E94C60082EA64E041E02C2D08
:10064000302F0E94EF0189818F7389830E941101ED
:10065000898390E0A0E0B0E0BC01CD01A5010E943B
:100660001B010E94AF008AE30E94A70082EA63E0B8
:1006700041E02C2D302F0E94EF0189818F778983F3
:100680000E941101898390E0A0E0B0E0BC01CD019F
:10069000A5010E941B010E94AF008AE30E94A700EF
:1006A00082EA62E041E02C2D302F0E94EF01898127
:1006B0008F7789830E941101898390E0A0E0B0E0E8
:1006C000BC01CD01A5010E941B010E94AF00198150
:1006D000D11621F480910C018F7B03C080910C0115
:1006E000806480930C0180910C0187FF50C080E0F2
:1006F00061E00E94BC00C70160E17EE00E94E60369
:10070000698370E080E090E0A5010E941B010E94D7
:10071000AF008AE30E94A700C7016CE370E00E946B
:10072000E603262F6981649D602D1124620F698381
:1007300070E080E090E0A5010E941B010E94AF00E4
:100740008AE30E94A700C7016CE370E00E94E60301
:10075000898390E0A0E0B0E0BC01CD01A5010E943A
:100760001B010E94AF0080910C0186FF03C008941A
:10077000E108F108E114F10451F480910C018F7744
:1007800080930C0180910C01806280930C01809118
:100790000C0185FF19C08BB189258BB9C301019765
:1007A000F1F78BB189258BB984EF91E0F101319795
:1007B000F1F70197D9F78BB189258BB9C30101975F
:1007C000F1F78BB189258BB9D12E11CFAA1BBB1B99
:1007D00051E107C0AA1FBB1FA617B70710F0A61B41
:1007E000B70B881F991F5A95A9F780959095BC0162
:1007F000CD01089597FB092E07260AD077FD04D076
:10080000E5DF06D000201AF4709561957F4F0895BA
:10081000F6F7909581959F4F0895A1E21A2EAA1B95
:10082000BB1BFD010DC0AA1FBB1FEE1FFF1FA217A0
:10083000B307E407F50720F0A21BB30BE40BF50B9D
:10084000661F771F881F991F1A9469F76095709526
:10085000809590959B01AC01BD01CF010895F8945E
:02086000FFCFC8
:0C0862003031323334353637383900007D
:00000001FF
