
A328p_rtc.elf:     file format elf32-avr

Sections:
Idx Name          Size      VMA       LMA       File off  Algn
  0 .data         0000000c  00800100  00000926  000009ba  2**0
                  CONTENTS, ALLOC, LOAD, DATA
  1 .text         00000926  00000000  00000000  00000094  2**1
                  CONTENTS, ALLOC, LOAD, READONLY, CODE
  2 .bss          00000003  0080010c  0080010c  000009c6  2**0
                  ALLOC

Disassembly of section .text:

00000000 <__vectors>:
   0:	0c 94 34 00 	jmp	0x68	; 0x68 <__ctors_end>
   4:	0c 94 b9 03 	jmp	0x772	; 0x772 <__vector_1>
   8:	0c 94 51 00 	jmp	0xa2	; 0xa2 <__bad_interrupt>
   c:	0c 94 51 00 	jmp	0xa2	; 0xa2 <__bad_interrupt>
  10:	0c 94 51 00 	jmp	0xa2	; 0xa2 <__bad_interrupt>
  14:	0c 94 51 00 	jmp	0xa2	; 0xa2 <__bad_interrupt>
  18:	0c 94 51 00 	jmp	0xa2	; 0xa2 <__bad_interrupt>
  1c:	0c 94 51 00 	jmp	0xa2	; 0xa2 <__bad_interrupt>
  20:	0c 94 51 00 	jmp	0xa2	; 0xa2 <__bad_interrupt>
  24:	0c 94 51 00 	jmp	0xa2	; 0xa2 <__bad_interrupt>
  28:	0c 94 51 00 	jmp	0xa2	; 0xa2 <__bad_interrupt>
  2c:	0c 94 a8 03 	jmp	0x750	; 0x750 <__vector_11>
  30:	0c 94 51 00 	jmp	0xa2	; 0xa2 <__bad_interrupt>
  34:	0c 94 51 00 	jmp	0xa2	; 0xa2 <__bad_interrupt>
  38:	0c 94 51 00 	jmp	0xa2	; 0xa2 <__bad_interrupt>
  3c:	0c 94 51 00 	jmp	0xa2	; 0xa2 <__bad_interrupt>
  40:	0c 94 51 00 	jmp	0xa2	; 0xa2 <__bad_interrupt>
  44:	0c 94 51 00 	jmp	0xa2	; 0xa2 <__bad_interrupt>
  48:	0c 94 51 00 	jmp	0xa2	; 0xa2 <__bad_interrupt>
  4c:	0c 94 51 00 	jmp	0xa2	; 0xa2 <__bad_interrupt>
  50:	0c 94 51 00 	jmp	0xa2	; 0xa2 <__bad_interrupt>
  54:	0c 94 51 00 	jmp	0xa2	; 0xa2 <__bad_interrupt>
  58:	0c 94 51 00 	jmp	0xa2	; 0xa2 <__bad_interrupt>
  5c:	0c 94 51 00 	jmp	0xa2	; 0xa2 <__bad_interrupt>
  60:	0c 94 51 00 	jmp	0xa2	; 0xa2 <__bad_interrupt>
  64:	0c 94 51 00 	jmp	0xa2	; 0xa2 <__bad_interrupt>

00000068 <__ctors_end>:
  68:	11 24       	eor	r1, r1
  6a:	1f be       	out	0x3f, r1	; 63
  6c:	cf ef       	ldi	r28, 0xFF	; 255
  6e:	d8 e0       	ldi	r29, 0x08	; 8
  70:	de bf       	out	0x3e, r29	; 62
  72:	cd bf       	out	0x3d, r28	; 61

00000074 <__do_copy_data>:
  74:	11 e0       	ldi	r17, 0x01	; 1
  76:	a0 e0       	ldi	r26, 0x00	; 0
  78:	b1 e0       	ldi	r27, 0x01	; 1
  7a:	e6 e2       	ldi	r30, 0x26	; 38
  7c:	f9 e0       	ldi	r31, 0x09	; 9
  7e:	02 c0       	rjmp	.+4      	; 0x84 <.do_copy_data_start>

00000080 <.do_copy_data_loop>:
  80:	05 90       	lpm	r0, Z+
  82:	0d 92       	st	X+, r0

00000084 <.do_copy_data_start>:
  84:	ac 30       	cpi	r26, 0x0C	; 12
  86:	b1 07       	cpc	r27, r17
  88:	d9 f7       	brne	.-10     	; 0x80 <.do_copy_data_loop>

0000008a <__do_clear_bss>:
  8a:	11 e0       	ldi	r17, 0x01	; 1
  8c:	ac e0       	ldi	r26, 0x0C	; 12
  8e:	b1 e0       	ldi	r27, 0x01	; 1
  90:	01 c0       	rjmp	.+2      	; 0x94 <.do_clear_bss_start>

00000092 <.do_clear_bss_loop>:
  92:	1d 92       	st	X+, r1

00000094 <.do_clear_bss_start>:
  94:	af 30       	cpi	r26, 0x0F	; 15
  96:	b1 07       	cpc	r27, r17
  98:	e1 f7       	brne	.-8      	; 0x92 <.do_clear_bss_loop>
  9a:	0e 94 d0 03 	call	0x7a0	; 0x7a0 <main>
  9e:	0c 94 91 04 	jmp	0x922	; 0x922 <_exit>

000000a2 <__bad_interrupt>:
  a2:	0c 94 00 00 	jmp	0	; 0x0 <__vectors>

000000a6 <_LCD_OutNibble>:
  a6:	80 ff       	sbrs	r24, 0
  a8:	02 c0       	rjmp	.+4      	; 0xae <_LCD_OutNibble+0x8>
  aa:	5f 9a       	sbi	0x0b, 7	; 11
  ac:	01 c0       	rjmp	.+2      	; 0xb0 <_LCD_OutNibble+0xa>
  ae:	5f 98       	cbi	0x0b, 7	; 11
  b0:	81 ff       	sbrs	r24, 1
  b2:	02 c0       	rjmp	.+4      	; 0xb8 <_LCD_OutNibble+0x12>
  b4:	5e 9a       	sbi	0x0b, 6	; 11
  b6:	01 c0       	rjmp	.+2      	; 0xba <_LCD_OutNibble+0x14>
  b8:	5e 98       	cbi	0x0b, 6	; 11
  ba:	82 ff       	sbrs	r24, 2
  bc:	02 c0       	rjmp	.+4      	; 0xc2 <_LCD_OutNibble+0x1c>
  be:	5d 9a       	sbi	0x0b, 5	; 11
  c0:	01 c0       	rjmp	.+2      	; 0xc4 <_LCD_OutNibble+0x1e>
  c2:	5d 98       	cbi	0x0b, 5	; 11
  c4:	83 ff       	sbrs	r24, 3
  c6:	02 c0       	rjmp	.+4      	; 0xcc <_LCD_OutNibble+0x26>
  c8:	2f 9a       	sbi	0x05, 7	; 5
  ca:	08 95       	ret
  cc:	2f 98       	cbi	0x05, 7	; 5
  ce:	08 95       	ret

000000d0 <_LCD_InNibble>:
  d0:	89 b1       	in	r24, 0x09	; 9
  d2:	88 1f       	adc	r24, r24
  d4:	88 27       	eor	r24, r24
  d6:	88 1f       	adc	r24, r24
  d8:	4e 99       	sbic	0x09, 6	; 9
  da:	82 60       	ori	r24, 0x02	; 2
  dc:	4d 99       	sbic	0x09, 5	; 9
  de:	84 60       	ori	r24, 0x04	; 4
  e0:	1f 99       	sbic	0x03, 7	; 3
  e2:	88 60       	ori	r24, 0x08	; 8
  e4:	08 95       	ret

000000e6 <_LCD_Read>:
  e6:	1f 93       	push	r17
  e8:	57 98       	cbi	0x0a, 7	; 10
  ea:	56 98       	cbi	0x0a, 6	; 10
  ec:	55 98       	cbi	0x0a, 5	; 10
  ee:	27 98       	cbi	0x04, 7	; 4
  f0:	29 9a       	sbi	0x05, 1	; 5
  f2:	28 9a       	sbi	0x05, 0	; 5
  f4:	0e 94 68 00 	call	0xd0	; 0xd0 <_LCD_InNibble>
  f8:	18 2f       	mov	r17, r24
  fa:	12 95       	swap	r17
  fc:	10 7f       	andi	r17, 0xF0	; 240
  fe:	28 98       	cbi	0x05, 0	; 5
 100:	28 9a       	sbi	0x05, 0	; 5
 102:	0e 94 68 00 	call	0xd0	; 0xd0 <_LCD_InNibble>
 106:	28 98       	cbi	0x05, 0	; 5
 108:	81 2b       	or	r24, r17
 10a:	1f 91       	pop	r17
 10c:	08 95       	ret

0000010e <LCD_ReadStatus>:
 10e:	2a 98       	cbi	0x05, 2	; 5
 110:	0e 94 73 00 	call	0xe6	; 0xe6 <_LCD_Read>
 114:	08 95       	ret

00000116 <_LCD_Write>:
 116:	1f 93       	push	r17
 118:	18 2f       	mov	r17, r24
 11a:	57 9a       	sbi	0x0a, 7	; 10
 11c:	56 9a       	sbi	0x0a, 6	; 10
 11e:	55 9a       	sbi	0x0a, 5	; 10
 120:	27 9a       	sbi	0x04, 7	; 4
 122:	29 98       	cbi	0x05, 1	; 5
 124:	28 9a       	sbi	0x05, 0	; 5
 126:	82 95       	swap	r24
 128:	8f 70       	andi	r24, 0x0F	; 15
 12a:	0e 94 53 00 	call	0xa6	; 0xa6 <_LCD_OutNibble>
 12e:	28 98       	cbi	0x05, 0	; 5
 130:	28 9a       	sbi	0x05, 0	; 5
 132:	81 2f       	mov	r24, r17
 134:	0e 94 53 00 	call	0xa6	; 0xa6 <_LCD_OutNibble>
 138:	28 98       	cbi	0x05, 0	; 5
 13a:	0e 94 87 00 	call	0x10e	; 0x10e <LCD_ReadStatus>
 13e:	87 fd       	sbrc	r24, 7
 140:	fc cf       	rjmp	.-8      	; 0x13a <_LCD_Write+0x24>
 142:	1f 91       	pop	r17
 144:	08 95       	ret

00000146 <LCD_WriteCommand>:
 146:	2a 98       	cbi	0x05, 2	; 5
 148:	0e 94 8b 00 	call	0x116	; 0x116 <_LCD_Write>
 14c:	08 95       	ret

0000014e <LCD_WriteData>:
 14e:	2a 9a       	sbi	0x05, 2	; 5
 150:	0e 94 8b 00 	call	0x116	; 0x116 <_LCD_Write>
 154:	08 95       	ret

00000156 <LCD_ReadData>:
 156:	2a 9a       	sbi	0x05, 2	; 5
 158:	0e 94 73 00 	call	0xe6	; 0xe6 <_LCD_Read>
 15c:	08 95       	ret

0000015e <LCD_WriteText>:
 15e:	cf 93       	push	r28
 160:	df 93       	push	r29
 162:	ec 01       	movw	r28, r24
 164:	03 c0       	rjmp	.+6      	; 0x16c <LCD_WriteText+0xe>
 166:	21 96       	adiw	r28, 0x01	; 1
 168:	0e 94 a7 00 	call	0x14e	; 0x14e <LCD_WriteData>
 16c:	88 81       	ld	r24, Y
 16e:	88 23       	and	r24, r24
 170:	d1 f7       	brne	.-12     	; 0x166 <LCD_WriteText+0x8>
 172:	df 91       	pop	r29
 174:	cf 91       	pop	r28
 176:	08 95       	ret

00000178 <LCD_GoTo>:
 178:	62 95       	swap	r22
 17a:	66 0f       	add	r22, r22
 17c:	66 0f       	add	r22, r22
 17e:	60 7c       	andi	r22, 0xC0	; 192
 180:	68 0f       	add	r22, r24
 182:	86 2f       	mov	r24, r22
 184:	80 68       	ori	r24, 0x80	; 128
 186:	0e 94 a3 00 	call	0x146	; 0x146 <LCD_WriteCommand>
 18a:	08 95       	ret

0000018c <LCD_Clear>:
 18c:	81 e0       	ldi	r24, 0x01	; 1
 18e:	0e 94 a3 00 	call	0x146	; 0x146 <LCD_WriteCommand>
 192:	80 ea       	ldi	r24, 0xA0	; 160
 194:	9f e0       	ldi	r25, 0x0F	; 15
 196:	01 97       	sbiw	r24, 0x01	; 1
 198:	f1 f7       	brne	.-4      	; 0x196 <LCD_Clear+0xa>
 19a:	08 95       	ret

0000019c <LCD_Home>:
 19c:	82 e0       	ldi	r24, 0x02	; 2
 19e:	0e 94 a3 00 	call	0x146	; 0x146 <LCD_WriteCommand>
 1a2:	80 ea       	ldi	r24, 0xA0	; 160
 1a4:	9f e0       	ldi	r25, 0x0F	; 15
 1a6:	01 97       	sbiw	r24, 0x01	; 1
 1a8:	f1 f7       	brne	.-4      	; 0x1a6 <LCD_Home+0xa>
 1aa:	08 95       	ret

000001ac <LCD_Initalize>:
 1ac:	1f 93       	push	r17
 1ae:	cf 93       	push	r28
 1b0:	df 93       	push	r29
 1b2:	57 9a       	sbi	0x0a, 7	; 10
 1b4:	56 9a       	sbi	0x0a, 6	; 10
 1b6:	55 9a       	sbi	0x0a, 5	; 10
 1b8:	27 9a       	sbi	0x04, 7	; 4
 1ba:	20 9a       	sbi	0x04, 0	; 4
 1bc:	22 9a       	sbi	0x04, 2	; 4
 1be:	21 9a       	sbi	0x04, 1	; 4
 1c0:	80 e3       	ldi	r24, 0x30	; 48
 1c2:	95 e7       	ldi	r25, 0x75	; 117
 1c4:	01 97       	sbiw	r24, 0x01	; 1
 1c6:	f1 f7       	brne	.-4      	; 0x1c4 <LCD_Initalize+0x18>
 1c8:	2a 98       	cbi	0x05, 2	; 5
 1ca:	28 98       	cbi	0x05, 0	; 5
 1cc:	29 98       	cbi	0x05, 1	; 5
 1ce:	10 e0       	ldi	r17, 0x00	; 0
 1d0:	c0 e1       	ldi	r28, 0x10	; 16
 1d2:	d7 e2       	ldi	r29, 0x27	; 39
 1d4:	28 9a       	sbi	0x05, 0	; 5
 1d6:	83 e0       	ldi	r24, 0x03	; 3
 1d8:	0e 94 53 00 	call	0xa6	; 0xa6 <_LCD_OutNibble>
 1dc:	28 98       	cbi	0x05, 0	; 5
 1de:	ce 01       	movw	r24, r28
 1e0:	01 97       	sbiw	r24, 0x01	; 1
 1e2:	f1 f7       	brne	.-4      	; 0x1e0 <LCD_Initalize+0x34>
 1e4:	1f 5f       	subi	r17, 0xFF	; 255
 1e6:	13 30       	cpi	r17, 0x03	; 3
 1e8:	a9 f7       	brne	.-22     	; 0x1d4 <LCD_Initalize+0x28>
 1ea:	28 9a       	sbi	0x05, 0	; 5
 1ec:	82 e0       	ldi	r24, 0x02	; 2
 1ee:	0e 94 53 00 	call	0xa6	; 0xa6 <_LCD_OutNibble>
 1f2:	28 98       	cbi	0x05, 0	; 5
 1f4:	80 ed       	ldi	r24, 0xD0	; 208
 1f6:	97 e0       	ldi	r25, 0x07	; 7
 1f8:	01 97       	sbiw	r24, 0x01	; 1
 1fa:	f1 f7       	brne	.-4      	; 0x1f8 <LCD_Initalize+0x4c>
 1fc:	88 e2       	ldi	r24, 0x28	; 40
 1fe:	0e 94 a3 00 	call	0x146	; 0x146 <LCD_WriteCommand>
 202:	88 e0       	ldi	r24, 0x08	; 8
 204:	0e 94 a3 00 	call	0x146	; 0x146 <LCD_WriteCommand>
 208:	81 e0       	ldi	r24, 0x01	; 1
 20a:	0e 94 a3 00 	call	0x146	; 0x146 <LCD_WriteCommand>
 20e:	86 e0       	ldi	r24, 0x06	; 6
 210:	0e 94 a3 00 	call	0x146	; 0x146 <LCD_WriteCommand>
 214:	8f e0       	ldi	r24, 0x0F	; 15
 216:	0e 94 a3 00 	call	0x146	; 0x146 <LCD_WriteCommand>
 21a:	df 91       	pop	r29
 21c:	cf 91       	pop	r28
 21e:	1f 91       	pop	r17
 220:	08 95       	ret

00000222 <BCD_to_dec>:
 222:	28 2f       	mov	r18, r24
 224:	8f 70       	andi	r24, 0x0F	; 15
 226:	2f 77       	andi	r18, 0x7F	; 127
 228:	22 95       	swap	r18
 22a:	2f 70       	andi	r18, 0x0F	; 15
 22c:	9a e0       	ldi	r25, 0x0A	; 10
 22e:	29 9f       	mul	r18, r25
 230:	90 01       	movw	r18, r0
 232:	11 24       	eor	r1, r1
 234:	82 0f       	add	r24, r18
 236:	08 95       	ret

00000238 <number_to_string>:
 238:	8f 92       	push	r8
 23a:	9f 92       	push	r9
 23c:	af 92       	push	r10
 23e:	bf 92       	push	r11
 240:	cf 92       	push	r12
 242:	df 92       	push	r13
 244:	ef 92       	push	r14
 246:	ff 92       	push	r15
 248:	0f 93       	push	r16
 24a:	1f 93       	push	r17
 24c:	df 93       	push	r29
 24e:	cf 93       	push	r28
 250:	cd b7       	in	r28, 0x3d	; 61
 252:	de b7       	in	r29, 0x3e	; 62
 254:	2b 97       	sbiw	r28, 0x0b	; 11
 256:	0f b6       	in	r0, 0x3f	; 63
 258:	f8 94       	cli
 25a:	de bf       	out	0x3e, r29	; 62
 25c:	0f be       	out	0x3f, r0	; 63
 25e:	cd bf       	out	0x3d, r28	; 61
 260:	7b 01       	movw	r14, r22
 262:	8c 01       	movw	r16, r24
 264:	94 2e       	mov	r9, r20
 266:	85 2e       	mov	r8, r21
 268:	de 01       	movw	r26, r28
 26a:	11 96       	adiw	r26, 0x01	; 1
 26c:	e0 e0       	ldi	r30, 0x00	; 0
 26e:	f1 e0       	ldi	r31, 0x01	; 1
 270:	8b e0       	ldi	r24, 0x0B	; 11
 272:	01 90       	ld	r0, Z+
 274:	0d 92       	st	X+, r0
 276:	81 50       	subi	r24, 0x01	; 1
 278:	e1 f7       	brne	.-8      	; 0x272 <number_to_string+0x3a>
 27a:	a7 01       	movw	r20, r14
 27c:	89 2d       	mov	r24, r9
 27e:	98 2d       	mov	r25, r8
 280:	9c 01       	movw	r18, r24
 282:	69 01       	movw	r12, r18
 284:	08 94       	sec
 286:	c1 1c       	adc	r12, r1
 288:	d1 1c       	adc	r13, r1
 28a:	ca 01       	movw	r24, r20
 28c:	6a e0       	ldi	r22, 0x0A	; 10
 28e:	70 e0       	ldi	r23, 0x00	; 0
 290:	0e 94 48 04 	call	0x890	; 0x890 <__divmodhi4>
 294:	ab 01       	movw	r20, r22
 296:	61 15       	cp	r22, r1
 298:	71 05       	cpc	r23, r1
 29a:	a1 f7       	brne	.-24     	; 0x284 <number_to_string+0x4c>
 29c:	f6 01       	movw	r30, r12
 29e:	10 82       	st	Z, r1
 2a0:	5e 01       	movw	r10, r28
 2a2:	08 94       	sec
 2a4:	a1 1c       	adc	r10, r1
 2a6:	b1 1c       	adc	r11, r1
 2a8:	c8 01       	movw	r24, r16
 2aa:	b7 01       	movw	r22, r14
 2ac:	2a e0       	ldi	r18, 0x0A	; 10
 2ae:	30 e0       	ldi	r19, 0x00	; 0
 2b0:	40 e0       	ldi	r20, 0x00	; 0
 2b2:	50 e0       	ldi	r21, 0x00	; 0
 2b4:	0e 94 5b 04 	call	0x8b6	; 0x8b6 <__udivmodsi4>
 2b8:	f5 01       	movw	r30, r10
 2ba:	e6 0f       	add	r30, r22
 2bc:	f7 1f       	adc	r31, r23
 2be:	80 81       	ld	r24, Z
 2c0:	f6 01       	movw	r30, r12
 2c2:	82 93       	st	-Z, r24
 2c4:	6f 01       	movw	r12, r30
 2c6:	c8 01       	movw	r24, r16
 2c8:	b7 01       	movw	r22, r14
 2ca:	2a e0       	ldi	r18, 0x0A	; 10
 2cc:	30 e0       	ldi	r19, 0x00	; 0
 2ce:	40 e0       	ldi	r20, 0x00	; 0
 2d0:	50 e0       	ldi	r21, 0x00	; 0
 2d2:	0e 94 5b 04 	call	0x8b6	; 0x8b6 <__udivmodsi4>
 2d6:	c9 01       	movw	r24, r18
 2d8:	da 01       	movw	r26, r20
 2da:	7c 01       	movw	r14, r24
 2dc:	8d 01       	movw	r16, r26
 2de:	e1 14       	cp	r14, r1
 2e0:	f1 04       	cpc	r15, r1
 2e2:	01 05       	cpc	r16, r1
 2e4:	11 05       	cpc	r17, r1
 2e6:	01 f7       	brne	.-64     	; 0x2a8 <number_to_string+0x70>
 2e8:	89 2d       	mov	r24, r9
 2ea:	98 2d       	mov	r25, r8
 2ec:	2b 96       	adiw	r28, 0x0b	; 11
 2ee:	0f b6       	in	r0, 0x3f	; 63
 2f0:	f8 94       	cli
 2f2:	de bf       	out	0x3e, r29	; 62
 2f4:	0f be       	out	0x3f, r0	; 63
 2f6:	cd bf       	out	0x3d, r28	; 61
 2f8:	cf 91       	pop	r28
 2fa:	df 91       	pop	r29
 2fc:	1f 91       	pop	r17
 2fe:	0f 91       	pop	r16
 300:	ff 90       	pop	r15
 302:	ef 90       	pop	r14
 304:	df 90       	pop	r13
 306:	cf 90       	pop	r12
 308:	bf 90       	pop	r11
 30a:	af 90       	pop	r10
 30c:	9f 90       	pop	r9
 30e:	8f 90       	pop	r8
 310:	08 95       	ret

00000312 <TWI_start>:
 312:	84 ea       	ldi	r24, 0xA4	; 164
 314:	80 93 bc 00 	sts	0x00BC, r24
 318:	80 91 bc 00 	lds	r24, 0x00BC
 31c:	87 ff       	sbrs	r24, 7
 31e:	fc cf       	rjmp	.-8      	; 0x318 <TWI_start+0x6>
 320:	08 95       	ret

00000322 <TWI_stop>:
 322:	84 e9       	ldi	r24, 0x94	; 148
 324:	80 93 bc 00 	sts	0x00BC, r24
 328:	80 91 bc 00 	lds	r24, 0x00BC
 32c:	84 fd       	sbrc	r24, 4
 32e:	fc cf       	rjmp	.-8      	; 0x328 <TWI_stop+0x6>
 330:	08 95       	ret

00000332 <TWI_write>:
 332:	80 93 bb 00 	sts	0x00BB, r24
 336:	84 e8       	ldi	r24, 0x84	; 132
 338:	80 93 bc 00 	sts	0x00BC, r24
 33c:	80 91 bc 00 	lds	r24, 0x00BC
 340:	87 ff       	sbrs	r24, 7
 342:	fc cf       	rjmp	.-8      	; 0x33c <TWI_write+0xa>
 344:	08 95       	ret

00000346 <TWI_read>:
 346:	88 23       	and	r24, r24
 348:	11 f4       	brne	.+4      	; 0x34e <TWI_read+0x8>
 34a:	84 e8       	ldi	r24, 0x84	; 132
 34c:	01 c0       	rjmp	.+2      	; 0x350 <TWI_read+0xa>
 34e:	84 ec       	ldi	r24, 0xC4	; 196
 350:	80 93 bc 00 	sts	0x00BC, r24
 354:	80 91 bc 00 	lds	r24, 0x00BC
 358:	87 ff       	sbrs	r24, 7
 35a:	fc cf       	rjmp	.-8      	; 0x354 <TWI_read+0xe>
 35c:	80 91 bb 00 	lds	r24, 0x00BB
 360:	08 95       	ret

00000362 <TWI_write_buf>:
 362:	98 2f       	mov	r25, r24
 364:	f9 01       	movw	r30, r18
 366:	84 ea       	ldi	r24, 0xA4	; 164
 368:	80 93 bc 00 	sts	0x00BC, r24
 36c:	80 91 bc 00 	lds	r24, 0x00BC
 370:	87 ff       	sbrs	r24, 7
 372:	fc cf       	rjmp	.-8      	; 0x36c <TWI_write_buf+0xa>
 374:	90 93 bb 00 	sts	0x00BB, r25
 378:	84 e8       	ldi	r24, 0x84	; 132
 37a:	80 93 bc 00 	sts	0x00BC, r24
 37e:	80 91 bc 00 	lds	r24, 0x00BC
 382:	87 ff       	sbrs	r24, 7
 384:	fc cf       	rjmp	.-8      	; 0x37e <TWI_write_buf+0x1c>
 386:	60 93 bb 00 	sts	0x00BB, r22
 38a:	84 e8       	ldi	r24, 0x84	; 132
 38c:	80 93 bc 00 	sts	0x00BC, r24
 390:	80 91 bc 00 	lds	r24, 0x00BC
 394:	87 ff       	sbrs	r24, 7
 396:	fc cf       	rjmp	.-8      	; 0x390 <TWI_write_buf+0x2e>
 398:	0c c0       	rjmp	.+24     	; 0x3b2 <TWI_write_buf+0x50>
 39a:	80 81       	ld	r24, Z
 39c:	80 93 bb 00 	sts	0x00BB, r24
 3a0:	90 93 bc 00 	sts	0x00BC, r25
 3a4:	80 91 bc 00 	lds	r24, 0x00BC
 3a8:	87 ff       	sbrs	r24, 7
 3aa:	fc cf       	rjmp	.-8      	; 0x3a4 <TWI_write_buf+0x42>
 3ac:	31 96       	adiw	r30, 0x01	; 1
 3ae:	41 50       	subi	r20, 0x01	; 1
 3b0:	01 c0       	rjmp	.+2      	; 0x3b4 <TWI_write_buf+0x52>
 3b2:	94 e8       	ldi	r25, 0x84	; 132
 3b4:	44 23       	and	r20, r20
 3b6:	89 f7       	brne	.-30     	; 0x39a <TWI_write_buf+0x38>
 3b8:	84 e9       	ldi	r24, 0x94	; 148
 3ba:	80 93 bc 00 	sts	0x00BC, r24
 3be:	80 91 bc 00 	lds	r24, 0x00BC
 3c2:	84 fd       	sbrc	r24, 4
 3c4:	fc cf       	rjmp	.-8      	; 0x3be <TWI_write_buf+0x5c>
 3c6:	08 95       	ret

000003c8 <TWI_read_buf>:
 3c8:	98 2f       	mov	r25, r24
 3ca:	f9 01       	movw	r30, r18
 3cc:	84 ea       	ldi	r24, 0xA4	; 164
 3ce:	80 93 bc 00 	sts	0x00BC, r24
 3d2:	80 91 bc 00 	lds	r24, 0x00BC
 3d6:	87 ff       	sbrs	r24, 7
 3d8:	fc cf       	rjmp	.-8      	; 0x3d2 <TWI_read_buf+0xa>
 3da:	90 93 bb 00 	sts	0x00BB, r25
 3de:	84 e8       	ldi	r24, 0x84	; 132
 3e0:	80 93 bc 00 	sts	0x00BC, r24
 3e4:	80 91 bc 00 	lds	r24, 0x00BC
 3e8:	87 ff       	sbrs	r24, 7
 3ea:	fc cf       	rjmp	.-8      	; 0x3e4 <TWI_read_buf+0x1c>
 3ec:	60 93 bb 00 	sts	0x00BB, r22
 3f0:	84 e8       	ldi	r24, 0x84	; 132
 3f2:	80 93 bc 00 	sts	0x00BC, r24
 3f6:	80 91 bc 00 	lds	r24, 0x00BC
 3fa:	87 ff       	sbrs	r24, 7
 3fc:	fc cf       	rjmp	.-8      	; 0x3f6 <TWI_read_buf+0x2e>
 3fe:	84 ea       	ldi	r24, 0xA4	; 164
 400:	80 93 bc 00 	sts	0x00BC, r24
 404:	80 91 bc 00 	lds	r24, 0x00BC
 408:	87 ff       	sbrs	r24, 7
 40a:	fc cf       	rjmp	.-8      	; 0x404 <TWI_read_buf+0x3c>
 40c:	9f 5f       	subi	r25, 0xFF	; 255
 40e:	90 93 bb 00 	sts	0x00BB, r25
 412:	84 e8       	ldi	r24, 0x84	; 132
 414:	80 93 bc 00 	sts	0x00BC, r24
 418:	80 91 bc 00 	lds	r24, 0x00BC
 41c:	87 ff       	sbrs	r24, 7
 41e:	fc cf       	rjmp	.-8      	; 0x418 <TWI_read_buf+0x50>
 420:	0e c0       	rjmp	.+28     	; 0x43e <TWI_read_buf+0x76>
 422:	41 50       	subi	r20, 0x01	; 1
 424:	11 f4       	brne	.+4      	; 0x42a <TWI_read_buf+0x62>
 426:	84 e8       	ldi	r24, 0x84	; 132
 428:	01 c0       	rjmp	.+2      	; 0x42c <TWI_read_buf+0x64>
 42a:	84 ec       	ldi	r24, 0xC4	; 196
 42c:	80 93 bc 00 	sts	0x00BC, r24
 430:	80 91 bc 00 	lds	r24, 0x00BC
 434:	87 ff       	sbrs	r24, 7
 436:	fc cf       	rjmp	.-8      	; 0x430 <TWI_read_buf+0x68>
 438:	80 91 bb 00 	lds	r24, 0x00BB
 43c:	81 93       	st	Z+, r24
 43e:	44 23       	and	r20, r20
 440:	81 f7       	brne	.-32     	; 0x422 <TWI_read_buf+0x5a>
 442:	84 e9       	ldi	r24, 0x94	; 148
 444:	80 93 bc 00 	sts	0x00BC, r24
 448:	80 91 bc 00 	lds	r24, 0x00BC
 44c:	84 fd       	sbrc	r24, 4
 44e:	fc cf       	rjmp	.-8      	; 0x448 <TWI_read_buf+0x80>
 450:	08 95       	ret

00000452 <TWI_SetBusSpeed>:
 452:	9c 01       	movw	r18, r24
 454:	40 e0       	ldi	r20, 0x00	; 0
 456:	50 e0       	ldi	r21, 0x00	; 0
 458:	60 e8       	ldi	r22, 0x80	; 128
 45a:	78 e3       	ldi	r23, 0x38	; 56
 45c:	81 e0       	ldi	r24, 0x01	; 1
 45e:	90 e0       	ldi	r25, 0x00	; 0
 460:	0e 94 5b 04 	call	0x8b6	; 0x8b6 <__udivmodsi4>
 464:	20 51       	subi	r18, 0x10	; 16
 466:	30 40       	sbci	r19, 0x00	; 0
 468:	40 40       	sbci	r20, 0x00	; 0
 46a:	50 40       	sbci	r21, 0x00	; 0
 46c:	56 95       	lsr	r21
 46e:	47 95       	ror	r20
 470:	37 95       	ror	r19
 472:	27 95       	ror	r18
 474:	90 e0       	ldi	r25, 0x00	; 0
 476:	05 c0       	rjmp	.+10     	; 0x482 <TWI_SetBusSpeed+0x30>
 478:	9f 5f       	subi	r25, 0xFF	; 255
 47a:	36 95       	lsr	r19
 47c:	27 95       	ror	r18
 47e:	36 95       	lsr	r19
 480:	27 95       	ror	r18
 482:	2f 3f       	cpi	r18, 0xFF	; 255
 484:	31 05       	cpc	r19, r1
 486:	09 f0       	breq	.+2      	; 0x48a <TWI_SetBusSpeed+0x38>
 488:	b8 f7       	brcc	.-18     	; 0x478 <TWI_SetBusSpeed+0x26>
 48a:	80 91 b9 00 	lds	r24, 0x00B9
 48e:	83 70       	andi	r24, 0x03	; 3
 490:	98 2b       	or	r25, r24
 492:	90 93 b9 00 	sts	0x00B9, r25
 496:	20 93 b8 00 	sts	0x00B8, r18
 49a:	84 e4       	ldi	r24, 0x44	; 68
 49c:	80 93 bc 00 	sts	0x00BC, r24
 4a0:	08 95       	ret

000004a2 <i2c_read>:
 4a2:	df 93       	push	r29
 4a4:	cf 93       	push	r28
 4a6:	00 d0       	rcall	.+0      	; 0x4a8 <i2c_read+0x6>
 4a8:	cd b7       	in	r28, 0x3d	; 61
 4aa:	de b7       	in	r29, 0x3e	; 62
 4ac:	48 2f       	mov	r20, r24
 4ae:	1a 82       	std	Y+2, r1	; 0x02
 4b0:	19 82       	std	Y+1, r1	; 0x01
 4b2:	2e 9a       	sbi	0x05, 6	; 5
 4b4:	26 98       	cbi	0x04, 6	; 4
 4b6:	28 e0       	ldi	r18, 0x08	; 8
 4b8:	30 e0       	ldi	r19, 0x00	; 0
 4ba:	1a 82       	std	Y+2, r1	; 0x02
 4bc:	19 82       	std	Y+1, r1	; 0x01
 4be:	05 c0       	rjmp	.+10     	; 0x4ca <i2c_read+0x28>
 4c0:	89 81       	ldd	r24, Y+1	; 0x01
 4c2:	9a 81       	ldd	r25, Y+2	; 0x02
 4c4:	01 96       	adiw	r24, 0x01	; 1
 4c6:	9a 83       	std	Y+2, r25	; 0x02
 4c8:	89 83       	std	Y+1, r24	; 0x01
 4ca:	89 81       	ldd	r24, Y+1	; 0x01
 4cc:	9a 81       	ldd	r25, Y+2	; 0x02
 4ce:	02 97       	sbiw	r24, 0x02	; 2
 4d0:	b8 f3       	brcs	.-18     	; 0x4c0 <i2c_read+0x1e>
 4d2:	2f 9a       	sbi	0x05, 7	; 5
 4d4:	1a 82       	std	Y+2, r1	; 0x02
 4d6:	19 82       	std	Y+1, r1	; 0x01
 4d8:	05 c0       	rjmp	.+10     	; 0x4e4 <i2c_read+0x42>
 4da:	89 81       	ldd	r24, Y+1	; 0x01
 4dc:	9a 81       	ldd	r25, Y+2	; 0x02
 4de:	01 96       	adiw	r24, 0x01	; 1
 4e0:	9a 83       	std	Y+2, r25	; 0x02
 4e2:	89 83       	std	Y+1, r24	; 0x01
 4e4:	89 81       	ldd	r24, Y+1	; 0x01
 4e6:	9a 81       	ldd	r25, Y+2	; 0x02
 4e8:	02 97       	sbiw	r24, 0x02	; 2
 4ea:	b8 f3       	brcs	.-18     	; 0x4da <i2c_read+0x38>
 4ec:	33 0f       	add	r19, r19
 4ee:	1e 99       	sbic	0x03, 6	; 3
 4f0:	3f 5f       	subi	r19, 0xFF	; 255
 4f2:	2f 98       	cbi	0x05, 7	; 5
 4f4:	21 50       	subi	r18, 0x01	; 1
 4f6:	09 f7       	brne	.-62     	; 0x4ba <i2c_read+0x18>
 4f8:	41 11       	cpse	r20, r1
 4fa:	2e 9a       	sbi	0x05, 6	; 5
 4fc:	1a 82       	std	Y+2, r1	; 0x02
 4fe:	19 82       	std	Y+1, r1	; 0x01
 500:	05 c0       	rjmp	.+10     	; 0x50c <i2c_read+0x6a>
 502:	89 81       	ldd	r24, Y+1	; 0x01
 504:	9a 81       	ldd	r25, Y+2	; 0x02
 506:	01 96       	adiw	r24, 0x01	; 1
 508:	9a 83       	std	Y+2, r25	; 0x02
 50a:	89 83       	std	Y+1, r24	; 0x01
 50c:	89 81       	ldd	r24, Y+1	; 0x01
 50e:	9a 81       	ldd	r25, Y+2	; 0x02
 510:	02 97       	sbiw	r24, 0x02	; 2
 512:	b8 f3       	brcs	.-18     	; 0x502 <i2c_read+0x60>
 514:	2f 9a       	sbi	0x05, 7	; 5
 516:	1a 82       	std	Y+2, r1	; 0x02
 518:	19 82       	std	Y+1, r1	; 0x01
 51a:	05 c0       	rjmp	.+10     	; 0x526 <i2c_read+0x84>
 51c:	89 81       	ldd	r24, Y+1	; 0x01
 51e:	9a 81       	ldd	r25, Y+2	; 0x02
 520:	01 96       	adiw	r24, 0x01	; 1
 522:	9a 83       	std	Y+2, r25	; 0x02
 524:	89 83       	std	Y+1, r24	; 0x01
 526:	89 81       	ldd	r24, Y+1	; 0x01
 528:	9a 81       	ldd	r25, Y+2	; 0x02
 52a:	02 97       	sbiw	r24, 0x02	; 2
 52c:	b8 f3       	brcs	.-18     	; 0x51c <i2c_read+0x7a>
 52e:	2f 98       	cbi	0x05, 7	; 5
 530:	83 2f       	mov	r24, r19
 532:	0f 90       	pop	r0
 534:	0f 90       	pop	r0
 536:	cf 91       	pop	r28
 538:	df 91       	pop	r29
 53a:	08 95       	ret

0000053c <i2c_send>:
 53c:	df 93       	push	r29
 53e:	cf 93       	push	r28
 540:	00 d0       	rcall	.+0      	; 0x542 <i2c_send+0x6>
 542:	cd b7       	in	r28, 0x3d	; 61
 544:	de b7       	in	r29, 0x3e	; 62
 546:	38 2f       	mov	r19, r24
 548:	1a 82       	std	Y+2, r1	; 0x02
 54a:	19 82       	std	Y+1, r1	; 0x01
 54c:	29 e0       	ldi	r18, 0x09	; 9
 54e:	2f 98       	cbi	0x05, 7	; 5
 550:	37 ff       	sbrs	r19, 7
 552:	02 c0       	rjmp	.+4      	; 0x558 <i2c_send+0x1c>
 554:	2e 9a       	sbi	0x05, 6	; 5
 556:	01 c0       	rjmp	.+2      	; 0x55a <i2c_send+0x1e>
 558:	2e 98       	cbi	0x05, 6	; 5
 55a:	1a 82       	std	Y+2, r1	; 0x02
 55c:	19 82       	std	Y+1, r1	; 0x01
 55e:	05 c0       	rjmp	.+10     	; 0x56a <i2c_send+0x2e>
 560:	89 81       	ldd	r24, Y+1	; 0x01
 562:	9a 81       	ldd	r25, Y+2	; 0x02
 564:	01 96       	adiw	r24, 0x01	; 1
 566:	9a 83       	std	Y+2, r25	; 0x02
 568:	89 83       	std	Y+1, r24	; 0x01
 56a:	89 81       	ldd	r24, Y+1	; 0x01
 56c:	9a 81       	ldd	r25, Y+2	; 0x02
 56e:	02 97       	sbiw	r24, 0x02	; 2
 570:	b8 f3       	brcs	.-18     	; 0x560 <i2c_send+0x24>
 572:	2f 9a       	sbi	0x05, 7	; 5
 574:	1a 82       	std	Y+2, r1	; 0x02
 576:	19 82       	std	Y+1, r1	; 0x01
 578:	05 c0       	rjmp	.+10     	; 0x584 <i2c_send+0x48>
 57a:	89 81       	ldd	r24, Y+1	; 0x01
 57c:	9a 81       	ldd	r25, Y+2	; 0x02
 57e:	01 96       	adiw	r24, 0x01	; 1
 580:	9a 83       	std	Y+2, r25	; 0x02
 582:	89 83       	std	Y+1, r24	; 0x01
 584:	89 81       	ldd	r24, Y+1	; 0x01
 586:	9a 81       	ldd	r25, Y+2	; 0x02
 588:	02 97       	sbiw	r24, 0x02	; 2
 58a:	b8 f3       	brcs	.-18     	; 0x57a <i2c_send+0x3e>
 58c:	21 50       	subi	r18, 0x01	; 1
 58e:	11 f0       	breq	.+4      	; 0x594 <i2c_send+0x58>
 590:	33 0f       	add	r19, r19
 592:	dd cf       	rjmp	.-70     	; 0x54e <i2c_send+0x12>
 594:	2f 98       	cbi	0x05, 7	; 5
 596:	0f 90       	pop	r0
 598:	0f 90       	pop	r0
 59a:	cf 91       	pop	r28
 59c:	df 91       	pop	r29
 59e:	08 95       	ret

000005a0 <i2c_start>:
 5a0:	df 93       	push	r29
 5a2:	cf 93       	push	r28
 5a4:	00 d0       	rcall	.+0      	; 0x5a6 <i2c_start+0x6>
 5a6:	cd b7       	in	r28, 0x3d	; 61
 5a8:	de b7       	in	r29, 0x3e	; 62
 5aa:	1a 82       	std	Y+2, r1	; 0x02
 5ac:	19 82       	std	Y+1, r1	; 0x01
 5ae:	26 9a       	sbi	0x04, 6	; 4
 5b0:	27 9a       	sbi	0x04, 7	; 4
 5b2:	2e 9a       	sbi	0x05, 6	; 5
 5b4:	2f 9a       	sbi	0x05, 7	; 5
 5b6:	1a 82       	std	Y+2, r1	; 0x02
 5b8:	19 82       	std	Y+1, r1	; 0x01
 5ba:	05 c0       	rjmp	.+10     	; 0x5c6 <i2c_start+0x26>
 5bc:	89 81       	ldd	r24, Y+1	; 0x01
 5be:	9a 81       	ldd	r25, Y+2	; 0x02
 5c0:	01 96       	adiw	r24, 0x01	; 1
 5c2:	9a 83       	std	Y+2, r25	; 0x02
 5c4:	89 83       	std	Y+1, r24	; 0x01
 5c6:	89 81       	ldd	r24, Y+1	; 0x01
 5c8:	9a 81       	ldd	r25, Y+2	; 0x02
 5ca:	02 97       	sbiw	r24, 0x02	; 2
 5cc:	b8 f3       	brcs	.-18     	; 0x5bc <i2c_start+0x1c>
 5ce:	2e 98       	cbi	0x05, 6	; 5
 5d0:	1a 82       	std	Y+2, r1	; 0x02
 5d2:	19 82       	std	Y+1, r1	; 0x01
 5d4:	05 c0       	rjmp	.+10     	; 0x5e0 <i2c_start+0x40>
 5d6:	89 81       	ldd	r24, Y+1	; 0x01
 5d8:	9a 81       	ldd	r25, Y+2	; 0x02
 5da:	01 96       	adiw	r24, 0x01	; 1
 5dc:	9a 83       	std	Y+2, r25	; 0x02
 5de:	89 83       	std	Y+1, r24	; 0x01
 5e0:	89 81       	ldd	r24, Y+1	; 0x01
 5e2:	9a 81       	ldd	r25, Y+2	; 0x02
 5e4:	02 97       	sbiw	r24, 0x02	; 2
 5e6:	b8 f3       	brcs	.-18     	; 0x5d6 <i2c_start+0x36>
 5e8:	2f 98       	cbi	0x05, 7	; 5
 5ea:	0f 90       	pop	r0
 5ec:	0f 90       	pop	r0
 5ee:	cf 91       	pop	r28
 5f0:	df 91       	pop	r29
 5f2:	08 95       	ret

000005f4 <i2c_stop>:
 5f4:	df 93       	push	r29
 5f6:	cf 93       	push	r28
 5f8:	00 d0       	rcall	.+0      	; 0x5fa <i2c_stop+0x6>
 5fa:	cd b7       	in	r28, 0x3d	; 61
 5fc:	de b7       	in	r29, 0x3e	; 62
 5fe:	1a 82       	std	Y+2, r1	; 0x02
 600:	19 82       	std	Y+1, r1	; 0x01
 602:	2e 98       	cbi	0x05, 6	; 5
 604:	1a 82       	std	Y+2, r1	; 0x02
 606:	19 82       	std	Y+1, r1	; 0x01
 608:	05 c0       	rjmp	.+10     	; 0x614 <i2c_stop+0x20>
 60a:	89 81       	ldd	r24, Y+1	; 0x01
 60c:	9a 81       	ldd	r25, Y+2	; 0x02
 60e:	01 96       	adiw	r24, 0x01	; 1
 610:	9a 83       	std	Y+2, r25	; 0x02
 612:	89 83       	std	Y+1, r24	; 0x01
 614:	89 81       	ldd	r24, Y+1	; 0x01
 616:	9a 81       	ldd	r25, Y+2	; 0x02
 618:	02 97       	sbiw	r24, 0x02	; 2
 61a:	b8 f3       	brcs	.-18     	; 0x60a <i2c_stop+0x16>
 61c:	2f 9a       	sbi	0x05, 7	; 5
 61e:	1a 82       	std	Y+2, r1	; 0x02
 620:	19 82       	std	Y+1, r1	; 0x01
 622:	05 c0       	rjmp	.+10     	; 0x62e <i2c_stop+0x3a>
 624:	89 81       	ldd	r24, Y+1	; 0x01
 626:	9a 81       	ldd	r25, Y+2	; 0x02
 628:	01 96       	adiw	r24, 0x01	; 1
 62a:	9a 83       	std	Y+2, r25	; 0x02
 62c:	89 83       	std	Y+1, r24	; 0x01
 62e:	89 81       	ldd	r24, Y+1	; 0x01
 630:	9a 81       	ldd	r25, Y+2	; 0x02
 632:	02 97       	sbiw	r24, 0x02	; 2
 634:	b8 f3       	brcs	.-18     	; 0x624 <i2c_stop+0x30>
 636:	2e 9a       	sbi	0x05, 6	; 5
 638:	1a 82       	std	Y+2, r1	; 0x02
 63a:	19 82       	std	Y+1, r1	; 0x01
 63c:	05 c0       	rjmp	.+10     	; 0x648 <i2c_stop+0x54>
 63e:	89 81       	ldd	r24, Y+1	; 0x01
 640:	9a 81       	ldd	r25, Y+2	; 0x02
 642:	01 96       	adiw	r24, 0x01	; 1
 644:	9a 83       	std	Y+2, r25	; 0x02
 646:	89 83       	std	Y+1, r24	; 0x01
 648:	89 81       	ldd	r24, Y+1	; 0x01
 64a:	9a 81       	ldd	r25, Y+2	; 0x02
 64c:	02 97       	sbiw	r24, 0x02	; 2
 64e:	b8 f3       	brcs	.-18     	; 0x63e <i2c_stop+0x4a>
 650:	0f 90       	pop	r0
 652:	0f 90       	pop	r0
 654:	cf 91       	pop	r28
 656:	df 91       	pop	r29
 658:	08 95       	ret

0000065a <OdczytI2c>:
 65a:	af 92       	push	r10
 65c:	bf 92       	push	r11
 65e:	cf 92       	push	r12
 660:	df 92       	push	r13
 662:	ff 92       	push	r15
 664:	0f 93       	push	r16
 666:	1f 93       	push	r17
 668:	cf 93       	push	r28
 66a:	df 93       	push	r29
 66c:	f8 2e       	mov	r15, r24
 66e:	06 2f       	mov	r16, r22
 670:	5a 01       	movw	r10, r20
 672:	69 01       	movw	r12, r18
 674:	0e 94 d0 02 	call	0x5a0	; 0x5a0 <i2c_start>
 678:	10 e0       	ldi	r17, 0x00	; 0
 67a:	c8 01       	movw	r24, r16
 67c:	0e 94 9e 02 	call	0x53c	; 0x53c <i2c_send>
 680:	8f 2d       	mov	r24, r15
 682:	90 e0       	ldi	r25, 0x00	; 0
 684:	0e 94 9e 02 	call	0x53c	; 0x53c <i2c_send>
 688:	c0 e0       	ldi	r28, 0x00	; 0
 68a:	d0 e0       	ldi	r29, 0x00	; 0
 68c:	0f 5f       	subi	r16, 0xFF	; 255
 68e:	1f 4f       	sbci	r17, 0xFF	; 255
 690:	0f c0       	rjmp	.+30     	; 0x6b0 <OdczytI2c+0x56>
 692:	0e 94 d0 02 	call	0x5a0	; 0x5a0 <i2c_start>
 696:	c8 01       	movw	r24, r16
 698:	0e 94 9e 02 	call	0x53c	; 0x53c <i2c_send>
 69c:	8c 2f       	mov	r24, r28
 69e:	0e 94 51 02 	call	0x4a2	; 0x4a2 <i2c_read>
 6a2:	f6 01       	movw	r30, r12
 6a4:	ec 0f       	add	r30, r28
 6a6:	fd 1f       	adc	r31, r29
 6a8:	80 83       	st	Z, r24
 6aa:	0e 94 fa 02 	call	0x5f4	; 0x5f4 <i2c_stop>
 6ae:	21 96       	adiw	r28, 0x01	; 1
 6b0:	ca 15       	cp	r28, r10
 6b2:	db 05       	cpc	r29, r11
 6b4:	70 f3       	brcs	.-36     	; 0x692 <OdczytI2c+0x38>
 6b6:	df 91       	pop	r29
 6b8:	cf 91       	pop	r28
 6ba:	1f 91       	pop	r17
 6bc:	0f 91       	pop	r16
 6be:	ff 90       	pop	r15
 6c0:	df 90       	pop	r13
 6c2:	cf 90       	pop	r12
 6c4:	bf 90       	pop	r11
 6c6:	af 90       	pop	r10
 6c8:	08 95       	ret

000006ca <ZapisI2c>:
 6ca:	ef 92       	push	r14
 6cc:	ff 92       	push	r15
 6ce:	0f 93       	push	r16
 6d0:	1f 93       	push	r17
 6d2:	df 93       	push	r29
 6d4:	cf 93       	push	r28
 6d6:	00 d0       	rcall	.+0      	; 0x6d8 <ZapisI2c+0xe>
 6d8:	00 d0       	rcall	.+0      	; 0x6da <ZapisI2c+0x10>
 6da:	cd b7       	in	r28, 0x3d	; 61
 6dc:	de b7       	in	r29, 0x3e	; 62
 6de:	e8 2e       	mov	r14, r24
 6e0:	8a 01       	movw	r16, r20
 6e2:	f2 2e       	mov	r15, r18
 6e4:	1c 82       	std	Y+4, r1	; 0x04
 6e6:	1b 82       	std	Y+3, r1	; 0x03
 6e8:	7a 83       	std	Y+2, r23	; 0x02
 6ea:	69 83       	std	Y+1, r22	; 0x01
 6ec:	21 c0       	rjmp	.+66     	; 0x730 <ZapisI2c+0x66>
 6ee:	0e 94 d0 02 	call	0x5a0	; 0x5a0 <i2c_start>
 6f2:	8f 2d       	mov	r24, r15
 6f4:	90 e0       	ldi	r25, 0x00	; 0
 6f6:	0e 94 9e 02 	call	0x53c	; 0x53c <i2c_send>
 6fa:	89 81       	ldd	r24, Y+1	; 0x01
 6fc:	9a 81       	ldd	r25, Y+2	; 0x02
 6fe:	0e 94 9e 02 	call	0x53c	; 0x53c <i2c_send>
 702:	8e 2d       	mov	r24, r14
 704:	90 e0       	ldi	r25, 0x00	; 0
 706:	0e 94 9e 02 	call	0x53c	; 0x53c <i2c_send>
 70a:	0e 94 fa 02 	call	0x5f4	; 0x5f4 <i2c_stop>
 70e:	1c 82       	std	Y+4, r1	; 0x04
 710:	1b 82       	std	Y+3, r1	; 0x03
 712:	05 c0       	rjmp	.+10     	; 0x71e <ZapisI2c+0x54>
 714:	8b 81       	ldd	r24, Y+3	; 0x03
 716:	9c 81       	ldd	r25, Y+4	; 0x04
 718:	01 96       	adiw	r24, 0x01	; 1
 71a:	9c 83       	std	Y+4, r25	; 0x04
 71c:	8b 83       	std	Y+3, r24	; 0x03
 71e:	8b 81       	ldd	r24, Y+3	; 0x03
 720:	9c 81       	ldd	r25, Y+4	; 0x04
 722:	0a 97       	sbiw	r24, 0x0a	; 10
 724:	b8 f3       	brcs	.-18     	; 0x714 <ZapisI2c+0x4a>
 726:	89 81       	ldd	r24, Y+1	; 0x01
 728:	9a 81       	ldd	r25, Y+2	; 0x02
 72a:	01 96       	adiw	r24, 0x01	; 1
 72c:	9a 83       	std	Y+2, r25	; 0x02
 72e:	89 83       	std	Y+1, r24	; 0x01
 730:	89 81       	ldd	r24, Y+1	; 0x01
 732:	9a 81       	ldd	r25, Y+2	; 0x02
 734:	80 17       	cp	r24, r16
 736:	91 07       	cpc	r25, r17
 738:	d0 f2       	brcs	.-76     	; 0x6ee <ZapisI2c+0x24>
 73a:	0f 90       	pop	r0
 73c:	0f 90       	pop	r0
 73e:	0f 90       	pop	r0
 740:	0f 90       	pop	r0
 742:	cf 91       	pop	r28
 744:	df 91       	pop	r29
 746:	1f 91       	pop	r17
 748:	0f 91       	pop	r16
 74a:	ff 90       	pop	r15
 74c:	ef 90       	pop	r14
 74e:	08 95       	ret

00000750 <__vector_11>:
 750:	1f 92       	push	r1
 752:	0f 92       	push	r0
 754:	0f b6       	in	r0, 0x3f	; 63
 756:	0f 92       	push	r0
 758:	11 24       	eor	r1, r1
 75a:	8f 93       	push	r24
 75c:	80 91 0c 01 	lds	r24, 0x010C
 760:	8f 5f       	subi	r24, 0xFF	; 255
 762:	80 93 0c 01 	sts	0x010C, r24
 766:	8f 91       	pop	r24
 768:	0f 90       	pop	r0
 76a:	0f be       	out	0x3f, r0	; 63
 76c:	0f 90       	pop	r0
 76e:	1f 90       	pop	r1
 770:	18 95       	reti

00000772 <__vector_1>:
 772:	1f 92       	push	r1
 774:	0f 92       	push	r0
 776:	0f b6       	in	r0, 0x3f	; 63
 778:	0f 92       	push	r0
 77a:	11 24       	eor	r1, r1
 77c:	8f 93       	push	r24
 77e:	9f 93       	push	r25
 780:	80 91 0d 01 	lds	r24, 0x010D
 784:	8f 5f       	subi	r24, 0xFF	; 255
 786:	80 93 0d 01 	sts	0x010D, r24
 78a:	8b b1       	in	r24, 0x0b	; 11
 78c:	98 e0       	ldi	r25, 0x08	; 8
 78e:	89 27       	eor	r24, r25
 790:	8b b9       	out	0x0b, r24	; 11
 792:	9f 91       	pop	r25
 794:	8f 91       	pop	r24
 796:	0f 90       	pop	r0
 798:	0f be       	out	0x3f, r0	; 63
 79a:	0f 90       	pop	r0
 79c:	1f 90       	pop	r1
 79e:	18 95       	reti

000007a0 <main>:
 7a0:	ef 92       	push	r14
 7a2:	ff 92       	push	r15
 7a4:	0f 93       	push	r16
 7a6:	1f 93       	push	r17
 7a8:	df 93       	push	r29
 7aa:	cf 93       	push	r28
 7ac:	cd b7       	in	r28, 0x3d	; 61
 7ae:	de b7       	in	r29, 0x3e	; 62
 7b0:	60 97       	sbiw	r28, 0x10	; 16
 7b2:	0f b6       	in	r0, 0x3f	; 63
 7b4:	f8 94       	cli
 7b6:	de bf       	out	0x3e, r29	; 62
 7b8:	0f be       	out	0x3f, r0	; 63
 7ba:	cd bf       	out	0x3d, r28	; 61
 7bc:	8a b1       	in	r24, 0x0a	; 10
 7be:	8a 60       	ori	r24, 0x0A	; 10
 7c0:	8a b9       	out	0x0a, r24	; 10
 7c2:	5a 9a       	sbi	0x0b, 2	; 11
 7c4:	80 91 69 00 	lds	r24, 0x0069
 7c8:	81 60       	ori	r24, 0x01	; 1
 7ca:	80 93 69 00 	sts	0x0069, r24
 7ce:	e8 9a       	sbi	0x1d, 0	; 29
 7d0:	80 91 6f 00 	lds	r24, 0x006F
 7d4:	82 60       	ori	r24, 0x02	; 2
 7d6:	80 93 6f 00 	sts	0x006F, r24
 7da:	80 91 81 00 	lds	r24, 0x0081
 7de:	8c 60       	ori	r24, 0x0C	; 12
 7e0:	80 93 81 00 	sts	0x0081, r24
 7e4:	82 e1       	ldi	r24, 0x12	; 18
 7e6:	9a e7       	ldi	r25, 0x7A	; 122
 7e8:	90 93 89 00 	sts	0x0089, r25
 7ec:	80 93 88 00 	sts	0x0088, r24
 7f0:	8f b7       	in	r24, 0x3f	; 63
 7f2:	80 68       	ori	r24, 0x80	; 128
 7f4:	8f bf       	out	0x3f, r24	; 63
 7f6:	78 94       	sei
 7f8:	82 e0       	ldi	r24, 0x02	; 2
 7fa:	89 83       	std	Y+1, r24	; 0x01
 7fc:	0e 94 d6 00 	call	0x1ac	; 0x1ac <LCD_Initalize>
 800:	20 e0       	ldi	r18, 0x00	; 0
 802:	38 e0       	ldi	r19, 0x08	; 8
 804:	48 ec       	ldi	r20, 0xC8	; 200
 806:	50 e0       	ldi	r21, 0x00	; 0
 808:	0b c0       	rjmp	.+22     	; 0x820 <main+0x80>
 80a:	8b b1       	in	r24, 0x0b	; 11
 80c:	83 27       	eor	r24, r19
 80e:	8b b9       	out	0x0b, r24	; 11
 810:	88 eb       	ldi	r24, 0xB8	; 184
 812:	9b e0       	ldi	r25, 0x0B	; 11
 814:	fa 01       	movw	r30, r20
 816:	31 97       	sbiw	r30, 0x01	; 1
 818:	f1 f7       	brne	.-4      	; 0x816 <main+0x76>
 81a:	01 97       	sbiw	r24, 0x01	; 1
 81c:	d9 f7       	brne	.-10     	; 0x814 <main+0x74>
 81e:	2f 5f       	subi	r18, 0xFF	; 255
 820:	2a 30       	cpi	r18, 0x0A	; 10
 822:	98 f3       	brcs	.-26     	; 0x80a <main+0x6a>
 824:	82 e0       	ldi	r24, 0x02	; 2
 826:	89 83       	std	Y+1, r24	; 0x01
 828:	84 e6       	ldi	r24, 0x64	; 100
 82a:	90 e0       	ldi	r25, 0x00	; 0
 82c:	0e 94 29 02 	call	0x452	; 0x452 <TWI_SetBusSpeed>
 830:	83 e8       	ldi	r24, 0x83	; 131
 832:	89 83       	std	Y+1, r24	; 0x01
 834:	82 ea       	ldi	r24, 0xA2	; 162
 836:	6d e0       	ldi	r22, 0x0D	; 13
 838:	41 e0       	ldi	r20, 0x01	; 1
 83a:	8e 01       	movw	r16, r28
 83c:	0f 5f       	subi	r16, 0xFF	; 255
 83e:	1f 4f       	sbci	r17, 0xFF	; 255
 840:	98 01       	movw	r18, r16
 842:	0e 94 b1 01 	call	0x362	; 0x362 <TWI_write_buf>
 846:	80 e1       	ldi	r24, 0x10	; 16
 848:	97 e2       	ldi	r25, 0x27	; 39
 84a:	01 97       	sbiw	r24, 0x01	; 1
 84c:	f1 f7       	brne	.-4      	; 0x84a <main+0xaa>
 84e:	78 01       	movw	r14, r16
 850:	8e 01       	movw	r16, r28
 852:	0e 5f       	subi	r16, 0xFE	; 254
 854:	1f 4f       	sbci	r17, 0xFF	; 255
 856:	80 91 0c 01 	lds	r24, 0x010C
 85a:	88 23       	and	r24, r24
 85c:	e1 f3       	breq	.-8      	; 0x856 <main+0xb6>
 85e:	10 92 0c 01 	sts	0x010C, r1
 862:	0e 94 c6 00 	call	0x18c	; 0x18c <LCD_Clear>
 866:	82 ea       	ldi	r24, 0xA2	; 162
 868:	62 e0       	ldi	r22, 0x02	; 2
 86a:	41 e0       	ldi	r20, 0x01	; 1
 86c:	97 01       	movw	r18, r14
 86e:	0e 94 e4 01 	call	0x3c8	; 0x3c8 <TWI_read_buf>
 872:	89 81       	ldd	r24, Y+1	; 0x01
 874:	0e 94 11 01 	call	0x222	; 0x222 <BCD_to_dec>
 878:	89 83       	std	Y+1, r24	; 0x01
 87a:	90 e0       	ldi	r25, 0x00	; 0
 87c:	a0 e0       	ldi	r26, 0x00	; 0
 87e:	b0 e0       	ldi	r27, 0x00	; 0
 880:	bc 01       	movw	r22, r24
 882:	cd 01       	movw	r24, r26
 884:	a8 01       	movw	r20, r16
 886:	0e 94 1c 01 	call	0x238	; 0x238 <number_to_string>
 88a:	0e 94 af 00 	call	0x15e	; 0x15e <LCD_WriteText>
 88e:	e3 cf       	rjmp	.-58     	; 0x856 <main+0xb6>

00000890 <__divmodhi4>:
 890:	97 fb       	bst	r25, 7
 892:	09 2e       	mov	r0, r25
 894:	07 26       	eor	r0, r23
 896:	0a d0       	rcall	.+20     	; 0x8ac <__divmodhi4_neg1>
 898:	77 fd       	sbrc	r23, 7
 89a:	04 d0       	rcall	.+8      	; 0x8a4 <__divmodhi4_neg2>
 89c:	2e d0       	rcall	.+92     	; 0x8fa <__udivmodhi4>
 89e:	06 d0       	rcall	.+12     	; 0x8ac <__divmodhi4_neg1>
 8a0:	00 20       	and	r0, r0
 8a2:	1a f4       	brpl	.+6      	; 0x8aa <__divmodhi4_exit>

000008a4 <__divmodhi4_neg2>:
 8a4:	70 95       	com	r23
 8a6:	61 95       	neg	r22
 8a8:	7f 4f       	sbci	r23, 0xFF	; 255

000008aa <__divmodhi4_exit>:
 8aa:	08 95       	ret

000008ac <__divmodhi4_neg1>:
 8ac:	f6 f7       	brtc	.-4      	; 0x8aa <__divmodhi4_exit>
 8ae:	90 95       	com	r25
 8b0:	81 95       	neg	r24
 8b2:	9f 4f       	sbci	r25, 0xFF	; 255
 8b4:	08 95       	ret

000008b6 <__udivmodsi4>:
 8b6:	a1 e2       	ldi	r26, 0x21	; 33
 8b8:	1a 2e       	mov	r1, r26
 8ba:	aa 1b       	sub	r26, r26
 8bc:	bb 1b       	sub	r27, r27
 8be:	fd 01       	movw	r30, r26
 8c0:	0d c0       	rjmp	.+26     	; 0x8dc <__udivmodsi4_ep>

000008c2 <__udivmodsi4_loop>:
 8c2:	aa 1f       	adc	r26, r26
 8c4:	bb 1f       	adc	r27, r27
 8c6:	ee 1f       	adc	r30, r30
 8c8:	ff 1f       	adc	r31, r31
 8ca:	a2 17       	cp	r26, r18
 8cc:	b3 07       	cpc	r27, r19
 8ce:	e4 07       	cpc	r30, r20
 8d0:	f5 07       	cpc	r31, r21
 8d2:	20 f0       	brcs	.+8      	; 0x8dc <__udivmodsi4_ep>
 8d4:	a2 1b       	sub	r26, r18
 8d6:	b3 0b       	sbc	r27, r19
 8d8:	e4 0b       	sbc	r30, r20
 8da:	f5 0b       	sbc	r31, r21

000008dc <__udivmodsi4_ep>:
 8dc:	66 1f       	adc	r22, r22
 8de:	77 1f       	adc	r23, r23
 8e0:	88 1f       	adc	r24, r24
 8e2:	99 1f       	adc	r25, r25
 8e4:	1a 94       	dec	r1
 8e6:	69 f7       	brne	.-38     	; 0x8c2 <__udivmodsi4_loop>
 8e8:	60 95       	com	r22
 8ea:	70 95       	com	r23
 8ec:	80 95       	com	r24
 8ee:	90 95       	com	r25
 8f0:	9b 01       	movw	r18, r22
 8f2:	ac 01       	movw	r20, r24
 8f4:	bd 01       	movw	r22, r26
 8f6:	cf 01       	movw	r24, r30
 8f8:	08 95       	ret

000008fa <__udivmodhi4>:
 8fa:	aa 1b       	sub	r26, r26
 8fc:	bb 1b       	sub	r27, r27
 8fe:	51 e1       	ldi	r21, 0x11	; 17
 900:	07 c0       	rjmp	.+14     	; 0x910 <__udivmodhi4_ep>

00000902 <__udivmodhi4_loop>:
 902:	aa 1f       	adc	r26, r26
 904:	bb 1f       	adc	r27, r27
 906:	a6 17       	cp	r26, r22
 908:	b7 07       	cpc	r27, r23
 90a:	10 f0       	brcs	.+4      	; 0x910 <__udivmodhi4_ep>
 90c:	a6 1b       	sub	r26, r22
 90e:	b7 0b       	sbc	r27, r23

00000910 <__udivmodhi4_ep>:
 910:	88 1f       	adc	r24, r24
 912:	99 1f       	adc	r25, r25
 914:	5a 95       	dec	r21
 916:	a9 f7       	brne	.-22     	; 0x902 <__udivmodhi4_loop>
 918:	80 95       	com	r24
 91a:	90 95       	com	r25
 91c:	bc 01       	movw	r22, r24
 91e:	cd 01       	movw	r24, r26
 920:	08 95       	ret

00000922 <_exit>:
 922:	f8 94       	cli

00000924 <__stop_program>:
 924:	ff cf       	rjmp	.-2      	; 0x924 <__stop_program>
