:1000000012C016C22BC02AC029C028C028C226C0D0
:1000100025C024C023C022C021C020C01FC01EC0D4
:100020001DC01CC01BC011241FBECFE5D4E0DEBF25
:10003000CDBF10E0A0E6B0E0EEEAF6E002C0059029
:100040000D92A439B107D9F710E0A4E9B0E001C0DE
:100050001D92A639B107E1F71DD227C3D1CFBC014C
:1000600080E49FE1DFD2603130F0862F90E040974E
:1000700095958795682F60B9089584EA86BF06B67E
:1000800007FEFDCF089584E986BF06B604FEFDCFC6
:10009000089583B984E886BF06B607FEFDCF0895AC
:1000A0008295880F880F807C846886BF06B607FE1D
:1000B000FDCF83B10895982FF90184EA86BF06B673
:1000C00007FEFDCF93B984E886BF06B607FEFDCFD5
:1000D00063B984E886BF06B607FEFDCF09C08081FC
:1000E00083B996BF06B607FEFDCF3196415001C0D9
:1000F00094E84423A1F784E986BF06B604FEFDCF49
:100100000895982FF90184EA86BF06B607FEFDCF51
:1001100093B984E886BF06B607FEFDCF63B984E8CD
:1001200086BF06B607FEFDCF84EA86BF06B607FE89
:10013000FDCF9F5F93B984E886BF06B607FEFDCF6B
:1001400012C0415080E090E011F081E090E036E094
:10015000880F991F3A95E1F7846886BF06B607FEB7
:10016000FDCF83B18193442361F784E986BF06B64E
:1001700004FEFDCF089589B7846189BF8EB58C6078
:100180008EBD82E19AE79BBD8ABD089585B78360E5
:1001900085BF8BB780648BBF0895482F6AE036D245
:1001A000282F30E084E0220F331F8A95E1F7842F57
:1001B0002DD2892F822B0895282F22952F709AE017
:1001C000299F900111248F70820F089580FF02C033
:1001D000C79A01C0C79881FF02C0959A01C095983F
:1001E00082FF02C0969A01C0969883FF02C0979A38
:1001F00008959798089586B3881F8827881F859942
:100200008260869984608799886008951F938F988B
:100210008E988D98BF98C29AC19AEDDF182F1295CB
:10022000107FC198C19AE7DFC198812B1F91089573
:10023000C398ECDF08951F93182F8F9A8E9A8D9A8A
:10024000BF9AC298C19A82958F70C0DFC198C19A37
:10025000812FBCDFC198ECDF87FDFDCF1F91089592
:10026000C398E9DF0895C39AE6DF0895982F805870
:10027000883008F49770892FF6DF0895CF93DF93C5
:10028000EC0107C0892F8058883008F49770892FB7
:10029000EADF99919923B1F7DF91CF9108951F93E8
:1002A000CF93DF93EB0190E0877090700896880FF2
:1002B000880F880FD5DF10E08991D5DF1F5F1830D8
:1002C000D9F7DF91CF911F910895813009F480E42F
:1002D0006058860FC5DF089581E0C2DF089583E08E
:1002E000BFDF08958FE0BCDF08958CE0B9DF08958B
:1002F0000F931F938F9A8E9A8D9ABF9ABB9AB99A31
:10030000BA9AC39AC19AC29A80E395E70197F1F726
:10031000C198C398C298C19A83E058DFC19888E019
:1003200090E20197F1F7C19A83E050DFC19808ECA1
:1003300010E0C8010197F1F7C19A83E047DFC19847
:10034000C8010197F1F7C19A82E040DFC198C80166
:100350000197F1F788E284DF88E082DF8CE080DFBC
:1003600086E07EDFB9DF1F910F910895DF93CF9371
:10037000CDB7DEB761970FB6F894DEBF0FBECDBF25
:10038000BE016F5F7F4F4AE050E060D177DF61963A
:100390000FB6F894DEBF0FBECDBFCF91DF910895A9
:1003A000A19AA39AA99AAB9A80E395E70197F1F7EE
:1003B000AB98A99808951F93CF93DF93182FDB0173
:1003C00050E040E0C8ECD0E029C0CB01022E02C0D2
:1003D000959587950A94E2F780FDAB9A84EF91E0BA
:1003E000FE013197F1F70197D9F7A99A84EF91E0CF
:1003F000FE013197F1F70197D9F7A998AB985F5FA4
:10040000511711F44FEF06C0215030408FEF2F3FAE
:100410003807D9F64F5F4F3F39F011968C91682F0E
:1004200070E027E030E0D1CFDF91CF911F910895A8
:100430001F920F920FB60F9211248F939F9388B340
:1004400090E1892788BB8091950080648093950016
:100450009F918F910F900FBE0F901F9018951F9234
:100460000F920FB60F9211248F93809194008823DE
:1004700041F01092940080919500886080939500DF
:1004800003C081E0809394008F910F900FBE0F9076
:100490001F901895FF920F931F93DF93CF93CDB7C3
:1004A000DEB729970FB6F894DEBF0FBECDBFDE01D1
:1004B0001296EBE8F0E088E001900D928150E1F7B0
:1004C00082E0898363DE6CDFBC9A84E690E0C7DD5E
:1004D00083E8898382EA6DE041E08E010F5F1F4F60
:1004E0009801E9DD84E1898382EA62E041E09801D4
:1004F000E2DD41DEFDDE80E8BE016E5F7F4FCFDED4
:10050000EBDE80E690E0BADE80E0B0DE83E4AEDED3
:1005100080E690E0B3DE80E0A9DE83E4A7DE81E040
:1005200060E0D3DE8FE690E0A9DE20E030E148EC29
:1005300050E088B3832788BB88EE93E0FA013197B7
:10054000F1F70197D9F72F5F2A3099F7809195003D
:100550008D7F809395007894FF248E010F5F1F4F4D
:100560008091950086FFFCCF809195008F7B8093D2
:10057000950082EA64E041E09801C3DD89818F73D0
:1005800089831ADE898380E062E09FDE89818A3078
:1005900010F480E36BDE898190E0E8DE82EA63E0BC
:1005A00041E09801AEDD89818F77898305DE8983FB
:1005B00080E065E08ADE89818A3010F480E356DECF
:1005C000898190E0D3DE82EA62E041E0980199DD22
:1005D00089818F778983F0DD898380E068E075DE2B
:1005E00089818A3010F480E341DE898190E0BEDEAB
:1005F0008F2DF39480FDB4CF8F2D86958295880F33
:10060000807E898383E0B801D6DEAACF991B79E08A
:1006100004C0991F961708F0961B881F7A95C9F792
:1006200080950895AA1BBB1B51E107C0AA1FBB1FE1
:10063000A617B70710F0A61BB70B881F991F5A956E
:10064000A9F780959095BC01CD010895FB019F010C
:10065000E8944230BCF04532ACF44A3029F497FBC0
:100660001EF4909581959F4F642F7727DBDF805D87
:100670008A330CF0895D8193CB010097A9F716F4BA
:100680005DE251931082C90100C0DC01FC01672FBB
:1006900071917723E1F7329704C07C916D93708359
:0E06A0006291AE17BF07C8F30895F894FFCF1C
:1006AE00202031303A30383A313420203138002091
:1006BE0032382E30332E323031352020202020415A
:1006CE006C61726D3A30373A313000060909060016
:0406DE000000000018
:00000001FF
